{
  "contractName": "CryptoMonsters",
  "abi": [
    {
      "constant": true,
      "inputs": [
        {
          "name": "interfaceId",
          "type": "bytes4"
        }
      ],
      "name": "supportsInterface",
      "outputs": [
        {
          "name": "",
          "type": "bool"
        }
      ],
      "payable": false,
      "stateMutability": "view",
      "type": "function"
    },
    {
      "constant": true,
      "inputs": [],
      "name": "name",
      "outputs": [
        {
          "name": "",
          "type": "string"
        }
      ],
      "payable": false,
      "stateMutability": "view",
      "type": "function"
    },
    {
      "constant": true,
      "inputs": [
        {
          "name": "tokenId",
          "type": "uint256"
        }
      ],
      "name": "getApproved",
      "outputs": [
        {
          "name": "",
          "type": "address"
        }
      ],
      "payable": false,
      "stateMutability": "view",
      "type": "function"
    },
    {
      "constant": false,
      "inputs": [
        {
          "name": "to",
          "type": "address"
        },
        {
          "name": "tokenId",
          "type": "uint256"
        }
      ],
      "name": "approve",
      "outputs": [],
      "payable": false,
      "stateMutability": "nonpayable",
      "type": "function"
    },
    {
      "constant": true,
      "inputs": [],
      "name": "totalSupply",
      "outputs": [
        {
          "name": "",
          "type": "uint256"
        }
      ],
      "payable": false,
      "stateMutability": "view",
      "type": "function"
    },
    {
      "constant": false,
      "inputs": [
        {
          "name": "from",
          "type": "address"
        },
        {
          "name": "to",
          "type": "address"
        },
        {
          "name": "tokenId",
          "type": "uint256"
        }
      ],
      "name": "transferFrom",
      "outputs": [],
      "payable": false,
      "stateMutability": "nonpayable",
      "type": "function"
    },
    {
      "constant": true,
      "inputs": [
        {
          "name": "owner",
          "type": "address"
        },
        {
          "name": "index",
          "type": "uint256"
        }
      ],
      "name": "tokenOfOwnerByIndex",
      "outputs": [
        {
          "name": "",
          "type": "uint256"
        }
      ],
      "payable": false,
      "stateMutability": "view",
      "type": "function"
    },
    {
      "constant": false,
      "inputs": [
        {
          "name": "to",
          "type": "address"
        },
        {
          "name": "tokenId",
          "type": "uint256"
        }
      ],
      "name": "mint",
      "outputs": [
        {
          "name": "",
          "type": "bool"
        }
      ],
      "payable": false,
      "stateMutability": "nonpayable",
      "type": "function"
    },
    {
      "constant": false,
      "inputs": [
        {
          "name": "from",
          "type": "address"
        },
        {
          "name": "to",
          "type": "address"
        },
        {
          "name": "tokenId",
          "type": "uint256"
        }
      ],
      "name": "safeTransferFrom",
      "outputs": [],
      "payable": false,
      "stateMutability": "nonpayable",
      "type": "function"
    },
    {
      "constant": true,
      "inputs": [
        {
          "name": "",
          "type": "address"
        }
      ],
      "name": "draw",
      "outputs": [
        {
          "name": "",
          "type": "uint256"
        }
      ],
      "payable": false,
      "stateMutability": "view",
      "type": "function"
    },
    {
      "constant": true,
      "inputs": [
        {
          "name": "index",
          "type": "uint256"
        }
      ],
      "name": "tokenByIndex",
      "outputs": [
        {
          "name": "",
          "type": "uint256"
        }
      ],
      "payable": false,
      "stateMutability": "view",
      "type": "function"
    },
    {
      "constant": true,
      "inputs": [
        {
          "name": "tokenId",
          "type": "uint256"
        }
      ],
      "name": "ownerOf",
      "outputs": [
        {
          "name": "",
          "type": "address"
        }
      ],
      "payable": false,
      "stateMutability": "view",
      "type": "function"
    },
    {
      "constant": true,
      "inputs": [
        {
          "name": "",
          "type": "address"
        }
      ],
      "name": "lost",
      "outputs": [
        {
          "name": "",
          "type": "uint256"
        }
      ],
      "payable": false,
      "stateMutability": "view",
      "type": "function"
    },
    {
      "constant": true,
      "inputs": [
        {
          "name": "owner",
          "type": "address"
        }
      ],
      "name": "balanceOf",
      "outputs": [
        {
          "name": "",
          "type": "uint256"
        }
      ],
      "payable": false,
      "stateMutability": "view",
      "type": "function"
    },
    {
      "constant": true,
      "inputs": [
        {
          "name": "",
          "type": "bytes32"
        }
      ],
      "name": "usedNames",
      "outputs": [
        {
          "name": "",
          "type": "bool"
        }
      ],
      "payable": false,
      "stateMutability": "view",
      "type": "function"
    },
    {
      "constant": true,
      "inputs": [],
      "name": "owner",
      "outputs": [
        {
          "name": "",
          "type": "address"
        }
      ],
      "payable": false,
      "stateMutability": "view",
      "type": "function"
    },
    {
      "constant": true,
      "inputs": [],
      "name": "symbol",
      "outputs": [
        {
          "name": "",
          "type": "string"
        }
      ],
      "payable": false,
      "stateMutability": "view",
      "type": "function"
    },
    {
      "constant": false,
      "inputs": [
        {
          "name": "account",
          "type": "address"
        }
      ],
      "name": "addMinter",
      "outputs": [],
      "payable": false,
      "stateMutability": "nonpayable",
      "type": "function"
    },
    {
      "constant": false,
      "inputs": [],
      "name": "renounceMinter",
      "outputs": [],
      "payable": false,
      "stateMutability": "nonpayable",
      "type": "function"
    },
    {
      "constant": false,
      "inputs": [
        {
          "name": "to",
          "type": "address"
        },
        {
          "name": "approved",
          "type": "bool"
        }
      ],
      "name": "setApprovalForAll",
      "outputs": [],
      "payable": false,
      "stateMutability": "nonpayable",
      "type": "function"
    },
    {
      "constant": true,
      "inputs": [
        {
          "name": "",
          "type": "address"
        }
      ],
      "name": "win",
      "outputs": [
        {
          "name": "",
          "type": "uint256"
        }
      ],
      "payable": false,
      "stateMutability": "view",
      "type": "function"
    },
    {
      "constant": true,
      "inputs": [
        {
          "name": "account",
          "type": "address"
        }
      ],
      "name": "isMinter",
      "outputs": [
        {
          "name": "",
          "type": "bool"
        }
      ],
      "payable": false,
      "stateMutability": "view",
      "type": "function"
    },
    {
      "constant": false,
      "inputs": [
        {
          "name": "from",
          "type": "address"
        },
        {
          "name": "to",
          "type": "address"
        },
        {
          "name": "tokenId",
          "type": "uint256"
        },
        {
          "name": "_data",
          "type": "bytes"
        }
      ],
      "name": "safeTransferFrom",
      "outputs": [],
      "payable": false,
      "stateMutability": "nonpayable",
      "type": "function"
    },
    {
      "constant": true,
      "inputs": [
        {
          "name": "",
          "type": "uint256"
        }
      ],
      "name": "monsters",
      "outputs": [
        {
          "name": "name",
          "type": "string"
        },
        {
          "name": "level",
          "type": "uint256"
        },
        {
          "name": "attackPower",
          "type": "uint256"
        },
        {
          "name": "defensePower",
          "type": "uint256"
        },
        {
          "name": "monsterOwner",
          "type": "address"
        },
        {
          "name": "id",
          "type": "uint256"
        }
      ],
      "payable": false,
      "stateMutability": "view",
      "type": "function"
    },
    {
      "constant": true,
      "inputs": [
        {
          "name": "tokenId",
          "type": "uint256"
        }
      ],
      "name": "tokenURI",
      "outputs": [
        {
          "name": "",
          "type": "string"
        }
      ],
      "payable": false,
      "stateMutability": "view",
      "type": "function"
    },
    {
      "constant": true,
      "inputs": [
        {
          "name": "owner",
          "type": "address"
        },
        {
          "name": "operator",
          "type": "address"
        }
      ],
      "name": "isApprovedForAll",
      "outputs": [
        {
          "name": "",
          "type": "bool"
        }
      ],
      "payable": false,
      "stateMutability": "view",
      "type": "function"
    },
    {
      "constant": true,
      "inputs": [
        {
          "name": "",
          "type": "address"
        }
      ],
      "name": "coolTime",
      "outputs": [
        {
          "name": "",
          "type": "uint256"
        }
      ],
      "payable": false,
      "stateMutability": "view",
      "type": "function"
    },
    {
      "inputs": [
        {
          "name": "_name",
          "type": "string"
        },
        {
          "name": "_symbol",
          "type": "string"
        }
      ],
      "payable": false,
      "stateMutability": "nonpayable",
      "type": "constructor"
    },
    {
      "anonymous": false,
      "inputs": [
        {
          "indexed": false,
          "name": "_MonsterID",
          "type": "uint256"
        }
      ],
      "name": "MonsterCreated",
      "type": "event"
    },
    {
      "anonymous": false,
      "inputs": [
        {
          "indexed": true,
          "name": "account",
          "type": "address"
        }
      ],
      "name": "MinterAdded",
      "type": "event"
    },
    {
      "anonymous": false,
      "inputs": [
        {
          "indexed": true,
          "name": "account",
          "type": "address"
        }
      ],
      "name": "MinterRemoved",
      "type": "event"
    },
    {
      "anonymous": false,
      "inputs": [
        {
          "indexed": true,
          "name": "from",
          "type": "address"
        },
        {
          "indexed": true,
          "name": "to",
          "type": "address"
        },
        {
          "indexed": true,
          "name": "tokenId",
          "type": "uint256"
        }
      ],
      "name": "Transfer",
      "type": "event"
    },
    {
      "anonymous": false,
      "inputs": [
        {
          "indexed": true,
          "name": "owner",
          "type": "address"
        },
        {
          "indexed": true,
          "name": "approved",
          "type": "address"
        },
        {
          "indexed": true,
          "name": "tokenId",
          "type": "uint256"
        }
      ],
      "name": "Approval",
      "type": "event"
    },
    {
      "anonymous": false,
      "inputs": [
        {
          "indexed": true,
          "name": "owner",
          "type": "address"
        },
        {
          "indexed": true,
          "name": "operator",
          "type": "address"
        },
        {
          "indexed": false,
          "name": "approved",
          "type": "bool"
        }
      ],
      "name": "ApprovalForAll",
      "type": "event"
    },
    {
      "constant": true,
      "inputs": [],
      "name": "getMonstersLength",
      "outputs": [
        {
          "name": "",
          "type": "uint256"
        }
      ],
      "payable": false,
      "stateMutability": "view",
      "type": "function"
    },
    {
      "constant": false,
      "inputs": [
        {
          "name": "_name",
          "type": "string"
        },
        {
          "name": "_level",
          "type": "uint256"
        },
        {
          "name": "_attackPower",
          "type": "uint256"
        },
        {
          "name": "_defensePower",
          "type": "uint256"
        },
        {
          "name": "_to",
          "type": "address"
        }
      ],
      "name": "createMonster",
      "outputs": [],
      "payable": false,
      "stateMutability": "nonpayable",
      "type": "function"
    },
    {
      "constant": false,
      "inputs": [
        {
          "name": "_monsterId",
          "type": "uint256"
        },
        {
          "name": "_targetId",
          "type": "uint256"
        }
      ],
      "name": "battle",
      "outputs": [],
      "payable": false,
      "stateMutability": "nonpayable",
      "type": "function"
    },
    {
      "constant": false,
      "inputs": [
        {
          "name": "_monsterId1",
          "type": "uint256"
        },
        {
          "name": "_monsterId2",
          "type": "uint256"
        },
        {
          "name": "_fusionMonsterName",
          "type": "string"
        }
      ],
      "name": "fusion",
      "outputs": [],
      "payable": false,
      "stateMutability": "nonpayable",
      "type": "function"
    },
    {
      "constant": true,
      "inputs": [
        {
          "name": "_id",
          "type": "uint256"
        }
      ],
      "name": "getStats",
      "outputs": [
        {
          "name": "name",
          "type": "string"
        },
        {
          "name": "level",
          "type": "uint256"
        },
        {
          "name": "attackPower",
          "type": "uint256"
        },
        {
          "name": "defensePower",
          "type": "uint256"
        },
        {
          "name": "monsterOwner",
          "type": "address"
        }
      ],
      "payable": false,
      "stateMutability": "view",
      "type": "function"
    },
    {
      "constant": true,
      "inputs": [
        {
          "name": "_id",
          "type": "uint256"
        }
      ],
      "name": "getStatsExperimental",
      "outputs": [
        {
          "components": [
            {
              "name": "name",
              "type": "string"
            },
            {
              "name": "level",
              "type": "uint256"
            },
            {
              "name": "attackPower",
              "type": "uint256"
            },
            {
              "name": "defensePower",
              "type": "uint256"
            },
            {
              "name": "monsterOwner",
              "type": "address"
            },
            {
              "name": "id",
              "type": "uint256"
            }
          ],
          "name": "",
          "type": "tuple"
        }
      ],
      "payable": false,
      "stateMutability": "view",
      "type": "function"
    }
  ],
  "bytecode": "0x60806040523480156200001157600080fd5b5060405162004a6438038062004a648339810180604052620000379190810190620004ed565b81818181620000536301ffc9a760e01b6200012b60201b60201c565b6200006b6380ac58cd60e01b6200012b60201b60201c565b6200008363780e9d6360e01b6200012b60201b60201c565b81600990805190602001906200009b929190620003e2565b5080600a9080519060200190620000b4929190620003e2565b50620000cd635b5e139f60e01b6200012b60201b60201c565b50505050620000e2336200020360201b60201c565b33600e60006101000a81548173ffffffffffffffffffffffffffffffffffffffff021916908373ffffffffffffffffffffffffffffffffffffffff160217905550505062000754565b63ffffffff60e01b817bffffffffffffffffffffffffffffffffffffffffffffffffffffffff1916141562000197576040517f08c379a00000000000000000000000000000000000000000000000000000000081526004016200018e906200066e565b60405180910390fd5b6001600080837bffffffffffffffffffffffffffffffffffffffffffffffffffffffff19167bffffffffffffffffffffffffffffffffffffffffffffffffffffffff1916815260200190815260200160002060006101000a81548160ff02191690831515021790555050565b6200021e81600c6200026460201b62002a071790919060201c565b8073ffffffffffffffffffffffffffffffffffffffff167f6ae172837ea30b801fbfcdd4108aa1d5bf8ff775444fd70256b44e6bf3dfc3f660405160405180910390a250565b6200027682826200031760201b60201c565b15620002b9576040517f08c379a0000000000000000000000000000000000000000000000000000000008152600401620002b0906200064c565b60405180910390fd5b60018260000160008373ffffffffffffffffffffffffffffffffffffffff1673ffffffffffffffffffffffffffffffffffffffff16815260200190815260200160002060006101000a81548160ff0219169083151502179055505050565b60008073ffffffffffffffffffffffffffffffffffffffff168273ffffffffffffffffffffffffffffffffffffffff1614156200038b576040517f08c379a0000000000000000000000000000000000000000000000000000000008152600401620003829062000690565b60405180910390fd5b8260000160008373ffffffffffffffffffffffffffffffffffffffff1673ffffffffffffffffffffffffffffffffffffffff16815260200190815260200160002060009054906101000a900460ff16905092915050565b828054600181600116156101000203166002900490600052602060002090601f016020900481019282601f106200042557805160ff191683800117855562000456565b8280016001018555821562000456579182015b828111156200045557825182559160200191906001019062000438565b5b50905062000465919062000469565b5090565b6200048e91905b808211156200048a57600081600090555060010162000470565b5090565b90565b600082601f830112620004a357600080fd5b8151620004ba620004b482620006e0565b620006b2565b91508082526020830160208301858383011115620004d757600080fd5b620004e48382846200071e565b50505092915050565b600080604083850312156200050157600080fd5b600083015167ffffffffffffffff8111156200051c57600080fd5b6200052a8582860162000491565b925050602083015167ffffffffffffffff8111156200054857600080fd5b620005568582860162000491565b9150509250929050565b60006200056f601f836200070d565b91507f526f6c65733a206163636f756e7420616c72656164792068617320726f6c65006000830152602082019050919050565b6000620005b1601c836200070d565b91507f4552433136353a20696e76616c696420696e74657266616365206964000000006000830152602082019050919050565b6000620005f36022836200070d565b91507f526f6c65733a206163636f756e7420697320746865207a65726f20616464726560008301527f73730000000000000000000000000000000000000000000000000000000000006020830152604082019050919050565b60006020820190508181036000830152620006678162000560565b9050919050565b600060208201905081810360008301526200068981620005a2565b9050919050565b60006020820190508181036000830152620006ab81620005e4565b9050919050565b6000604051905081810181811067ffffffffffffffff82111715620006d657600080fd5b8060405250919050565b600067ffffffffffffffff821115620006f857600080fd5b601f19601f8301169050602081019050919050565b600082825260208201905092915050565b60005b838110156200073e57808201518184015260208101905062000721565b838111156200074e576000848401525b50505050565b61430080620007646000396000f3fe608060405234801561001057600080fd5b50600436106101fb5760003560e01c8063750af3ab1161011a578063a34cc845116100ad578063c0576b731161007c578063c0576b7314610624578063c87b56dd14610659578063e85d5bab14610689578063e985e9c5146106a5578063f04b846c146106d5576101fb565b8063a34cc8451461058c578063aa271e1a146105bc578063ad153aeb146105ec578063b88d4fde14610608576101fb565b806395d89b41116100e957806395d89b411461052c578063983b2d561461054a5780639865027514610566578063a22cb46514610570576101fb565b8063750af3ab1461048c5780637b303965146104bc57806387f8fce7146104f05780638da5cb5b1461050e576101fb565b806333c17218116101925780634f6ccce7116101615780634f6ccce7146103cc5780636352211e146103fc57806370405a471461042c57806370a082311461045c576101fb565b806333c172181461032057806340c10f191461035057806342842e0e1461038057806347a59b741461039c576101fb565b806318160ddd116101ce57806318160ddd1461029a57806323b872dd146102b85780632a0c5221146102d45780632f745c59146102f0576101fb565b806301ffc9a71461020057806306fdde0314610230578063081812fc1461024e578063095ea7b31461027e575b600080fd5b61021a600480360361021591908101906130c9565b610705565b6040516102279190613c8c565b60405180910390f35b61023861076c565b6040516102459190613ca7565b60405180910390f35b610268600480360361026391908101906131aa565b61080e565b6040516102759190613c25565b60405180910390f35b61029860048036036102939190810190613064565b610893565b005b6102a2610a40565b6040516102af919061404d565b60405180910390f35b6102d260048036036102cd9190810190612f5e565b610a4d565b005b6102ee60048036036102e991908101906131d3565b610aa6565b005b61030a60048036036103059190810190613064565b610dd4565b604051610317919061404d565b60405180910390f35b61033a600480360361033591908101906131aa565b610e7d565b604051610347919061402b565b60405180910390f35b61036a60048036036103659190810190613064565b610fd2565b6040516103779190613c8c565b60405180910390f35b61039a60048036036103959190810190612f5e565b611030565b005b6103b660048036036103b19190810190612ef9565b611050565b6040516103c3919061404d565b60405180910390f35b6103e660048036036103e191908101906131aa565b611068565b6040516103f3919061404d565b60405180910390f35b610416600480360361041191908101906131aa565b6110d2565b6040516104239190613c25565b60405180910390f35b61044660048036036104419190810190612ef9565b611184565b604051610453919061404d565b60405180910390f35b61047660048036036104719190810190612ef9565b61119c565b604051610483919061404d565b60405180910390f35b6104a660048036036104a191908101906130a0565b61125b565b6040516104b39190613c8c565b60405180910390f35b6104d660048036036104d191908101906131aa565b61127b565b6040516104e7959493929190613cc9565b60405180910390f35b6104f8611387565b604051610505919061404d565b60405180910390f35b610516611394565b6040516105239190613c25565b60405180910390f35b6105346113ba565b6040516105419190613ca7565b60405180910390f35b610564600480360361055f9190810190612ef9565b61145c565b005b61056e6114b0565b005b61058a60048036036105859190810190613028565b6114bb565b005b6105a660048036036105a19190810190612ef9565b611627565b6040516105b3919061404d565b60405180910390f35b6105d660048036036105d19190810190612ef9565b61163f565b6040516105e39190613c8c565b60405180910390f35b6106066004803603610601919081019061311b565b61165c565b005b610622600480360361061d9190810190612fad565b611884565b005b61063e600480360361063991908101906131aa565b6118e0565b60405161065096959493929190613d23565b60405180910390f35b610673600480360361066e91908101906131aa565b6119e1565b6040516106809190613ca7565b60405180910390f35b6106a3600480360361069e919081019061320f565b611ade565b005b6106bf60048036036106ba9190810190612f22565b611e93565b6040516106cc9190613c8c565b60405180910390f35b6106ef60048036036106ea9190810190612ef9565b611f27565b6040516106fc919061404d565b60405180910390f35b6000806000837bffffffffffffffffffffffffffffffffffffffffffffffffffffffff19167bffffffffffffffffffffffffffffffffffffffffffffffffffffffff1916815260200190815260200160002060009054906101000a900460ff169050919050565b606060098054600181600116156101000203166002900480601f0160208091040260200160405190810160405280929190818152602001828054600181600116156101000203166002900480156108045780601f106107d957610100808354040283529160200191610804565b820191906000526020600020905b8154815290600101906020018083116107e757829003601f168201915b5050505050905090565b600061081982611f3f565b610858576040517f08c379a000000000000000000000000000000000000000000000000000000000815260040161084f90613f4b565b60405180910390fd5b6002600083815260200190815260200160002060009054906101000a900473ffffffffffffffffffffffffffffffffffffffff169050919050565b600061089e826110d2565b90508073ffffffffffffffffffffffffffffffffffffffff168373ffffffffffffffffffffffffffffffffffffffff16141561090f576040517f08c379a000000000000000000000000000000000000000000000000000000000815260040161090690613fcb565b60405180910390fd5b8073ffffffffffffffffffffffffffffffffffffffff163373ffffffffffffffffffffffffffffffffffffffff16148061094f575061094e8133611e93565b5b61098e576040517f08c379a000000000000000000000000000000000000000000000000000000000815260040161098590613e8b565b60405180910390fd5b826002600084815260200190815260200160002060006101000a81548173ffffffffffffffffffffffffffffffffffffffff021916908373ffffffffffffffffffffffffffffffffffffffff160217905550818373ffffffffffffffffffffffffffffffffffffffff168273ffffffffffffffffffffffffffffffffffffffff167f8c5be1e5ebec7d5bd14f71427d1e84f3dd0314c0f7b2291e5b200ac8c7c3b92560405160405180910390a4505050565b6000600780549050905090565b610a573382611fb1565b610a96576040517f08c379a0000000000000000000000000000000000000000000000000000000008152600401610a8d90613feb565b60405180910390fd5b610aa183838361208f565b505050565b813373ffffffffffffffffffffffffffffffffffffffff16610ac7826110d2565b73ffffffffffffffffffffffffffffffffffffffff1614610ae757600080fd5b6000600d8481548110610af657fe5b906000526020600020906006020190506000600d8481548110610b1557fe5b90600052602060002090600602019050806003015482600201541115610c215760018260010160008282540192505081905550600a8260020160008282540192505081905550600a826003016000828254019250508190555060106000610b7b876110d2565b73ffffffffffffffffffffffffffffffffffffffff1673ffffffffffffffffffffffffffffffffffffffff1681526020019081526020016000206000815480929190600101919050555060126000610bd2866110d2565b73ffffffffffffffffffffffffffffffffffffffff1673ffffffffffffffffffffffffffffffffffffffff16815260200190815260200160002060008154809291906001019190505550610dcd565b806003015482600201541415610cf757600a816003016000828254019250508190555060116000610c51876110d2565b73ffffffffffffffffffffffffffffffffffffffff1673ffffffffffffffffffffffffffffffffffffffff1681526020019081526020016000206000815480929190600101919050555060116000610ca8866110d2565b73ffffffffffffffffffffffffffffffffffffffff1673ffffffffffffffffffffffffffffffffffffffff16815260200190815260200160002060008154809291906001019190505550610dcc565b60018160010160008282540192505081905550600a816002016000828254019250508190555060126000610d2a876110d2565b73ffffffffffffffffffffffffffffffffffffffff1673ffffffffffffffffffffffffffffffffffffffff1681526020019081526020016000206000815480929190600101919050555060106000610d81866110d2565b73ffffffffffffffffffffffffffffffffffffffff1673ffffffffffffffffffffffffffffffffffffffff168152602001908152602001600020600081548092919060010191905055505b5b5050505050565b6000610ddf8361119c565b8210610e20576040517f08c379a0000000000000000000000000000000000000000000000000000000008152600401610e1790613dab565b60405180910390fd5b600560008473ffffffffffffffffffffffffffffffffffffffff1673ffffffffffffffffffffffffffffffffffffffff1681526020019081526020016000208281548110610e6a57fe5b9060005260206000200154905092915050565b610e85612cb6565b600d8281548110610e9257fe5b90600052602060002090600602016040518060c0016040529081600082018054600181600116156101000203166002900480601f016020809104026020016040519081016040528092919081815260200182805460018160011615610100020316600290048015610f445780601f10610f1957610100808354040283529160200191610f44565b820191906000526020600020905b815481529060010190602001808311610f2757829003601f168201915b505050505081526020016001820154815260200160028201548152602001600382015481526020016004820160009054906101000a900473ffffffffffffffffffffffffffffffffffffffff1673ffffffffffffffffffffffffffffffffffffffff1673ffffffffffffffffffffffffffffffffffffffff1681526020016005820154815250509050919050565b6000610fdd3361163f565b61101c576040517f08c379a000000000000000000000000000000000000000000000000000000000815260040161101390613eeb565b60405180910390fd5b61102683836120b3565b6001905092915050565b61104b83838360405180602001604052806000815250611884565b505050565b60116020528060005260406000206000915090505481565b6000611072610a40565b82106110b3576040517f08c379a00000000000000000000000000000000000000000000000000000000081526004016110aa9061400b565b60405180910390fd5b600782815481106110c057fe5b90600052602060002001549050919050565b6000806001600084815260200190815260200160002060009054906101000a900473ffffffffffffffffffffffffffffffffffffffff169050600073ffffffffffffffffffffffffffffffffffffffff168173ffffffffffffffffffffffffffffffffffffffff16141561117b576040517f08c379a000000000000000000000000000000000000000000000000000000000815260040161117290613ecb565b60405180910390fd5b80915050919050565b60126020528060005260406000206000915090505481565b60008073ffffffffffffffffffffffffffffffffffffffff168273ffffffffffffffffffffffffffffffffffffffff16141561120d576040517f08c379a000000000000000000000000000000000000000000000000000000000815260040161120490613eab565b60405180910390fd5b611254600360008473ffffffffffffffffffffffffffffffffffffffff1673ffffffffffffffffffffffffffffffffffffffff1681526020019081526020016000206120d4565b9050919050565b600f6020528060005260406000206000915054906101000a900460ff1681565b60606000806000806000600d878154811061129257fe5b90600052602060002090600602019050806000018054600181600116156101000203166002900480601f01602080910402602001604051908101604052809291908181526020018280546001816001161561010002031660029004801561133a5780601f1061130f5761010080835404028352916020019161133a565b820191906000526020600020905b81548152906001019060200180831161131d57829003601f168201915b505050505095508060010154945080600201549350806003015492508060040160009054906101000a900473ffffffffffffffffffffffffffffffffffffffff1691505091939590929450565b6000600d80549050905090565b600e60009054906101000a900473ffffffffffffffffffffffffffffffffffffffff1681565b6060600a8054600181600116156101000203166002900480601f0160208091040260200160405190810160405280929190818152602001828054600181600116156101000203166002900480156114525780601f1061142757610100808354040283529160200191611452565b820191906000526020600020905b81548152906001019060200180831161143557829003601f168201915b5050505050905090565b6114653361163f565b6114a4576040517f08c379a000000000000000000000000000000000000000000000000000000000815260040161149b90613eeb565b60405180910390fd5b6114ad816120e2565b50565b6114b93361213c565b565b3373ffffffffffffffffffffffffffffffffffffffff168273ffffffffffffffffffffffffffffffffffffffff16141561152a576040517f08c379a000000000000000000000000000000000000000000000000000000000815260040161152190613e2b565b60405180910390fd5b80600460003373ffffffffffffffffffffffffffffffffffffffff1673ffffffffffffffffffffffffffffffffffffffff16815260200190815260200160002060008473ffffffffffffffffffffffffffffffffffffffff1673ffffffffffffffffffffffffffffffffffffffff16815260200190815260200160002060006101000a81548160ff0219169083151502179055508173ffffffffffffffffffffffffffffffffffffffff163373ffffffffffffffffffffffffffffffffffffffff167f17307eab39ab6107e8899845ad3d59bd9653f200f220920489ca2b5937696c318360405161161b9190613c8c565b60405180910390a35050565b60106020528060005260406000206000915090505481565b600061165582600c61219690919063ffffffff16565b9050919050565b3373ffffffffffffffffffffffffffffffffffffffff16600e60009054906101000a900473ffffffffffffffffffffffffffffffffffffffff1673ffffffffffffffffffffffffffffffffffffffff16146116b657600080fd5b60018410156116c457600080fd5b60018310156116d257600080fd5b60018210156116e057600080fd5b6000600d805490509050600d6040518060c001604052808881526020018781526020018681526020018581526020018473ffffffffffffffffffffffffffffffffffffffff16815260200183815250908060018154018082558091505090600182039060005260206000209060060201600090919290919091506000820151816000019080519060200190611776929190612d02565b5060208201518160010155604082015181600201556060820151816003015560808201518160040160006101000a81548173ffffffffffffffffffffffffffffffffffffffff021916908373ffffffffffffffffffffffffffffffffffffffff16021790555060a082015181600501555050506001600f6000886040516020016118009190613c0e565b60405160208183030381529060405280519060200120815260200190815260200160002060006101000a81548160ff02191690831515021790555061184582826120b3565b7f6209fc68beb5a152cbee7a03b1c4bea6dc79b8dcc1a03c0f07eb7d3f8ea84c0781604051611874919061404d565b60405180910390a1505050505050565b61188f848484610a4d565b61189b8484848461225e565b6118da576040517f08c379a00000000000000000000000000000000000000000000000000000000081526004016118d190613dcb565b60405180910390fd5b50505050565b600d81815481106118ed57fe5b9060005260206000209060060201600091509050806000018054600181600116156101000203166002900480601f0160208091040260200160405190810160405280929190818152602001828054600181600116156101000203166002900480156119995780601f1061196e57610100808354040283529160200191611999565b820191906000526020600020905b81548152906001019060200180831161197c57829003601f168201915b5050505050908060010154908060020154908060030154908060040160009054906101000a900473ffffffffffffffffffffffffffffffffffffffff16908060050154905086565b60606119ec82611f3f565b611a2b576040517f08c379a0000000000000000000000000000000000000000000000000000000008152600401611a2290613fab565b60405180910390fd5b600b60008381526020019081526020016000208054600181600116156101000203166002900480601f016020809104026020016040519081016040528092919081815260200182805460018160011615610100020316600290048015611ad25780601f10611aa757610100808354040283529160200191611ad2565b820191906000526020600020905b815481529060010190602001808311611ab557829003601f168201915b50505050509050919050565b600d8281548110611aeb57fe5b906000526020600020906006020160040160009054906101000a900473ffffffffffffffffffffffffffffffffffffffff16600d8481548110611b2a57fe5b906000526020600020906006020160040160009054906101000a900473ffffffffffffffffffffffffffffffffffffffff161673ffffffffffffffffffffffffffffffffffffffff163373ffffffffffffffffffffffffffffffffffffffff1614611b9457600080fd5b6005600d8381548110611ba357fe5b906000526020600020906006020160010154600d8581548110611bc257fe5b906000526020600020906006020160010154011015611be057600080fd5b600f600082604051602001611bf59190613c0e565b60405160208183030381529060405280519060200120815260200190815260200160002060009054906101000a900460ff1615611c3157600080fd5b6000600d8381548110611c4057fe5b906000526020600020906006020160020154600d8581548110611c5f57fe5b90600052602060002090600602016002015411611c9f57600a600d8581548110611c8557fe5b906000526020600020906006020160020154019050611cc4565b600a600d8481548110611cae57fe5b9060005260206000209060060201600201540190505b6000600d8481548110611cd357fe5b906000526020600020906006020160030154600d8681548110611cf257fe5b90600052602060002090600602016003015411611d3257600a600d8681548110611d1857fe5b906000526020600020906006020160030154019050611d57565b600a600d8581548110611d4157fe5b9060005260206000209060060201600301540190505b6000600d8581548110611d6657fe5b906000526020600020906006020160010154600d8781548110611d8557fe5b90600052602060002090600602016001015411611dc5576001600d8781548110611dab57fe5b906000526020600020906006020160010154019050611dea565b6001600d8681548110611dd457fe5b9060005260206000209060060201600101540190505b611df7848285853361165c565b6107084201601360003373ffffffffffffffffffffffffffffffffffffffff1673ffffffffffffffffffffffffffffffffffffffff16815260200190815260200160002081905550601360003373ffffffffffffffffffffffffffffffffffffffff1673ffffffffffffffffffffffffffffffffffffffff16815260200190815260200160002054421015611e8b57600080fd5b505050505050565b6000600460008473ffffffffffffffffffffffffffffffffffffffff1673ffffffffffffffffffffffffffffffffffffffff16815260200190815260200160002060008373ffffffffffffffffffffffffffffffffffffffff1673ffffffffffffffffffffffffffffffffffffffff16815260200190815260200160002060009054906101000a900460ff16905092915050565b60136020528060005260406000206000915090505481565b6000806001600084815260200190815260200160002060009054906101000a900473ffffffffffffffffffffffffffffffffffffffff169050600073ffffffffffffffffffffffffffffffffffffffff168173ffffffffffffffffffffffffffffffffffffffff161415915050919050565b6000611fbc82611f3f565b611ffb576040517f08c379a0000000000000000000000000000000000000000000000000000000008152600401611ff290613e6b565b60405180910390fd5b6000612006836110d2565b90508073ffffffffffffffffffffffffffffffffffffffff168473ffffffffffffffffffffffffffffffffffffffff16148061207557508373ffffffffffffffffffffffffffffffffffffffff1661205d8461080e565b73ffffffffffffffffffffffffffffffffffffffff16145b8061208657506120858185611e93565b5b91505092915050565b61209a838383612375565b6120a483826125a4565b6120ae8282612742565b505050565b6120bd8282612809565b6120c78282612742565b6120d0816129bb565b5050565b600081600001549050919050565b6120f681600c612a0790919063ffffffff16565b8073ffffffffffffffffffffffffffffffffffffffff167f6ae172837ea30b801fbfcdd4108aa1d5bf8ff775444fd70256b44e6bf3dfc3f660405160405180910390a250565b61215081600c612aaf90919063ffffffff16565b8073ffffffffffffffffffffffffffffffffffffffff167fe94479a9f7e1952cc78f2d6baab678adc1b772d936c6583def489e524cb6669260405160405180910390a250565b60008073ffffffffffffffffffffffffffffffffffffffff168273ffffffffffffffffffffffffffffffffffffffff161415612207576040517f08c379a00000000000000000000000000000000000000000000000000000000081526004016121fe90613f6b565b60405180910390fd5b8260000160008373ffffffffffffffffffffffffffffffffffffffff1673ffffffffffffffffffffffffffffffffffffffff16815260200190815260200160002060009054906101000a900460ff16905092915050565b600061227f8473ffffffffffffffffffffffffffffffffffffffff16612b56565b61228c576001905061236d565b60008473ffffffffffffffffffffffffffffffffffffffff1663150b7a02338887876040518563ffffffff1660e01b81526004016122cd9493929190613c40565b602060405180830381600087803b1580156122e757600080fd5b505af11580156122fb573d6000803e3d6000fd5b505050506040513d601f19601f8201168201806040525061231f91908101906130f2565b905063150b7a0260e01b7bffffffffffffffffffffffffffffffffffffffffffffffffffffffff1916817bffffffffffffffffffffffffffffffffffffffffffffffffffffffff1916149150505b949350505050565b8273ffffffffffffffffffffffffffffffffffffffff16612395826110d2565b73ffffffffffffffffffffffffffffffffffffffff16146123eb576040517f08c379a00000000000000000000000000000000000000000000000000000000081526004016123e290613f8b565b60405180910390fd5b600073ffffffffffffffffffffffffffffffffffffffff168273ffffffffffffffffffffffffffffffffffffffff16141561245b576040517f08c379a000000000000000000000000000000000000000000000000000000000815260040161245290613e0b565b60405180910390fd5b61246481612b69565b6124ab600360008573ffffffffffffffffffffffffffffffffffffffff1673ffffffffffffffffffffffffffffffffffffffff168152602001908152602001600020612c27565b6124f2600360008473ffffffffffffffffffffffffffffffffffffffff1673ffffffffffffffffffffffffffffffffffffffff168152602001908152602001600020612c4a565b816001600083815260200190815260200160002060006101000a81548173ffffffffffffffffffffffffffffffffffffffff021916908373ffffffffffffffffffffffffffffffffffffffff160217905550808273ffffffffffffffffffffffffffffffffffffffff168473ffffffffffffffffffffffffffffffffffffffff167fddf252ad1be2c89b69c2b068fc378daa952ba7f163c4a11628f55a4df523b3ef60405160405180910390a4505050565b60006125fc6001600560008673ffffffffffffffffffffffffffffffffffffffff1673ffffffffffffffffffffffffffffffffffffffff16815260200190815260200160002080549050612c6090919063ffffffff16565b90506000600660008481526020019081526020016000205490508181146126e9576000600560008673ffffffffffffffffffffffffffffffffffffffff1673ffffffffffffffffffffffffffffffffffffffff168152602001908152602001600020838154811061266957fe5b9060005260206000200154905080600560008773ffffffffffffffffffffffffffffffffffffffff1673ffffffffffffffffffffffffffffffffffffffff16815260200190815260200160002083815481106126c157fe5b9060005260206000200181905550816006600083815260200190815260200160002081905550505b600560008573ffffffffffffffffffffffffffffffffffffffff1673ffffffffffffffffffffffffffffffffffffffff16815260200190815260200160002080548091906001900361273b9190612d82565b5050505050565b600560008373ffffffffffffffffffffffffffffffffffffffff1673ffffffffffffffffffffffffffffffffffffffff168152602001908152602001600020805490506006600083815260200190815260200160002081905550600560008373ffffffffffffffffffffffffffffffffffffffff1673ffffffffffffffffffffffffffffffffffffffff1681526020019081526020016000208190806001815401808255809150509060018203906000526020600020016000909192909190915055505050565b600073ffffffffffffffffffffffffffffffffffffffff168273ffffffffffffffffffffffffffffffffffffffff161415612879576040517f08c379a000000000000000000000000000000000000000000000000000000000815260040161287090613f2b565b60405180910390fd5b61288281611f3f565b156128c2576040517f08c379a00000000000000000000000000000000000000000000000000000000081526004016128b990613deb565b60405180910390fd5b816001600083815260200190815260200160002060006101000a81548173ffffffffffffffffffffffffffffffffffffffff021916908373ffffffffffffffffffffffffffffffffffffffff16021790555061295b600360008473ffffffffffffffffffffffffffffffffffffffff1673ffffffffffffffffffffffffffffffffffffffff168152602001908152602001600020612c4a565b808273ffffffffffffffffffffffffffffffffffffffff16600073ffffffffffffffffffffffffffffffffffffffff167fddf252ad1be2c89b69c2b068fc378daa952ba7f163c4a11628f55a4df523b3ef60405160405180910390a45050565b6007805490506008600083815260200190815260200160002081905550600781908060018154018082558091505090600182039060005260206000200160009091929091909150555050565b612a118282612196565b15612a51576040517f08c379a0000000000000000000000000000000000000000000000000000000008152600401612a4890613d8b565b60405180910390fd5b60018260000160008373ffffffffffffffffffffffffffffffffffffffff1673ffffffffffffffffffffffffffffffffffffffff16815260200190815260200160002060006101000a81548160ff0219169083151502179055505050565b612ab98282612196565b612af8576040517f08c379a0000000000000000000000000000000000000000000000000000000008152600401612aef90613f0b565b60405180910390fd5b60008260000160008373ffffffffffffffffffffffffffffffffffffffff1673ffffffffffffffffffffffffffffffffffffffff16815260200190815260200160002060006101000a81548160ff0219169083151502179055505050565b600080823b905060008111915050919050565b600073ffffffffffffffffffffffffffffffffffffffff166002600083815260200190815260200160002060009054906101000a900473ffffffffffffffffffffffffffffffffffffffff1673ffffffffffffffffffffffffffffffffffffffff1614612c245760006002600083815260200190815260200160002060006101000a81548173ffffffffffffffffffffffffffffffffffffffff021916908373ffffffffffffffffffffffffffffffffffffffff1602179055505b50565b612c3f60018260000154612c6090919063ffffffff16565b816000018190555050565b6001816000016000828254019250508190555050565b600082821115612ca5576040517f08c379a0000000000000000000000000000000000000000000000000000000008152600401612c9c90613e4b565b60405180910390fd5b600082840390508091505092915050565b6040518060c0016040528060608152602001600081526020016000815260200160008152602001600073ffffffffffffffffffffffffffffffffffffffff168152602001600081525090565b828054600181600116156101000203166002900490600052602060002090601f016020900481019282601f10612d4357805160ff1916838001178555612d71565b82800160010185558215612d71579182015b82811115612d70578251825591602001919060010190612d55565b5b509050612d7e9190612dae565b5090565b815481835581811115612da957818360005260206000209182019101612da89190612dae565b5b505050565b612dd091905b80821115612dcc576000816000905550600101612db4565b5090565b90565b600081359050612de281614253565b92915050565b600081359050612df78161426a565b92915050565b600081359050612e0c81614281565b92915050565b600081359050612e2181614298565b92915050565b600081519050612e3681614298565b92915050565b600082601f830112612e4d57600080fd5b8135612e60612e5b82614095565b614068565b91508082526020830160208301858383011115612e7c57600080fd5b612e87838284614200565b50505092915050565b600082601f830112612ea157600080fd5b8135612eb4612eaf826140c1565b614068565b91508082526020830160208301858383011115612ed057600080fd5b612edb838284614200565b50505092915050565b600081359050612ef3816142af565b92915050565b600060208284031215612f0b57600080fd5b6000612f1984828501612dd3565b91505092915050565b60008060408385031215612f3557600080fd5b6000612f4385828601612dd3565b9250506020612f5485828601612dd3565b9150509250929050565b600080600060608486031215612f7357600080fd5b6000612f8186828701612dd3565b9350506020612f9286828701612dd3565b9250506040612fa386828701612ee4565b9150509250925092565b60008060008060808587031215612fc357600080fd5b6000612fd187828801612dd3565b9450506020612fe287828801612dd3565b9350506040612ff387828801612ee4565b925050606085013567ffffffffffffffff81111561301057600080fd5b61301c87828801612e3c565b91505092959194509250565b6000806040838503121561303b57600080fd5b600061304985828601612dd3565b925050602061305a85828601612de8565b9150509250929050565b6000806040838503121561307757600080fd5b600061308585828601612dd3565b925050602061309685828601612ee4565b9150509250929050565b6000602082840312156130b257600080fd5b60006130c084828501612dfd565b91505092915050565b6000602082840312156130db57600080fd5b60006130e984828501612e12565b91505092915050565b60006020828403121561310457600080fd5b600061311284828501612e27565b91505092915050565b600080600080600060a0868803121561313357600080fd5b600086013567ffffffffffffffff81111561314d57600080fd5b61315988828901612e90565b955050602061316a88828901612ee4565b945050604061317b88828901612ee4565b935050606061318c88828901612ee4565b925050608061319d88828901612dd3565b9150509295509295909350565b6000602082840312156131bc57600080fd5b60006131ca84828501612ee4565b91505092915050565b600080604083850312156131e657600080fd5b60006131f485828601612ee4565b925050602061320585828601612ee4565b9150509250929050565b60008060006060848603121561322457600080fd5b600061323286828701612ee4565b935050602061324386828701612ee4565b925050604084013567ffffffffffffffff81111561326057600080fd5b61326c86828701612e90565b9150509250925092565b61327f816141ca565b82525050565b61328e8161414c565b82525050565b61329d8161414c565b82525050565b6132ac8161415e565b82525050565b60006132bd826140ed565b6132c7818561410e565b93506132d781856020860161420f565b6132e081614242565b840191505092915050565b60006132f682614103565b6133008185614130565b935061331081856020860161420f565b61331981614242565b840191505092915050565b600061332f82614103565b6133398185614141565b935061334981856020860161420f565b80840191505092915050565b6000613360826140f8565b61336a818561411f565b935061337a81856020860161420f565b61338381614242565b840191505092915050565b6000613399826140f8565b6133a38185614130565b93506133b381856020860161420f565b6133bc81614242565b840191505092915050565b60006133d4601f83614130565b91507f526f6c65733a206163636f756e7420616c72656164792068617320726f6c65006000830152602082019050919050565b6000613414602b83614130565b91507f455243373231456e756d657261626c653a206f776e657220696e646578206f7560008301527f74206f6620626f756e64730000000000000000000000000000000000000000006020830152604082019050919050565b600061347a603283614130565b91507f4552433732313a207472616e7366657220746f206e6f6e20455243373231526560008301527f63656976657220696d706c656d656e74657200000000000000000000000000006020830152604082019050919050565b60006134e0601c83614130565b91507f4552433732313a20746f6b656e20616c7265616479206d696e746564000000006000830152602082019050919050565b6000613520602483614130565b91507f4552433732313a207472616e7366657220746f20746865207a65726f2061646460008301527f72657373000000000000000000000000000000000000000000000000000000006020830152604082019050919050565b6000613586601983614130565b91507f4552433732313a20617070726f766520746f2063616c6c6572000000000000006000830152602082019050919050565b60006135c6601e83614130565b91507f536166654d6174683a207375627472616374696f6e206f766572666c6f7700006000830152602082019050919050565b6000613606602c83614130565b91507f4552433732313a206f70657261746f7220717565727920666f72206e6f6e657860008301527f697374656e7420746f6b656e00000000000000000000000000000000000000006020830152604082019050919050565b600061366c603883614130565b91507f4552433732313a20617070726f76652063616c6c6572206973206e6f74206f7760008301527f6e6572206e6f7220617070726f76656420666f7220616c6c00000000000000006020830152604082019050919050565b60006136d2602a83614130565b91507f4552433732313a2062616c616e636520717565727920666f7220746865207a6560008301527f726f2061646472657373000000000000000000000000000000000000000000006020830152604082019050919050565b6000613738602983614130565b91507f4552433732313a206f776e657220717565727920666f72206e6f6e657869737460008301527f656e7420746f6b656e00000000000000000000000000000000000000000000006020830152604082019050919050565b600061379e603083614130565b91507f4d696e746572526f6c653a2063616c6c657220646f6573206e6f74206861766560008301527f20746865204d696e74657220726f6c65000000000000000000000000000000006020830152604082019050919050565b6000613804602183614130565b91507f526f6c65733a206163636f756e7420646f6573206e6f74206861766520726f6c60008301527f65000000000000000000000000000000000000000000000000000000000000006020830152604082019050919050565b600061386a602083614130565b91507f4552433732313a206d696e7420746f20746865207a65726f20616464726573736000830152602082019050919050565b60006138aa602c83614130565b91507f4552433732313a20617070726f76656420717565727920666f72206e6f6e657860008301527f697374656e7420746f6b656e00000000000000000000000000000000000000006020830152604082019050919050565b6000613910602283614130565b91507f526f6c65733a206163636f756e7420697320746865207a65726f20616464726560008301527f73730000000000000000000000000000000000000000000000000000000000006020830152604082019050919050565b6000613976602983614130565b91507f4552433732313a207472616e73666572206f6620746f6b656e2074686174206960008301527f73206e6f74206f776e00000000000000000000000000000000000000000000006020830152604082019050919050565b60006139dc602f83614130565b91507f4552433732314d657461646174613a2055524920717565727920666f72206e6f60008301527f6e6578697374656e7420746f6b656e00000000000000000000000000000000006020830152604082019050919050565b6000613a42602183614130565b91507f4552433732313a20617070726f76616c20746f2063757272656e74206f776e6560008301527f72000000000000000000000000000000000000000000000000000000000000006020830152604082019050919050565b6000613aa8603183614130565b91507f4552433732313a207472616e736665722063616c6c6572206973206e6f74206f60008301527f776e6572206e6f7220617070726f7665640000000000000000000000000000006020830152604082019050919050565b6000613b0e602c83614130565b91507f455243373231456e756d657261626c653a20676c6f62616c20696e646578206f60008301527f7574206f6620626f756e647300000000000000000000000000000000000000006020830152604082019050919050565b600060c0830160008301518482036000860152613b848282613355565b9150506020830151613b996020860182613bf0565b506040830151613bac6040860182613bf0565b506060830151613bbf6060860182613bf0565b506080830151613bd26080860182613285565b5060a0830151613be560a0860182613bf0565b508091505092915050565b613bf9816141c0565b82525050565b613c08816141c0565b82525050565b6000613c1a8284613324565b915081905092915050565b6000602082019050613c3a6000830184613294565b92915050565b6000608082019050613c556000830187613276565b613c626020830186613294565b613c6f6040830185613bff565b8181036060830152613c8181846132b2565b905095945050505050565b6000602082019050613ca160008301846132a3565b92915050565b60006020820190508181036000830152613cc181846132eb565b905092915050565b600060a0820190508181036000830152613ce381886132eb565b9050613cf26020830187613bff565b613cff6040830186613bff565b613d0c6060830185613bff565b613d196080830184613294565b9695505050505050565b600060c0820190508181036000830152613d3d818961338e565b9050613d4c6020830188613bff565b613d596040830187613bff565b613d666060830186613bff565b613d736080830185613294565b613d8060a0830184613bff565b979650505050505050565b60006020820190508181036000830152613da4816133c7565b9050919050565b60006020820190508181036000830152613dc481613407565b9050919050565b60006020820190508181036000830152613de48161346d565b9050919050565b60006020820190508181036000830152613e04816134d3565b9050919050565b60006020820190508181036000830152613e2481613513565b9050919050565b60006020820190508181036000830152613e4481613579565b9050919050565b60006020820190508181036000830152613e64816135b9565b9050919050565b60006020820190508181036000830152613e84816135f9565b9050919050565b60006020820190508181036000830152613ea48161365f565b9050919050565b60006020820190508181036000830152613ec4816136c5565b9050919050565b60006020820190508181036000830152613ee48161372b565b9050919050565b60006020820190508181036000830152613f0481613791565b9050919050565b60006020820190508181036000830152613f24816137f7565b9050919050565b60006020820190508181036000830152613f448161385d565b9050919050565b60006020820190508181036000830152613f648161389d565b9050919050565b60006020820190508181036000830152613f8481613903565b9050919050565b60006020820190508181036000830152613fa481613969565b9050919050565b60006020820190508181036000830152613fc4816139cf565b9050919050565b60006020820190508181036000830152613fe481613a35565b9050919050565b6000602082019050818103600083015261400481613a9b565b9050919050565b6000602082019050818103600083015261402481613b01565b9050919050565b600060208201905081810360008301526140458184613b67565b905092915050565b60006020820190506140626000830184613bff565b92915050565b6000604051905081810181811067ffffffffffffffff8211171561408b57600080fd5b8060405250919050565b600067ffffffffffffffff8211156140ac57600080fd5b601f19601f8301169050602081019050919050565b600067ffffffffffffffff8211156140d857600080fd5b601f19601f8301169050602081019050919050565b600081519050919050565b600081519050919050565b600081519050919050565b600082825260208201905092915050565b600082825260208201905092915050565b600082825260208201905092915050565b600081905092915050565b6000614157826141a0565b9050919050565b60008115159050919050565b6000819050919050565b60007fffffffff0000000000000000000000000000000000000000000000000000000082169050919050565b600073ffffffffffffffffffffffffffffffffffffffff82169050919050565b6000819050919050565b60006141d5826141dc565b9050919050565b60006141e7826141ee565b9050919050565b60006141f9826141a0565b9050919050565b82818337600083830152505050565b60005b8381101561422d578082015181840152602081019050614212565b8381111561423c576000848401525b50505050565b6000601f19601f8301169050919050565b61425c8161414c565b811461426757600080fd5b50565b6142738161415e565b811461427e57600080fd5b50565b61428a8161416a565b811461429557600080fd5b50565b6142a181614174565b81146142ac57600080fd5b50565b6142b8816141c0565b81146142c357600080fd5b5056fea265627a7a72305820d3634fd81ba0a5d93d08963040b28980539c265b01ca8163d1cff77c31e7fe106c6578706572696d656e74616cf50037",
  "source": "pragma solidity ^0.5.0;\r\n// Enable the ABI v2 Coder\r\npragma experimental ABIEncoderV2;\r\n\r\nimport 'openzeppelin-solidity/contracts/token/ERC721/ERC721Full.sol';\r\nimport 'openzeppelin-solidity/contracts/token/ERC721/ERC721Mintable.sol';\r\n\r\ncontract CryptoMonsters is ERC721Full, ERC721Mintable {\r\n    \r\n    event MonsterCreated(uint256 _MonsterID);\r\n\r\n    struct Monster {\r\n        string name;\r\n        uint256 level;\r\n        uint256 attackPower;\r\n        uint256 defensePower;\r\n        address monsterOwner;\r\n        uint256 id;\r\n    }\r\n\r\n    Monster[] public monsters; \r\n    address public owner;\r\n    mapping(bytes32 => bool) public usedNames;\r\n\r\n    //Counter\r\n    mapping (address => uint256) public win;\r\n    mapping (address => uint256) public draw;\r\n    mapping (address => uint256) public lost;\r\n\r\n    //Cool down counter\r\n    mapping (address => uint256) public coolTime;\r\n\r\n    constructor(string memory _name , string memory _symbol) public ERC721Full(_name, _symbol) {\r\n        //Only the owner can create crypto monster\r\n        owner = msg.sender;\r\n    }\r\n\r\n    function getMonstersLength() public view returns (uint256) {\r\n        return monsters.length;\r\n    }\r\n    /**\r\n   * @dev Guarantees msg.sender is owner of the given token\r\n   * @param _tokenId uint256 ID of the token to validate its ownership belongs to msg.sender\r\n   */\r\n    modifier onlyOwnerOf(uint256 _tokenId) {\r\n        require(ownerOf(_tokenId) == msg.sender);\r\n        _;\r\n    }\r\n\r\n    function createMonster(string memory _name, uint256 _level, uint256 _attackPower,uint256 _defensePower, address _to) public {\r\n        require(owner == msg.sender);\r\n\r\n        //Monster stats requirements\r\n        require(_level >= 1);\r\n        require(_attackPower >= 1);\r\n        require(_defensePower >= 1);\r\n\r\n        uint256 id =  monsters.length;\r\n\r\n        monsters.push(Monster(_name, _level, _attackPower, _defensePower, _to,id));\r\n        //Mark off monster name\r\n        usedNames[keccak256(abi.encodePacked(_name))] = true;\r\n        _mint(_to, id);\r\n        emit MonsterCreated(id);\r\n    }\r\n\r\n    function battle(uint256 _monsterId, uint256 _targetId) onlyOwnerOf(_monsterId) public {\r\n        Monster storage monster1 = monsters[_monsterId];\r\n        Monster storage monster2 = monsters[_targetId];\r\n        \r\n        //Win Case\r\n        if(monster1.attackPower > monster2.defensePower) {\r\n            monster1.level += 1;\r\n            monster1.attackPower += 10;\r\n            monster1.defensePower += 10;\r\n            win[ownerOf(_monsterId)]++;\r\n            lost[ownerOf(_targetId)]++;\r\n        }\r\n        //Draw Case\r\n        else if(monster1.attackPower == monster2.defensePower) {\r\n        \r\n            monster2.defensePower += 10;\r\n            draw[ownerOf(_monsterId)]++;\r\n            draw[ownerOf(_targetId)]++;\r\n\r\n        }\r\n        //Lost Case\r\n        else {\r\n            monster2.level += 1;\r\n            monster2.attackPower += 10;\r\n            lost[ownerOf(_monsterId)]++;\r\n            win[ownerOf(_targetId)]++;\r\n        }\r\n    }\r\n    function fusion(uint256 _monsterId1, uint256 _monsterId2, string memory _fusionMonsterName ) public {\r\n        //Anymore that owns the monstercan fuse the monster\r\n        require(uint160(msg.sender) == uint160(monsters[_monsterId1].monsterOwner) & uint160(monsters[_monsterId2].monsterOwner));\r\n        //Require both monsters to have a combine level of 5 or above\r\n        require(monsters[_monsterId1].level + monsters[_monsterId2].level >= 5);\r\n        //Checking to see if the monster name already exist or not\r\n        require(!usedNames[keccak256(abi.encodePacked(_fusionMonsterName))]);\r\n\r\n        //Calculating fusion Monster stats\r\n        uint256 _fusionMonsterAttackPower;\r\n        if ( monsters[_monsterId1].attackPower <= monsters[_monsterId2].attackPower ) {\r\n            _fusionMonsterAttackPower = monsters[_monsterId1].attackPower + 10;\r\n        }\r\n        else {\r\n            _fusionMonsterAttackPower = monsters[_monsterId2].attackPower + 10;\r\n        }\r\n\r\n        uint256 _fusionMonsterDefensePower;\r\n        if ( monsters[_monsterId1].defensePower <= monsters[_monsterId2].defensePower ) {\r\n            _fusionMonsterDefensePower = monsters[_monsterId1].defensePower + 10;\r\n        }\r\n        else {\r\n            _fusionMonsterDefensePower = monsters[_monsterId2].defensePower + 10;\r\n        }\r\n\r\n        uint256 _fusionMonsterLevel;\r\n        if ( monsters[_monsterId1].level <= monsters[_monsterId2].level ) {\r\n            _fusionMonsterLevel = monsters[_monsterId1].level + 1;\r\n        }\r\n        else {\r\n            _fusionMonsterLevel = monsters[_monsterId2].level + 1;\r\n        }\r\n\r\n        createMonster(_fusionMonsterName, _fusionMonsterLevel, _fusionMonsterAttackPower, _fusionMonsterDefensePower, msg.sender);\r\n        \r\n        //30 mins before the user can fuse again\r\n        coolTime[msg.sender] = block.timestamp + 1800;\r\n        require(block.timestamp >= coolTime[msg.sender]);\r\n    }\r\n    function getStats(uint256 _id) external view\r\n        returns (\r\n            string memory name,\r\n            uint256 level,\r\n            uint256 attackPower,\r\n            uint256 defensePower,\r\n            address monsterOwner\r\n        )\r\n        {\r\n        Monster storage stats = monsters[_id];\r\n\r\n        // if this variable is 0 then it's not gestating\r\n        name = string(stats.name);\r\n        level = uint256(stats.level);\r\n        attackPower = uint256(stats.attackPower);\r\n        defensePower = uint256(stats.defensePower);\r\n        monsterOwner = address(stats.monsterOwner);\r\n    }\r\n    function getStatsExperimental(uint256 _id) public view returns (Monster memory){\r\n        return monsters[_id];\r\n\r\n    }\r\n}\r\n",
  "sourcePath": "C:/Users/hetzer/Documents/GitHub/CryptoMonsters/contracts/CryptoMonsters.sol",
  "compiler": {
    "name": "solc",
    "version": "0.5.8+commit.23d335f2.Emscripten.clang"
  },
  "schemaVersion": "3.0.11",
  "updatedAt": "2019-08-15T06:39:19.865Z",
  "devdoc": {
    "methods": {
      "approve(address,uint256)": {
        "details": "Approves another address to transfer the given token ID The zero address indicates there is no approved address. There can only be one approved address per token at a given time. Can only be called by the token owner or an approved operator.",
        "params": {
          "to": "address to be approved for the given token ID",
          "tokenId": "uint256 ID of the token to be approved"
        }
      },
      "balanceOf(address)": {
        "details": "Gets the balance of the specified address.",
        "params": {
          "owner": "address to query the balance of"
        },
        "return": "uint256 representing the amount owned by the passed address"
      },
      "getApproved(uint256)": {
        "details": "Gets the approved address for a token ID, or zero if no address set Reverts if the token ID does not exist.",
        "params": {
          "tokenId": "uint256 ID of the token to query the approval of"
        },
        "return": "address currently approved for the given token ID"
      },
      "isApprovedForAll(address,address)": {
        "details": "Tells whether an operator is approved by a given owner.",
        "params": {
          "operator": "operator address which you want to query the approval of",
          "owner": "owner address which you want to query the approval of"
        },
        "return": "bool whether the given operator is approved by the given owner"
      },
      "mint(address,uint256)": {
        "details": "Function to mint tokens.",
        "params": {
          "to": "The address that will receive the minted tokens.",
          "tokenId": "The token id to mint."
        },
        "return": "A boolean that indicates if the operation was successful."
      },
      "name()": {
        "details": "Gets the token name.",
        "return": "string representing the token name"
      },
      "ownerOf(uint256)": {
        "details": "Gets the owner of the specified token ID.",
        "params": {
          "tokenId": "uint256 ID of the token to query the owner of"
        },
        "return": "address currently marked as the owner of the given token ID"
      },
      "safeTransferFrom(address,address,uint256)": {
        "details": "Safely transfers the ownership of a given token ID to another address If the target address is a contract, it must implement `onERC721Received`, which is called upon a safe transfer, and return the magic value `bytes4(keccak256(\"onERC721Received(address,address,uint256,bytes)\"))`; otherwise, the transfer is reverted. Requires the msg.sender to be the owner, approved, or operator",
        "params": {
          "from": "current owner of the token",
          "to": "address to receive the ownership of the given token ID",
          "tokenId": "uint256 ID of the token to be transferred"
        }
      },
      "safeTransferFrom(address,address,uint256,bytes)": {
        "details": "Safely transfers the ownership of a given token ID to another address If the target address is a contract, it must implement `onERC721Received`, which is called upon a safe transfer, and return the magic value `bytes4(keccak256(\"onERC721Received(address,address,uint256,bytes)\"))`; otherwise, the transfer is reverted. Requires the msg.sender to be the owner, approved, or operator",
        "params": {
          "_data": "bytes data to send along with a safe transfer check",
          "from": "current owner of the token",
          "to": "address to receive the ownership of the given token ID",
          "tokenId": "uint256 ID of the token to be transferred"
        }
      },
      "setApprovalForAll(address,bool)": {
        "details": "Sets or unsets the approval of a given operator An operator is allowed to transfer all tokens of the sender on their behalf.",
        "params": {
          "approved": "representing the status of the approval to be set",
          "to": "operator address to set the approval"
        }
      },
      "supportsInterface(bytes4)": {
        "details": "See `IERC165.supportsInterface`.     * Time complexity O(1), guaranteed to always use less than 30 000 gas."
      },
      "symbol()": {
        "details": "Gets the token symbol.",
        "return": "string representing the token symbol"
      },
      "tokenByIndex(uint256)": {
        "details": "Gets the token ID at a given index of all the tokens in this contract Reverts if the index is greater or equal to the total number of tokens.",
        "params": {
          "index": "uint256 representing the index to be accessed of the tokens list"
        },
        "return": "uint256 token ID at the given index of the tokens list"
      },
      "tokenOfOwnerByIndex(address,uint256)": {
        "details": "Gets the token ID at a given index of the tokens list of the requested owner.",
        "params": {
          "index": "uint256 representing the index to be accessed of the requested tokens list",
          "owner": "address owning the tokens list to be accessed"
        },
        "return": "uint256 token ID at the given index of the tokens list owned by the requested address"
      },
      "tokenURI(uint256)": {
        "details": "Returns an URI for a given token ID. Throws if the token ID does not exist. May return an empty string.",
        "params": {
          "tokenId": "uint256 ID of the token to query"
        }
      },
      "totalSupply()": {
        "details": "Gets the total amount of tokens stored by the contract.",
        "return": "uint256 representing the total amount of tokens"
      },
      "transferFrom(address,address,uint256)": {
        "details": "Transfers the ownership of a given token ID to another address. Usage of this method is discouraged, use `safeTransferFrom` whenever possible. Requires the msg.sender to be the owner, approved, or operator.",
        "params": {
          "from": "current owner of the token",
          "to": "address to receive the ownership of the given token ID",
          "tokenId": "uint256 ID of the token to be transferred"
        }
      }
    }
  },
  "userdoc": {
    "methods": {}
  }
}