{
  "contractName": "CryptoMonsters",
  "abi": [
    {
      "constant": true,
      "inputs": [
        {
          "name": "interfaceId",
          "type": "bytes4"
        }
      ],
      "name": "supportsInterface",
      "outputs": [
        {
          "name": "",
          "type": "bool"
        }
      ],
      "payable": false,
      "stateMutability": "view",
      "type": "function"
    },
    {
      "constant": true,
      "inputs": [],
      "name": "name",
      "outputs": [
        {
          "name": "",
          "type": "string"
        }
      ],
      "payable": false,
      "stateMutability": "view",
      "type": "function"
    },
    {
      "constant": true,
      "inputs": [
        {
          "name": "tokenId",
          "type": "uint256"
        }
      ],
      "name": "getApproved",
      "outputs": [
        {
          "name": "",
          "type": "address"
        }
      ],
      "payable": false,
      "stateMutability": "view",
      "type": "function"
    },
    {
      "constant": false,
      "inputs": [
        {
          "name": "to",
          "type": "address"
        },
        {
          "name": "tokenId",
          "type": "uint256"
        }
      ],
      "name": "approve",
      "outputs": [],
      "payable": false,
      "stateMutability": "nonpayable",
      "type": "function"
    },
    {
      "constant": true,
      "inputs": [],
      "name": "totalSupply",
      "outputs": [
        {
          "name": "",
          "type": "uint256"
        }
      ],
      "payable": false,
      "stateMutability": "view",
      "type": "function"
    },
    {
      "constant": false,
      "inputs": [
        {
          "name": "from",
          "type": "address"
        },
        {
          "name": "to",
          "type": "address"
        },
        {
          "name": "tokenId",
          "type": "uint256"
        }
      ],
      "name": "transferFrom",
      "outputs": [],
      "payable": false,
      "stateMutability": "nonpayable",
      "type": "function"
    },
    {
      "constant": true,
      "inputs": [
        {
          "name": "owner",
          "type": "address"
        },
        {
          "name": "index",
          "type": "uint256"
        }
      ],
      "name": "tokenOfOwnerByIndex",
      "outputs": [
        {
          "name": "",
          "type": "uint256"
        }
      ],
      "payable": false,
      "stateMutability": "view",
      "type": "function"
    },
    {
      "constant": false,
      "inputs": [
        {
          "name": "to",
          "type": "address"
        },
        {
          "name": "tokenId",
          "type": "uint256"
        }
      ],
      "name": "mint",
      "outputs": [
        {
          "name": "",
          "type": "bool"
        }
      ],
      "payable": false,
      "stateMutability": "nonpayable",
      "type": "function"
    },
    {
      "constant": false,
      "inputs": [
        {
          "name": "from",
          "type": "address"
        },
        {
          "name": "to",
          "type": "address"
        },
        {
          "name": "tokenId",
          "type": "uint256"
        }
      ],
      "name": "safeTransferFrom",
      "outputs": [],
      "payable": false,
      "stateMutability": "nonpayable",
      "type": "function"
    },
    {
      "constant": true,
      "inputs": [
        {
          "name": "",
          "type": "address"
        }
      ],
      "name": "draw",
      "outputs": [
        {
          "name": "",
          "type": "uint256"
        }
      ],
      "payable": false,
      "stateMutability": "view",
      "type": "function"
    },
    {
      "constant": true,
      "inputs": [
        {
          "name": "index",
          "type": "uint256"
        }
      ],
      "name": "tokenByIndex",
      "outputs": [
        {
          "name": "",
          "type": "uint256"
        }
      ],
      "payable": false,
      "stateMutability": "view",
      "type": "function"
    },
    {
      "constant": true,
      "inputs": [
        {
          "name": "tokenId",
          "type": "uint256"
        }
      ],
      "name": "ownerOf",
      "outputs": [
        {
          "name": "",
          "type": "address"
        }
      ],
      "payable": false,
      "stateMutability": "view",
      "type": "function"
    },
    {
      "constant": true,
      "inputs": [
        {
          "name": "",
          "type": "address"
        }
      ],
      "name": "lost",
      "outputs": [
        {
          "name": "",
          "type": "uint256"
        }
      ],
      "payable": false,
      "stateMutability": "view",
      "type": "function"
    },
    {
      "constant": true,
      "inputs": [
        {
          "name": "owner",
          "type": "address"
        }
      ],
      "name": "balanceOf",
      "outputs": [
        {
          "name": "",
          "type": "uint256"
        }
      ],
      "payable": false,
      "stateMutability": "view",
      "type": "function"
    },
    {
      "constant": true,
      "inputs": [
        {
          "name": "",
          "type": "bytes32"
        }
      ],
      "name": "usedNames",
      "outputs": [
        {
          "name": "",
          "type": "bool"
        }
      ],
      "payable": false,
      "stateMutability": "view",
      "type": "function"
    },
    {
      "constant": true,
      "inputs": [],
      "name": "owner",
      "outputs": [
        {
          "name": "",
          "type": "address"
        }
      ],
      "payable": false,
      "stateMutability": "view",
      "type": "function"
    },
    {
      "constant": true,
      "inputs": [],
      "name": "symbol",
      "outputs": [
        {
          "name": "",
          "type": "string"
        }
      ],
      "payable": false,
      "stateMutability": "view",
      "type": "function"
    },
    {
      "constant": false,
      "inputs": [
        {
          "name": "account",
          "type": "address"
        }
      ],
      "name": "addMinter",
      "outputs": [],
      "payable": false,
      "stateMutability": "nonpayable",
      "type": "function"
    },
    {
      "constant": false,
      "inputs": [],
      "name": "renounceMinter",
      "outputs": [],
      "payable": false,
      "stateMutability": "nonpayable",
      "type": "function"
    },
    {
      "constant": false,
      "inputs": [
        {
          "name": "to",
          "type": "address"
        },
        {
          "name": "approved",
          "type": "bool"
        }
      ],
      "name": "setApprovalForAll",
      "outputs": [],
      "payable": false,
      "stateMutability": "nonpayable",
      "type": "function"
    },
    {
      "constant": true,
      "inputs": [
        {
          "name": "",
          "type": "address"
        }
      ],
      "name": "win",
      "outputs": [
        {
          "name": "",
          "type": "uint256"
        }
      ],
      "payable": false,
      "stateMutability": "view",
      "type": "function"
    },
    {
      "constant": true,
      "inputs": [
        {
          "name": "account",
          "type": "address"
        }
      ],
      "name": "isMinter",
      "outputs": [
        {
          "name": "",
          "type": "bool"
        }
      ],
      "payable": false,
      "stateMutability": "view",
      "type": "function"
    },
    {
      "constant": false,
      "inputs": [
        {
          "name": "from",
          "type": "address"
        },
        {
          "name": "to",
          "type": "address"
        },
        {
          "name": "tokenId",
          "type": "uint256"
        },
        {
          "name": "_data",
          "type": "bytes"
        }
      ],
      "name": "safeTransferFrom",
      "outputs": [],
      "payable": false,
      "stateMutability": "nonpayable",
      "type": "function"
    },
    {
      "constant": true,
      "inputs": [
        {
          "name": "",
          "type": "uint256"
        }
      ],
      "name": "monsters",
      "outputs": [
        {
          "name": "name",
          "type": "string"
        },
        {
          "name": "level",
          "type": "uint256"
        },
        {
          "name": "attackPower",
          "type": "uint256"
        },
        {
          "name": "defensePower",
          "type": "uint256"
        },
        {
          "name": "monsterOwner",
          "type": "address"
        },
        {
          "name": "id",
          "type": "uint256"
        }
      ],
      "payable": false,
      "stateMutability": "view",
      "type": "function"
    },
    {
      "constant": true,
      "inputs": [
        {
          "name": "tokenId",
          "type": "uint256"
        }
      ],
      "name": "tokenURI",
      "outputs": [
        {
          "name": "",
          "type": "string"
        }
      ],
      "payable": false,
      "stateMutability": "view",
      "type": "function"
    },
    {
      "constant": true,
      "inputs": [
        {
          "name": "owner",
          "type": "address"
        },
        {
          "name": "operator",
          "type": "address"
        }
      ],
      "name": "isApprovedForAll",
      "outputs": [
        {
          "name": "",
          "type": "bool"
        }
      ],
      "payable": false,
      "stateMutability": "view",
      "type": "function"
    },
    {
      "constant": true,
      "inputs": [
        {
          "name": "",
          "type": "address"
        }
      ],
      "name": "coolTime",
      "outputs": [
        {
          "name": "",
          "type": "uint256"
        }
      ],
      "payable": false,
      "stateMutability": "view",
      "type": "function"
    },
    {
      "inputs": [
        {
          "name": "_name",
          "type": "string"
        },
        {
          "name": "_symbol",
          "type": "string"
        }
      ],
      "payable": false,
      "stateMutability": "nonpayable",
      "type": "constructor"
    },
    {
      "anonymous": false,
      "inputs": [
        {
          "indexed": false,
          "name": "_MonsterID",
          "type": "uint256"
        }
      ],
      "name": "MonsterCreated",
      "type": "event"
    },
    {
      "anonymous": false,
      "inputs": [
        {
          "indexed": true,
          "name": "account",
          "type": "address"
        }
      ],
      "name": "MinterAdded",
      "type": "event"
    },
    {
      "anonymous": false,
      "inputs": [
        {
          "indexed": true,
          "name": "account",
          "type": "address"
        }
      ],
      "name": "MinterRemoved",
      "type": "event"
    },
    {
      "anonymous": false,
      "inputs": [
        {
          "indexed": true,
          "name": "from",
          "type": "address"
        },
        {
          "indexed": true,
          "name": "to",
          "type": "address"
        },
        {
          "indexed": true,
          "name": "tokenId",
          "type": "uint256"
        }
      ],
      "name": "Transfer",
      "type": "event"
    },
    {
      "anonymous": false,
      "inputs": [
        {
          "indexed": true,
          "name": "owner",
          "type": "address"
        },
        {
          "indexed": true,
          "name": "approved",
          "type": "address"
        },
        {
          "indexed": true,
          "name": "tokenId",
          "type": "uint256"
        }
      ],
      "name": "Approval",
      "type": "event"
    },
    {
      "anonymous": false,
      "inputs": [
        {
          "indexed": true,
          "name": "owner",
          "type": "address"
        },
        {
          "indexed": true,
          "name": "operator",
          "type": "address"
        },
        {
          "indexed": false,
          "name": "approved",
          "type": "bool"
        }
      ],
      "name": "ApprovalForAll",
      "type": "event"
    },
    {
      "constant": true,
      "inputs": [],
      "name": "getMonstersLength",
      "outputs": [
        {
          "name": "",
          "type": "uint256"
        }
      ],
      "payable": false,
      "stateMutability": "view",
      "type": "function"
    },
    {
      "constant": false,
      "inputs": [
        {
          "name": "_name",
          "type": "string"
        },
        {
          "name": "_level",
          "type": "uint256"
        },
        {
          "name": "_attackPower",
          "type": "uint256"
        },
        {
          "name": "_defensePower",
          "type": "uint256"
        },
        {
          "name": "_to",
          "type": "address"
        }
      ],
      "name": "createMonster",
      "outputs": [],
      "payable": false,
      "stateMutability": "nonpayable",
      "type": "function"
    },
    {
      "constant": false,
      "inputs": [
        {
          "name": "_monsterId",
          "type": "uint256"
        },
        {
          "name": "_targetId",
          "type": "uint256"
        }
      ],
      "name": "battle",
      "outputs": [],
      "payable": false,
      "stateMutability": "nonpayable",
      "type": "function"
    },
    {
      "constant": false,
      "inputs": [
        {
          "name": "_monsterId1",
          "type": "uint256"
        },
        {
          "name": "_monsterId2",
          "type": "uint256"
        },
        {
          "name": "_fusionMonsterName",
          "type": "string"
        }
      ],
      "name": "fusion",
      "outputs": [],
      "payable": false,
      "stateMutability": "nonpayable",
      "type": "function"
    },
    {
      "constant": true,
      "inputs": [
        {
          "name": "_id",
          "type": "uint256"
        }
      ],
      "name": "getStats",
      "outputs": [
        {
          "name": "name",
          "type": "string"
        },
        {
          "name": "level",
          "type": "uint256"
        },
        {
          "name": "attackPower",
          "type": "uint256"
        },
        {
          "name": "defensePower",
          "type": "uint256"
        },
        {
          "name": "monsterOwner",
          "type": "address"
        }
      ],
      "payable": false,
      "stateMutability": "view",
      "type": "function"
    }
  ],
  "bytecode": "0x60806040523480156200001157600080fd5b5060405162004775380380620047758339810180604052620000379190810190620004ed565b81818181620000536301ffc9a760e01b6200012b60201b60201c565b6200006b6380ac58cd60e01b6200012b60201b60201c565b6200008363780e9d6360e01b6200012b60201b60201c565b81600990805190602001906200009b929190620003e2565b5080600a9080519060200190620000b4929190620003e2565b50620000cd635b5e139f60e01b6200012b60201b60201c565b50505050620000e2336200020360201b60201c565b33600e60006101000a81548173ffffffffffffffffffffffffffffffffffffffff021916908373ffffffffffffffffffffffffffffffffffffffff160217905550505062000754565b63ffffffff60e01b817bffffffffffffffffffffffffffffffffffffffffffffffffffffffff1916141562000197576040517f08c379a00000000000000000000000000000000000000000000000000000000081526004016200018e906200066e565b60405180910390fd5b6001600080837bffffffffffffffffffffffffffffffffffffffffffffffffffffffff19167bffffffffffffffffffffffffffffffffffffffffffffffffffffffff1916815260200190815260200160002060006101000a81548160ff02191690831515021790555050565b6200021e81600c6200026460201b620028771790919060201c565b8073ffffffffffffffffffffffffffffffffffffffff167f6ae172837ea30b801fbfcdd4108aa1d5bf8ff775444fd70256b44e6bf3dfc3f660405160405180910390a250565b6200027682826200031760201b60201c565b15620002b9576040517f08c379a0000000000000000000000000000000000000000000000000000000008152600401620002b0906200064c565b60405180910390fd5b60018260000160008373ffffffffffffffffffffffffffffffffffffffff1673ffffffffffffffffffffffffffffffffffffffff16815260200190815260200160002060006101000a81548160ff0219169083151502179055505050565b60008073ffffffffffffffffffffffffffffffffffffffff168273ffffffffffffffffffffffffffffffffffffffff1614156200038b576040517f08c379a0000000000000000000000000000000000000000000000000000000008152600401620003829062000690565b60405180910390fd5b8260000160008373ffffffffffffffffffffffffffffffffffffffff1673ffffffffffffffffffffffffffffffffffffffff16815260200190815260200160002060009054906101000a900460ff16905092915050565b828054600181600116156101000203166002900490600052602060002090601f016020900481019282601f106200042557805160ff191683800117855562000456565b8280016001018555821562000456579182015b828111156200045557825182559160200191906001019062000438565b5b50905062000465919062000469565b5090565b6200048e91905b808211156200048a57600081600090555060010162000470565b5090565b90565b600082601f830112620004a357600080fd5b8151620004ba620004b482620006e0565b620006b2565b91508082526020830160208301858383011115620004d757600080fd5b620004e48382846200071e565b50505092915050565b600080604083850312156200050157600080fd5b600083015167ffffffffffffffff8111156200051c57600080fd5b6200052a8582860162000491565b925050602083015167ffffffffffffffff8111156200054857600080fd5b620005568582860162000491565b9150509250929050565b60006200056f601f836200070d565b91507f526f6c65733a206163636f756e7420616c72656164792068617320726f6c65006000830152602082019050919050565b6000620005b1601c836200070d565b91507f4552433136353a20696e76616c696420696e74657266616365206964000000006000830152602082019050919050565b6000620005f36022836200070d565b91507f526f6c65733a206163636f756e7420697320746865207a65726f20616464726560008301527f73730000000000000000000000000000000000000000000000000000000000006020830152604082019050919050565b60006020820190508181036000830152620006678162000560565b9050919050565b600060208201905081810360008301526200068981620005a2565b9050919050565b60006020820190508181036000830152620006ab81620005e4565b9050919050565b6000604051905081810181811067ffffffffffffffff82111715620006d657600080fd5b8060405250919050565b600067ffffffffffffffff821115620006f857600080fd5b601f19601f8301169050602081019050919050565b600082825260208201905092915050565b60005b838110156200073e57808201518184015260208101905062000721565b838111156200074e576000848401525b50505050565b61401180620007646000396000f3fe608060405234801561001057600080fd5b50600436106101f05760003560e01c80637b3039651161010f578063aa271e1a116100a2578063c87b56dd11610071578063c87b56dd1461061e578063e85d5bab1461064e578063e985e9c51461066a578063f04b846c1461069a576101f0565b8063aa271e1a14610581578063ad153aeb146105b1578063b88d4fde146105cd578063c0576b73146105e9576101f0565b8063983b2d56116100de578063983b2d561461050f578063986502751461052b578063a22cb46514610535578063a34cc84514610551576101f0565b80637b3039651461048157806387f8fce7146104b55780638da5cb5b146104d357806395d89b41146104f1576101f0565b806340c10f19116101875780636352211e116101565780636352211e146103c157806370405a47146103f157806370a0823114610421578063750af3ab14610451576101f0565b806340c10f191461031557806342842e0e1461034557806347a59b74146103615780634f6ccce714610391576101f0565b806318160ddd116101c357806318160ddd1461028f57806323b872dd146102ad5780632a0c5221146102c95780632f745c59146102e5576101f0565b806301ffc9a7146101f557806306fdde0314610225578063081812fc14610243578063095ea7b314610273575b600080fd5b61020f600480360361020a9190810190612eed565b6106ca565b60405161021c91906139d0565b60405180910390f35b61022d610731565b60405161023a91906139eb565b60405180910390f35b61025d60048036036102589190810190612fce565b6107d3565b60405161026a9190613969565b60405180910390f35b61028d60048036036102889190810190612e88565b610858565b005b610297610a05565b6040516102a49190613d6f565b60405180910390f35b6102c760048036036102c29190810190612d82565b610a12565b005b6102e360048036036102de9190810190612ff7565b610a6b565b005b6102ff60048036036102fa9190810190612e88565b610d99565b60405161030c9190613d6f565b60405180910390f35b61032f600480360361032a9190810190612e88565b610e42565b60405161033c91906139d0565b60405180910390f35b61035f600480360361035a9190810190612d82565b610ea0565b005b61037b60048036036103769190810190612d1d565b610ec0565b6040516103889190613d6f565b60405180910390f35b6103ab60048036036103a69190810190612fce565b610ed8565b6040516103b89190613d6f565b60405180910390f35b6103db60048036036103d69190810190612fce565b610f42565b6040516103e89190613969565b60405180910390f35b61040b60048036036104069190810190612d1d565b610ff4565b6040516104189190613d6f565b60405180910390f35b61043b60048036036104369190810190612d1d565b61100c565b6040516104489190613d6f565b60405180910390f35b61046b60048036036104669190810190612ec4565b6110cb565b60405161047891906139d0565b60405180910390f35b61049b60048036036104969190810190612fce565b6110eb565b6040516104ac959493929190613a0d565b60405180910390f35b6104bd6111f7565b6040516104ca9190613d6f565b60405180910390f35b6104db611204565b6040516104e89190613969565b60405180910390f35b6104f961122a565b60405161050691906139eb565b60405180910390f35b61052960048036036105249190810190612d1d565b6112cc565b005b610533611320565b005b61054f600480360361054a9190810190612e4c565b61132b565b005b61056b60048036036105669190810190612d1d565b611497565b6040516105789190613d6f565b60405180910390f35b61059b60048036036105969190810190612d1d565b6114af565b6040516105a891906139d0565b60405180910390f35b6105cb60048036036105c69190810190612f3f565b6114cc565b005b6105e760048036036105e29190810190612dd1565b6116f4565b005b61060360048036036105fe9190810190612fce565b611750565b60405161061596959493929190613a67565b60405180910390f35b61063860048036036106339190810190612fce565b611851565b60405161064591906139eb565b60405180910390f35b61066860048036036106639190810190613033565b61194e565b005b610684600480360361067f9190810190612d46565b611d03565b60405161069191906139d0565b60405180910390f35b6106b460048036036106af9190810190612d1d565b611d97565b6040516106c19190613d6f565b60405180910390f35b6000806000837bffffffffffffffffffffffffffffffffffffffffffffffffffffffff19167bffffffffffffffffffffffffffffffffffffffffffffffffffffffff1916815260200190815260200160002060009054906101000a900460ff169050919050565b606060098054600181600116156101000203166002900480601f0160208091040260200160405190810160405280929190818152602001828054600181600116156101000203166002900480156107c95780601f1061079e576101008083540402835291602001916107c9565b820191906000526020600020905b8154815290600101906020018083116107ac57829003601f168201915b5050505050905090565b60006107de82611daf565b61081d576040517f08c379a000000000000000000000000000000000000000000000000000000000815260040161081490613c8f565b60405180910390fd5b6002600083815260200190815260200160002060009054906101000a900473ffffffffffffffffffffffffffffffffffffffff169050919050565b600061086382610f42565b90508073ffffffffffffffffffffffffffffffffffffffff168373ffffffffffffffffffffffffffffffffffffffff1614156108d4576040517f08c379a00000000000000000000000000000000000000000000000000000000081526004016108cb90613d0f565b60405180910390fd5b8073ffffffffffffffffffffffffffffffffffffffff163373ffffffffffffffffffffffffffffffffffffffff16148061091457506109138133611d03565b5b610953576040517f08c379a000000000000000000000000000000000000000000000000000000000815260040161094a90613bcf565b60405180910390fd5b826002600084815260200190815260200160002060006101000a81548173ffffffffffffffffffffffffffffffffffffffff021916908373ffffffffffffffffffffffffffffffffffffffff160217905550818373ffffffffffffffffffffffffffffffffffffffff168273ffffffffffffffffffffffffffffffffffffffff167f8c5be1e5ebec7d5bd14f71427d1e84f3dd0314c0f7b2291e5b200ac8c7c3b92560405160405180910390a4505050565b6000600780549050905090565b610a1c3382611e21565b610a5b576040517f08c379a0000000000000000000000000000000000000000000000000000000008152600401610a5290613d2f565b60405180910390fd5b610a66838383611eff565b505050565b813373ffffffffffffffffffffffffffffffffffffffff16610a8c82610f42565b73ffffffffffffffffffffffffffffffffffffffff1614610aac57600080fd5b6000600d8481548110610abb57fe5b906000526020600020906006020190506000600d8481548110610ada57fe5b90600052602060002090600602019050806003015482600201541115610be65760018260010160008282540192505081905550600a8260020160008282540192505081905550600a826003016000828254019250508190555060106000610b4087610f42565b73ffffffffffffffffffffffffffffffffffffffff1673ffffffffffffffffffffffffffffffffffffffff1681526020019081526020016000206000815480929190600101919050555060126000610b9786610f42565b73ffffffffffffffffffffffffffffffffffffffff1673ffffffffffffffffffffffffffffffffffffffff16815260200190815260200160002060008154809291906001019190505550610d92565b806003015482600201541415610cbc57600a816003016000828254019250508190555060116000610c1687610f42565b73ffffffffffffffffffffffffffffffffffffffff1673ffffffffffffffffffffffffffffffffffffffff1681526020019081526020016000206000815480929190600101919050555060116000610c6d86610f42565b73ffffffffffffffffffffffffffffffffffffffff1673ffffffffffffffffffffffffffffffffffffffff16815260200190815260200160002060008154809291906001019190505550610d91565b60018160010160008282540192505081905550600a816002016000828254019250508190555060126000610cef87610f42565b73ffffffffffffffffffffffffffffffffffffffff1673ffffffffffffffffffffffffffffffffffffffff1681526020019081526020016000206000815480929190600101919050555060106000610d4686610f42565b73ffffffffffffffffffffffffffffffffffffffff1673ffffffffffffffffffffffffffffffffffffffff168152602001908152602001600020600081548092919060010191905055505b5b5050505050565b6000610da48361100c565b8210610de5576040517f08c379a0000000000000000000000000000000000000000000000000000000008152600401610ddc90613aef565b60405180910390fd5b600560008473ffffffffffffffffffffffffffffffffffffffff1673ffffffffffffffffffffffffffffffffffffffff1681526020019081526020016000208281548110610e2f57fe5b9060005260206000200154905092915050565b6000610e4d336114af565b610e8c576040517f08c379a0000000000000000000000000000000000000000000000000000000008152600401610e8390613c2f565b60405180910390fd5b610e968383611f23565b6001905092915050565b610ebb838383604051806020016040528060008152506116f4565b505050565b60116020528060005260406000206000915090505481565b6000610ee2610a05565b8210610f23576040517f08c379a0000000000000000000000000000000000000000000000000000000008152600401610f1a90613d4f565b60405180910390fd5b60078281548110610f3057fe5b90600052602060002001549050919050565b6000806001600084815260200190815260200160002060009054906101000a900473ffffffffffffffffffffffffffffffffffffffff169050600073ffffffffffffffffffffffffffffffffffffffff168173ffffffffffffffffffffffffffffffffffffffff161415610feb576040517f08c379a0000000000000000000000000000000000000000000000000000000008152600401610fe290613c0f565b60405180910390fd5b80915050919050565b60126020528060005260406000206000915090505481565b60008073ffffffffffffffffffffffffffffffffffffffff168273ffffffffffffffffffffffffffffffffffffffff16141561107d576040517f08c379a000000000000000000000000000000000000000000000000000000000815260040161107490613bef565b60405180910390fd5b6110c4600360008473ffffffffffffffffffffffffffffffffffffffff1673ffffffffffffffffffffffffffffffffffffffff168152602001908152602001600020611f44565b9050919050565b600f6020528060005260406000206000915054906101000a900460ff1681565b60606000806000806000600d878154811061110257fe5b90600052602060002090600602019050806000018054600181600116156101000203166002900480601f0160208091040260200160405190810160405280929190818152602001828054600181600116156101000203166002900480156111aa5780601f1061117f576101008083540402835291602001916111aa565b820191906000526020600020905b81548152906001019060200180831161118d57829003601f168201915b505050505095508060010154945080600201549350806003015492508060040160009054906101000a900473ffffffffffffffffffffffffffffffffffffffff1691505091939590929450565b6000600d80549050905090565b600e60009054906101000a900473ffffffffffffffffffffffffffffffffffffffff1681565b6060600a8054600181600116156101000203166002900480601f0160208091040260200160405190810160405280929190818152602001828054600181600116156101000203166002900480156112c25780601f10611297576101008083540402835291602001916112c2565b820191906000526020600020905b8154815290600101906020018083116112a557829003601f168201915b5050505050905090565b6112d5336114af565b611314576040517f08c379a000000000000000000000000000000000000000000000000000000000815260040161130b90613c2f565b60405180910390fd5b61131d81611f52565b50565b61132933611fac565b565b3373ffffffffffffffffffffffffffffffffffffffff168273ffffffffffffffffffffffffffffffffffffffff16141561139a576040517f08c379a000000000000000000000000000000000000000000000000000000000815260040161139190613b6f565b60405180910390fd5b80600460003373ffffffffffffffffffffffffffffffffffffffff1673ffffffffffffffffffffffffffffffffffffffff16815260200190815260200160002060008473ffffffffffffffffffffffffffffffffffffffff1673ffffffffffffffffffffffffffffffffffffffff16815260200190815260200160002060006101000a81548160ff0219169083151502179055508173ffffffffffffffffffffffffffffffffffffffff163373ffffffffffffffffffffffffffffffffffffffff167f17307eab39ab6107e8899845ad3d59bd9653f200f220920489ca2b5937696c318360405161148b91906139d0565b60405180910390a35050565b60106020528060005260406000206000915090505481565b60006114c582600c61200690919063ffffffff16565b9050919050565b3373ffffffffffffffffffffffffffffffffffffffff16600e60009054906101000a900473ffffffffffffffffffffffffffffffffffffffff1673ffffffffffffffffffffffffffffffffffffffff161461152657600080fd5b600184101561153457600080fd5b600183101561154257600080fd5b600182101561155057600080fd5b6000600d805490509050600d6040518060c001604052808881526020018781526020018681526020018581526020018473ffffffffffffffffffffffffffffffffffffffff168152602001838152509080600181540180825580915050906001820390600052602060002090600602016000909192909190915060008201518160000190805190602001906115e6929190612b26565b5060208201518160010155604082015181600201556060820151816003015560808201518160040160006101000a81548173ffffffffffffffffffffffffffffffffffffffff021916908373ffffffffffffffffffffffffffffffffffffffff16021790555060a082015181600501555050506001600f6000886040516020016116709190613952565b60405160208183030381529060405280519060200120815260200190815260200160002060006101000a81548160ff0219169083151502179055506116b58282611f23565b7f6209fc68beb5a152cbee7a03b1c4bea6dc79b8dcc1a03c0f07eb7d3f8ea84c07816040516116e49190613d6f565b60405180910390a1505050505050565b6116ff848484610a12565b61170b848484846120ce565b61174a576040517f08c379a000000000000000000000000000000000000000000000000000000000815260040161174190613b0f565b60405180910390fd5b50505050565b600d818154811061175d57fe5b9060005260206000209060060201600091509050806000018054600181600116156101000203166002900480601f0160208091040260200160405190810160405280929190818152602001828054600181600116156101000203166002900480156118095780601f106117de57610100808354040283529160200191611809565b820191906000526020600020905b8154815290600101906020018083116117ec57829003601f168201915b5050505050908060010154908060020154908060030154908060040160009054906101000a900473ffffffffffffffffffffffffffffffffffffffff16908060050154905086565b606061185c82611daf565b61189b576040517f08c379a000000000000000000000000000000000000000000000000000000000815260040161189290613cef565b60405180910390fd5b600b60008381526020019081526020016000208054600181600116156101000203166002900480601f0160208091040260200160405190810160405280929190818152602001828054600181600116156101000203166002900480156119425780601f1061191757610100808354040283529160200191611942565b820191906000526020600020905b81548152906001019060200180831161192557829003601f168201915b50505050509050919050565b600d828154811061195b57fe5b906000526020600020906006020160040160009054906101000a900473ffffffffffffffffffffffffffffffffffffffff16600d848154811061199a57fe5b906000526020600020906006020160040160009054906101000a900473ffffffffffffffffffffffffffffffffffffffff161673ffffffffffffffffffffffffffffffffffffffff163373ffffffffffffffffffffffffffffffffffffffff1614611a0457600080fd5b6005600d8381548110611a1357fe5b906000526020600020906006020160010154600d8581548110611a3257fe5b906000526020600020906006020160010154011015611a5057600080fd5b600f600082604051602001611a659190613952565b60405160208183030381529060405280519060200120815260200190815260200160002060009054906101000a900460ff1615611aa157600080fd5b6000600d8381548110611ab057fe5b906000526020600020906006020160020154600d8581548110611acf57fe5b90600052602060002090600602016002015411611b0f57600a600d8581548110611af557fe5b906000526020600020906006020160020154019050611b34565b600a600d8481548110611b1e57fe5b9060005260206000209060060201600201540190505b6000600d8481548110611b4357fe5b906000526020600020906006020160030154600d8681548110611b6257fe5b90600052602060002090600602016003015411611ba257600a600d8681548110611b8857fe5b906000526020600020906006020160030154019050611bc7565b600a600d8581548110611bb157fe5b9060005260206000209060060201600301540190505b6000600d8581548110611bd657fe5b906000526020600020906006020160010154600d8781548110611bf557fe5b90600052602060002090600602016001015411611c35576001600d8781548110611c1b57fe5b906000526020600020906006020160010154019050611c5a565b6001600d8681548110611c4457fe5b9060005260206000209060060201600101540190505b611c6784828585336114cc565b6107084201601360003373ffffffffffffffffffffffffffffffffffffffff1673ffffffffffffffffffffffffffffffffffffffff16815260200190815260200160002081905550601360003373ffffffffffffffffffffffffffffffffffffffff1673ffffffffffffffffffffffffffffffffffffffff16815260200190815260200160002054421015611cfb57600080fd5b505050505050565b6000600460008473ffffffffffffffffffffffffffffffffffffffff1673ffffffffffffffffffffffffffffffffffffffff16815260200190815260200160002060008373ffffffffffffffffffffffffffffffffffffffff1673ffffffffffffffffffffffffffffffffffffffff16815260200190815260200160002060009054906101000a900460ff16905092915050565b60136020528060005260406000206000915090505481565b6000806001600084815260200190815260200160002060009054906101000a900473ffffffffffffffffffffffffffffffffffffffff169050600073ffffffffffffffffffffffffffffffffffffffff168173ffffffffffffffffffffffffffffffffffffffff161415915050919050565b6000611e2c82611daf565b611e6b576040517f08c379a0000000000000000000000000000000000000000000000000000000008152600401611e6290613baf565b60405180910390fd5b6000611e7683610f42565b90508073ffffffffffffffffffffffffffffffffffffffff168473ffffffffffffffffffffffffffffffffffffffff161480611ee557508373ffffffffffffffffffffffffffffffffffffffff16611ecd846107d3565b73ffffffffffffffffffffffffffffffffffffffff16145b80611ef65750611ef58185611d03565b5b91505092915050565b611f0a8383836121e5565b611f148382612414565b611f1e82826125b2565b505050565b611f2d8282612679565b611f3782826125b2565b611f408161282b565b5050565b600081600001549050919050565b611f6681600c61287790919063ffffffff16565b8073ffffffffffffffffffffffffffffffffffffffff167f6ae172837ea30b801fbfcdd4108aa1d5bf8ff775444fd70256b44e6bf3dfc3f660405160405180910390a250565b611fc081600c61291f90919063ffffffff16565b8073ffffffffffffffffffffffffffffffffffffffff167fe94479a9f7e1952cc78f2d6baab678adc1b772d936c6583def489e524cb6669260405160405180910390a250565b60008073ffffffffffffffffffffffffffffffffffffffff168273ffffffffffffffffffffffffffffffffffffffff161415612077576040517f08c379a000000000000000000000000000000000000000000000000000000000815260040161206e90613caf565b60405180910390fd5b8260000160008373ffffffffffffffffffffffffffffffffffffffff1673ffffffffffffffffffffffffffffffffffffffff16815260200190815260200160002060009054906101000a900460ff16905092915050565b60006120ef8473ffffffffffffffffffffffffffffffffffffffff166129c6565b6120fc57600190506121dd565b60008473ffffffffffffffffffffffffffffffffffffffff1663150b7a02338887876040518563ffffffff1660e01b815260040161213d9493929190613984565b602060405180830381600087803b15801561215757600080fd5b505af115801561216b573d6000803e3d6000fd5b505050506040513d601f19601f8201168201806040525061218f9190810190612f16565b905063150b7a0260e01b7bffffffffffffffffffffffffffffffffffffffffffffffffffffffff1916817bffffffffffffffffffffffffffffffffffffffffffffffffffffffff1916149150505b949350505050565b8273ffffffffffffffffffffffffffffffffffffffff1661220582610f42565b73ffffffffffffffffffffffffffffffffffffffff161461225b576040517f08c379a000000000000000000000000000000000000000000000000000000000815260040161225290613ccf565b60405180910390fd5b600073ffffffffffffffffffffffffffffffffffffffff168273ffffffffffffffffffffffffffffffffffffffff1614156122cb576040517f08c379a00000000000000000000000000000000000000000000000000000000081526004016122c290613b4f565b60405180910390fd5b6122d4816129d9565b61231b600360008573ffffffffffffffffffffffffffffffffffffffff1673ffffffffffffffffffffffffffffffffffffffff168152602001908152602001600020612a97565b612362600360008473ffffffffffffffffffffffffffffffffffffffff1673ffffffffffffffffffffffffffffffffffffffff168152602001908152602001600020612aba565b816001600083815260200190815260200160002060006101000a81548173ffffffffffffffffffffffffffffffffffffffff021916908373ffffffffffffffffffffffffffffffffffffffff160217905550808273ffffffffffffffffffffffffffffffffffffffff168473ffffffffffffffffffffffffffffffffffffffff167fddf252ad1be2c89b69c2b068fc378daa952ba7f163c4a11628f55a4df523b3ef60405160405180910390a4505050565b600061246c6001600560008673ffffffffffffffffffffffffffffffffffffffff1673ffffffffffffffffffffffffffffffffffffffff16815260200190815260200160002080549050612ad090919063ffffffff16565b9050600060066000848152602001908152602001600020549050818114612559576000600560008673ffffffffffffffffffffffffffffffffffffffff1673ffffffffffffffffffffffffffffffffffffffff16815260200190815260200160002083815481106124d957fe5b9060005260206000200154905080600560008773ffffffffffffffffffffffffffffffffffffffff1673ffffffffffffffffffffffffffffffffffffffff168152602001908152602001600020838154811061253157fe5b9060005260206000200181905550816006600083815260200190815260200160002081905550505b600560008573ffffffffffffffffffffffffffffffffffffffff1673ffffffffffffffffffffffffffffffffffffffff1681526020019081526020016000208054809190600190036125ab9190612ba6565b5050505050565b600560008373ffffffffffffffffffffffffffffffffffffffff1673ffffffffffffffffffffffffffffffffffffffff168152602001908152602001600020805490506006600083815260200190815260200160002081905550600560008373ffffffffffffffffffffffffffffffffffffffff1673ffffffffffffffffffffffffffffffffffffffff1681526020019081526020016000208190806001815401808255809150509060018203906000526020600020016000909192909190915055505050565b600073ffffffffffffffffffffffffffffffffffffffff168273ffffffffffffffffffffffffffffffffffffffff1614156126e9576040517f08c379a00000000000000000000000000000000000000000000000000000000081526004016126e090613c6f565b60405180910390fd5b6126f281611daf565b15612732576040517f08c379a000000000000000000000000000000000000000000000000000000000815260040161272990613b2f565b60405180910390fd5b816001600083815260200190815260200160002060006101000a81548173ffffffffffffffffffffffffffffffffffffffff021916908373ffffffffffffffffffffffffffffffffffffffff1602179055506127cb600360008473ffffffffffffffffffffffffffffffffffffffff1673ffffffffffffffffffffffffffffffffffffffff168152602001908152602001600020612aba565b808273ffffffffffffffffffffffffffffffffffffffff16600073ffffffffffffffffffffffffffffffffffffffff167fddf252ad1be2c89b69c2b068fc378daa952ba7f163c4a11628f55a4df523b3ef60405160405180910390a45050565b6007805490506008600083815260200190815260200160002081905550600781908060018154018082558091505090600182039060005260206000200160009091929091909150555050565b6128818282612006565b156128c1576040517f08c379a00000000000000000000000000000000000000000000000000000000081526004016128b890613acf565b60405180910390fd5b60018260000160008373ffffffffffffffffffffffffffffffffffffffff1673ffffffffffffffffffffffffffffffffffffffff16815260200190815260200160002060006101000a81548160ff0219169083151502179055505050565b6129298282612006565b612968576040517f08c379a000000000000000000000000000000000000000000000000000000000815260040161295f90613c4f565b60405180910390fd5b60008260000160008373ffffffffffffffffffffffffffffffffffffffff1673ffffffffffffffffffffffffffffffffffffffff16815260200190815260200160002060006101000a81548160ff0219169083151502179055505050565b600080823b905060008111915050919050565b600073ffffffffffffffffffffffffffffffffffffffff166002600083815260200190815260200160002060009054906101000a900473ffffffffffffffffffffffffffffffffffffffff1673ffffffffffffffffffffffffffffffffffffffff1614612a945760006002600083815260200190815260200160002060006101000a81548173ffffffffffffffffffffffffffffffffffffffff021916908373ffffffffffffffffffffffffffffffffffffffff1602179055505b50565b612aaf60018260000154612ad090919063ffffffff16565b816000018190555050565b6001816000016000828254019250508190555050565b600082821115612b15576040517f08c379a0000000000000000000000000000000000000000000000000000000008152600401612b0c90613b8f565b60405180910390fd5b600082840390508091505092915050565b828054600181600116156101000203166002900490600052602060002090601f016020900481019282601f10612b6757805160ff1916838001178555612b95565b82800160010185558215612b95579182015b82811115612b94578251825591602001919060010190612b79565b5b509050612ba29190612bd2565b5090565b815481835581811115612bcd57818360005260206000209182019101612bcc9190612bd2565b5b505050565b612bf491905b80821115612bf0576000816000905550600101612bd8565b5090565b90565b600081359050612c0681613f64565b92915050565b600081359050612c1b81613f7b565b92915050565b600081359050612c3081613f92565b92915050565b600081359050612c4581613fa9565b92915050565b600081519050612c5a81613fa9565b92915050565b600082601f830112612c7157600080fd5b8135612c84612c7f82613db7565b613d8a565b91508082526020830160208301858383011115612ca057600080fd5b612cab838284613f11565b50505092915050565b600082601f830112612cc557600080fd5b8135612cd8612cd382613de3565b613d8a565b91508082526020830160208301858383011115612cf457600080fd5b612cff838284613f11565b50505092915050565b600081359050612d1781613fc0565b92915050565b600060208284031215612d2f57600080fd5b6000612d3d84828501612bf7565b91505092915050565b60008060408385031215612d5957600080fd5b6000612d6785828601612bf7565b9250506020612d7885828601612bf7565b9150509250929050565b600080600060608486031215612d9757600080fd5b6000612da586828701612bf7565b9350506020612db686828701612bf7565b9250506040612dc786828701612d08565b9150509250925092565b60008060008060808587031215612de757600080fd5b6000612df587828801612bf7565b9450506020612e0687828801612bf7565b9350506040612e1787828801612d08565b925050606085013567ffffffffffffffff811115612e3457600080fd5b612e4087828801612c60565b91505092959194509250565b60008060408385031215612e5f57600080fd5b6000612e6d85828601612bf7565b9250506020612e7e85828601612c0c565b9150509250929050565b60008060408385031215612e9b57600080fd5b6000612ea985828601612bf7565b9250506020612eba85828601612d08565b9150509250929050565b600060208284031215612ed657600080fd5b6000612ee484828501612c21565b91505092915050565b600060208284031215612eff57600080fd5b6000612f0d84828501612c36565b91505092915050565b600060208284031215612f2857600080fd5b6000612f3684828501612c4b565b91505092915050565b600080600080600060a08688031215612f5757600080fd5b600086013567ffffffffffffffff811115612f7157600080fd5b612f7d88828901612cb4565b9550506020612f8e88828901612d08565b9450506040612f9f88828901612d08565b9350506060612fb088828901612d08565b9250506080612fc188828901612bf7565b9150509295509295909350565b600060208284031215612fe057600080fd5b6000612fee84828501612d08565b91505092915050565b6000806040838503121561300a57600080fd5b600061301885828601612d08565b925050602061302985828601612d08565b9150509250929050565b60008060006060848603121561304857600080fd5b600061305686828701612d08565b935050602061306786828701612d08565b925050604084013567ffffffffffffffff81111561308457600080fd5b61309086828701612cb4565b9150509250925092565b6130a381613edb565b82525050565b6130b281613e5d565b82525050565b6130c181613e6f565b82525050565b60006130d282613e0f565b6130dc8185613e30565b93506130ec818560208601613f20565b6130f581613f53565b840191505092915050565b600061310b82613e25565b6131158185613e41565b9350613125818560208601613f20565b61312e81613f53565b840191505092915050565b600061314482613e25565b61314e8185613e52565b935061315e818560208601613f20565b80840191505092915050565b600061317582613e1a565b61317f8185613e41565b935061318f818560208601613f20565b61319881613f53565b840191505092915050565b60006131b0601f83613e41565b91507f526f6c65733a206163636f756e7420616c72656164792068617320726f6c65006000830152602082019050919050565b60006131f0602b83613e41565b91507f455243373231456e756d657261626c653a206f776e657220696e646578206f7560008301527f74206f6620626f756e64730000000000000000000000000000000000000000006020830152604082019050919050565b6000613256603283613e41565b91507f4552433732313a207472616e7366657220746f206e6f6e20455243373231526560008301527f63656976657220696d706c656d656e74657200000000000000000000000000006020830152604082019050919050565b60006132bc601c83613e41565b91507f4552433732313a20746f6b656e20616c7265616479206d696e746564000000006000830152602082019050919050565b60006132fc602483613e41565b91507f4552433732313a207472616e7366657220746f20746865207a65726f2061646460008301527f72657373000000000000000000000000000000000000000000000000000000006020830152604082019050919050565b6000613362601983613e41565b91507f4552433732313a20617070726f766520746f2063616c6c6572000000000000006000830152602082019050919050565b60006133a2601e83613e41565b91507f536166654d6174683a207375627472616374696f6e206f766572666c6f7700006000830152602082019050919050565b60006133e2602c83613e41565b91507f4552433732313a206f70657261746f7220717565727920666f72206e6f6e657860008301527f697374656e7420746f6b656e00000000000000000000000000000000000000006020830152604082019050919050565b6000613448603883613e41565b91507f4552433732313a20617070726f76652063616c6c6572206973206e6f74206f7760008301527f6e6572206e6f7220617070726f76656420666f7220616c6c00000000000000006020830152604082019050919050565b60006134ae602a83613e41565b91507f4552433732313a2062616c616e636520717565727920666f7220746865207a6560008301527f726f2061646472657373000000000000000000000000000000000000000000006020830152604082019050919050565b6000613514602983613e41565b91507f4552433732313a206f776e657220717565727920666f72206e6f6e657869737460008301527f656e7420746f6b656e00000000000000000000000000000000000000000000006020830152604082019050919050565b600061357a603083613e41565b91507f4d696e746572526f6c653a2063616c6c657220646f6573206e6f74206861766560008301527f20746865204d696e74657220726f6c65000000000000000000000000000000006020830152604082019050919050565b60006135e0602183613e41565b91507f526f6c65733a206163636f756e7420646f6573206e6f74206861766520726f6c60008301527f65000000000000000000000000000000000000000000000000000000000000006020830152604082019050919050565b6000613646602083613e41565b91507f4552433732313a206d696e7420746f20746865207a65726f20616464726573736000830152602082019050919050565b6000613686602c83613e41565b91507f4552433732313a20617070726f76656420717565727920666f72206e6f6e657860008301527f697374656e7420746f6b656e00000000000000000000000000000000000000006020830152604082019050919050565b60006136ec602283613e41565b91507f526f6c65733a206163636f756e7420697320746865207a65726f20616464726560008301527f73730000000000000000000000000000000000000000000000000000000000006020830152604082019050919050565b6000613752602983613e41565b91507f4552433732313a207472616e73666572206f6620746f6b656e2074686174206960008301527f73206e6f74206f776e00000000000000000000000000000000000000000000006020830152604082019050919050565b60006137b8602f83613e41565b91507f4552433732314d657461646174613a2055524920717565727920666f72206e6f60008301527f6e6578697374656e7420746f6b656e00000000000000000000000000000000006020830152604082019050919050565b600061381e602183613e41565b91507f4552433732313a20617070726f76616c20746f2063757272656e74206f776e6560008301527f72000000000000000000000000000000000000000000000000000000000000006020830152604082019050919050565b6000613884603183613e41565b91507f4552433732313a207472616e736665722063616c6c6572206973206e6f74206f60008301527f776e6572206e6f7220617070726f7665640000000000000000000000000000006020830152604082019050919050565b60006138ea602c83613e41565b91507f455243373231456e756d657261626c653a20676c6f62616c20696e646578206f60008301527f7574206f6620626f756e647300000000000000000000000000000000000000006020830152604082019050919050565b61394c81613ed1565b82525050565b600061395e8284613139565b915081905092915050565b600060208201905061397e60008301846130a9565b92915050565b6000608082019050613999600083018761309a565b6139a660208301866130a9565b6139b36040830185613943565b81810360608301526139c581846130c7565b905095945050505050565b60006020820190506139e560008301846130b8565b92915050565b60006020820190508181036000830152613a058184613100565b905092915050565b600060a0820190508181036000830152613a278188613100565b9050613a366020830187613943565b613a436040830186613943565b613a506060830185613943565b613a5d60808301846130a9565b9695505050505050565b600060c0820190508181036000830152613a81818961316a565b9050613a906020830188613943565b613a9d6040830187613943565b613aaa6060830186613943565b613ab760808301856130a9565b613ac460a0830184613943565b979650505050505050565b60006020820190508181036000830152613ae8816131a3565b9050919050565b60006020820190508181036000830152613b08816131e3565b9050919050565b60006020820190508181036000830152613b2881613249565b9050919050565b60006020820190508181036000830152613b48816132af565b9050919050565b60006020820190508181036000830152613b68816132ef565b9050919050565b60006020820190508181036000830152613b8881613355565b9050919050565b60006020820190508181036000830152613ba881613395565b9050919050565b60006020820190508181036000830152613bc8816133d5565b9050919050565b60006020820190508181036000830152613be88161343b565b9050919050565b60006020820190508181036000830152613c08816134a1565b9050919050565b60006020820190508181036000830152613c2881613507565b9050919050565b60006020820190508181036000830152613c488161356d565b9050919050565b60006020820190508181036000830152613c68816135d3565b9050919050565b60006020820190508181036000830152613c8881613639565b9050919050565b60006020820190508181036000830152613ca881613679565b9050919050565b60006020820190508181036000830152613cc8816136df565b9050919050565b60006020820190508181036000830152613ce881613745565b9050919050565b60006020820190508181036000830152613d08816137ab565b9050919050565b60006020820190508181036000830152613d2881613811565b9050919050565b60006020820190508181036000830152613d4881613877565b9050919050565b60006020820190508181036000830152613d68816138dd565b9050919050565b6000602082019050613d846000830184613943565b92915050565b6000604051905081810181811067ffffffffffffffff82111715613dad57600080fd5b8060405250919050565b600067ffffffffffffffff821115613dce57600080fd5b601f19601f8301169050602081019050919050565b600067ffffffffffffffff821115613dfa57600080fd5b601f19601f8301169050602081019050919050565b600081519050919050565b600081519050919050565b600081519050919050565b600082825260208201905092915050565b600082825260208201905092915050565b600081905092915050565b6000613e6882613eb1565b9050919050565b60008115159050919050565b6000819050919050565b60007fffffffff0000000000000000000000000000000000000000000000000000000082169050919050565b600073ffffffffffffffffffffffffffffffffffffffff82169050919050565b6000819050919050565b6000613ee682613eed565b9050919050565b6000613ef882613eff565b9050919050565b6000613f0a82613eb1565b9050919050565b82818337600083830152505050565b60005b83811015613f3e578082015181840152602081019050613f23565b83811115613f4d576000848401525b50505050565b6000601f19601f8301169050919050565b613f6d81613e5d565b8114613f7857600080fd5b50565b613f8481613e6f565b8114613f8f57600080fd5b50565b613f9b81613e7b565b8114613fa657600080fd5b50565b613fb281613e85565b8114613fbd57600080fd5b50565b613fc981613ed1565b8114613fd457600080fd5b5056fea265627a7a72305820e2f7d8ff6fec11755bd5faaadd115dbcb1a1b3fddf1b2d8116e4bc404ae0b3496c6578706572696d656e74616cf50037",
  "source": "pragma solidity ^0.5.0;\r\n// Enable the ABI v2 Coder\r\npragma experimental ABIEncoderV2;\r\n\r\nimport 'openzeppelin-solidity/contracts/token/ERC721/ERC721Full.sol';\r\nimport 'openzeppelin-solidity/contracts/token/ERC721/ERC721Mintable.sol';\r\n\r\ncontract CryptoMonsters is ERC721Full, ERC721Mintable {\r\n    \r\n    event MonsterCreated(uint256 _MonsterID);\r\n\r\n    struct Monster {\r\n        string name;\r\n        uint256 level;\r\n        uint256 attackPower;\r\n        uint256 defensePower;\r\n        address monsterOwner;\r\n        uint256 id;\r\n    }\r\n\r\n    Monster[] public monsters; \r\n    address public owner;\r\n    mapping(bytes32 => bool) public usedNames;\r\n\r\n    //Counter\r\n    mapping (address => uint256) public win;\r\n    mapping (address => uint256) public draw;\r\n    mapping (address => uint256) public lost;\r\n\r\n    //Cool down counter\r\n    mapping (address => uint256) public coolTime;\r\n\r\n    constructor(string memory _name , string memory _symbol) public ERC721Full(_name, _symbol) {\r\n        //Only the owner can create crypto monster\r\n        owner = msg.sender;\r\n    }\r\n\r\n    function getMonstersLength() public view returns (uint256) {\r\n        return monsters.length;\r\n    }\r\n    /**\r\n   * @dev Guarantees msg.sender is owner of the given token\r\n   * @param _tokenId uint256 ID of the token to validate its ownership belongs to msg.sender\r\n   */\r\n    modifier onlyOwnerOf(uint256 _tokenId) {\r\n        require(ownerOf(_tokenId) == msg.sender);\r\n        _;\r\n    }\r\n\r\n    function createMonster(string memory _name, uint256 _level, uint256 _attackPower,uint256 _defensePower, address _to) public {\r\n        require(owner == msg.sender);\r\n\r\n        //Monster stats requirements\r\n        require(_level >= 1);\r\n        require(_attackPower >= 1);\r\n        require(_defensePower >= 1);\r\n\r\n        uint256 id =  monsters.length;\r\n\r\n        monsters.push(Monster(_name, _level, _attackPower, _defensePower, _to,id));\r\n        //Mark off monster name\r\n        usedNames[keccak256(abi.encodePacked(_name))] = true;\r\n        _mint(_to, id);\r\n        emit MonsterCreated(id);\r\n    }\r\n\r\n    function battle(uint256 _monsterId, uint256 _targetId) onlyOwnerOf(_monsterId) public {\r\n        Monster storage monster1 = monsters[_monsterId];\r\n        Monster storage monster2 = monsters[_targetId];\r\n        \r\n        //Win Case\r\n        if(monster1.attackPower > monster2.defensePower) {\r\n            monster1.level += 1;\r\n            monster1.attackPower += 10;\r\n            monster1.defensePower += 10;\r\n            win[ownerOf(_monsterId)]++;\r\n            lost[ownerOf(_targetId)]++;\r\n        }\r\n        //Draw Case\r\n        else if(monster1.attackPower == monster2.defensePower) {\r\n        \r\n            monster2.defensePower += 10;\r\n            draw[ownerOf(_monsterId)]++;\r\n            draw[ownerOf(_targetId)]++;\r\n\r\n        }\r\n        //Lost Case\r\n        else {\r\n            monster2.level += 1;\r\n            monster2.attackPower += 10;\r\n            lost[ownerOf(_monsterId)]++;\r\n            win[ownerOf(_targetId)]++;\r\n        }\r\n    }\r\n    function fusion(uint256 _monsterId1, uint256 _monsterId2, string memory _fusionMonsterName ) public {\r\n        //Anymore that owns the monstercan fuse the monster\r\n        require(uint160(msg.sender) == uint160(monsters[_monsterId1].monsterOwner) & uint160(monsters[_monsterId2].monsterOwner));\r\n        //Require both monsters to have a combine level of 5 or above\r\n        require(monsters[_monsterId1].level + monsters[_monsterId2].level >= 5);\r\n        //Checking to see if the monster name already exist or not\r\n        require(!usedNames[keccak256(abi.encodePacked(_fusionMonsterName))]);\r\n\r\n        //Calculating fusion Monster stats\r\n        uint256 _fusionMonsterAttackPower;\r\n        if ( monsters[_monsterId1].attackPower <= monsters[_monsterId2].attackPower ) {\r\n            _fusionMonsterAttackPower = monsters[_monsterId1].attackPower + 10;\r\n        }\r\n        else {\r\n            _fusionMonsterAttackPower = monsters[_monsterId2].attackPower + 10;\r\n        }\r\n\r\n        uint256 _fusionMonsterDefensePower;\r\n        if ( monsters[_monsterId1].defensePower <= monsters[_monsterId2].defensePower ) {\r\n            _fusionMonsterDefensePower = monsters[_monsterId1].defensePower + 10;\r\n        }\r\n        else {\r\n            _fusionMonsterDefensePower = monsters[_monsterId2].defensePower + 10;\r\n        }\r\n\r\n        uint256 _fusionMonsterLevel;\r\n        if ( monsters[_monsterId1].level <= monsters[_monsterId2].level ) {\r\n            _fusionMonsterLevel = monsters[_monsterId1].level + 1;\r\n        }\r\n        else {\r\n            _fusionMonsterLevel = monsters[_monsterId2].level + 1;\r\n        }\r\n\r\n        createMonster(_fusionMonsterName, _fusionMonsterLevel, _fusionMonsterAttackPower, _fusionMonsterDefensePower, msg.sender);\r\n        \r\n        //30 mins before the user can fuse again\r\n        coolTime[msg.sender] = block.timestamp + 1800;\r\n        require(block.timestamp >= coolTime[msg.sender]);\r\n    }\r\n    function getStats(uint256 _id) external view\r\n        returns (\r\n            string memory name,\r\n            uint256 level,\r\n            uint256 attackPower,\r\n            uint256 defensePower,\r\n            address monsterOwner\r\n        )\r\n        {\r\n        Monster storage stats = monsters[_id];\r\n\r\n        // if this variable is 0 then it's not gestating\r\n        name = string(stats.name);\r\n        level = uint256(stats.level);\r\n        attackPower = uint256(stats.attackPower);\r\n        defensePower = uint256(stats.defensePower);\r\n        monsterOwner = address(stats.monsterOwner);\r\n    }\r\n\r\n}\r\n",
  "sourcePath": "C:/Users/hetzer/Documents/GitHub/CryptoMonsters/contracts/CryptoMonsters.sol",
  "compiler": {
    "name": "solc",
    "version": "0.5.8+commit.23d335f2.Emscripten.clang"
  },
  "schemaVersion": "3.0.11",
  "updatedAt": "2019-08-02T15:22:42.460Z",
  "devdoc": {
    "methods": {
      "approve(address,uint256)": {
        "details": "Approves another address to transfer the given token ID The zero address indicates there is no approved address. There can only be one approved address per token at a given time. Can only be called by the token owner or an approved operator.",
        "params": {
          "to": "address to be approved for the given token ID",
          "tokenId": "uint256 ID of the token to be approved"
        }
      },
      "balanceOf(address)": {
        "details": "Gets the balance of the specified address.",
        "params": {
          "owner": "address to query the balance of"
        },
        "return": "uint256 representing the amount owned by the passed address"
      },
      "getApproved(uint256)": {
        "details": "Gets the approved address for a token ID, or zero if no address set Reverts if the token ID does not exist.",
        "params": {
          "tokenId": "uint256 ID of the token to query the approval of"
        },
        "return": "address currently approved for the given token ID"
      },
      "isApprovedForAll(address,address)": {
        "details": "Tells whether an operator is approved by a given owner.",
        "params": {
          "operator": "operator address which you want to query the approval of",
          "owner": "owner address which you want to query the approval of"
        },
        "return": "bool whether the given operator is approved by the given owner"
      },
      "mint(address,uint256)": {
        "details": "Function to mint tokens.",
        "params": {
          "to": "The address that will receive the minted tokens.",
          "tokenId": "The token id to mint."
        },
        "return": "A boolean that indicates if the operation was successful."
      },
      "name()": {
        "details": "Gets the token name.",
        "return": "string representing the token name"
      },
      "ownerOf(uint256)": {
        "details": "Gets the owner of the specified token ID.",
        "params": {
          "tokenId": "uint256 ID of the token to query the owner of"
        },
        "return": "address currently marked as the owner of the given token ID"
      },
      "safeTransferFrom(address,address,uint256)": {
        "details": "Safely transfers the ownership of a given token ID to another address If the target address is a contract, it must implement `onERC721Received`, which is called upon a safe transfer, and return the magic value `bytes4(keccak256(\"onERC721Received(address,address,uint256,bytes)\"))`; otherwise, the transfer is reverted. Requires the msg.sender to be the owner, approved, or operator",
        "params": {
          "from": "current owner of the token",
          "to": "address to receive the ownership of the given token ID",
          "tokenId": "uint256 ID of the token to be transferred"
        }
      },
      "safeTransferFrom(address,address,uint256,bytes)": {
        "details": "Safely transfers the ownership of a given token ID to another address If the target address is a contract, it must implement `onERC721Received`, which is called upon a safe transfer, and return the magic value `bytes4(keccak256(\"onERC721Received(address,address,uint256,bytes)\"))`; otherwise, the transfer is reverted. Requires the msg.sender to be the owner, approved, or operator",
        "params": {
          "_data": "bytes data to send along with a safe transfer check",
          "from": "current owner of the token",
          "to": "address to receive the ownership of the given token ID",
          "tokenId": "uint256 ID of the token to be transferred"
        }
      },
      "setApprovalForAll(address,bool)": {
        "details": "Sets or unsets the approval of a given operator An operator is allowed to transfer all tokens of the sender on their behalf.",
        "params": {
          "approved": "representing the status of the approval to be set",
          "to": "operator address to set the approval"
        }
      },
      "supportsInterface(bytes4)": {
        "details": "See `IERC165.supportsInterface`.     * Time complexity O(1), guaranteed to always use less than 30 000 gas."
      },
      "symbol()": {
        "details": "Gets the token symbol.",
        "return": "string representing the token symbol"
      },
      "tokenByIndex(uint256)": {
        "details": "Gets the token ID at a given index of all the tokens in this contract Reverts if the index is greater or equal to the total number of tokens.",
        "params": {
          "index": "uint256 representing the index to be accessed of the tokens list"
        },
        "return": "uint256 token ID at the given index of the tokens list"
      },
      "tokenOfOwnerByIndex(address,uint256)": {
        "details": "Gets the token ID at a given index of the tokens list of the requested owner.",
        "params": {
          "index": "uint256 representing the index to be accessed of the requested tokens list",
          "owner": "address owning the tokens list to be accessed"
        },
        "return": "uint256 token ID at the given index of the tokens list owned by the requested address"
      },
      "tokenURI(uint256)": {
        "details": "Returns an URI for a given token ID. Throws if the token ID does not exist. May return an empty string.",
        "params": {
          "tokenId": "uint256 ID of the token to query"
        }
      },
      "totalSupply()": {
        "details": "Gets the total amount of tokens stored by the contract.",
        "return": "uint256 representing the total amount of tokens"
      },
      "transferFrom(address,address,uint256)": {
        "details": "Transfers the ownership of a given token ID to another address. Usage of this method is discouraged, use `safeTransferFrom` whenever possible. Requires the msg.sender to be the owner, approved, or operator.",
        "params": {
          "from": "current owner of the token",
          "to": "address to receive the ownership of the given token ID",
          "tokenId": "uint256 ID of the token to be transferred"
        }
      }
    }
  },
  "userdoc": {
    "methods": {}
  }
}