{
  "contractName": "CryptoMonsters",
  "abi": [
    {
      "constant": true,
      "inputs": [
        {
          "name": "interfaceId",
          "type": "bytes4"
        }
      ],
      "name": "supportsInterface",
      "outputs": [
        {
          "name": "",
          "type": "bool"
        }
      ],
      "payable": false,
      "stateMutability": "view",
      "type": "function"
    },
    {
      "constant": true,
      "inputs": [],
      "name": "name",
      "outputs": [
        {
          "name": "",
          "type": "string"
        }
      ],
      "payable": false,
      "stateMutability": "view",
      "type": "function"
    },
    {
      "constant": true,
      "inputs": [
        {
          "name": "tokenId",
          "type": "uint256"
        }
      ],
      "name": "getApproved",
      "outputs": [
        {
          "name": "",
          "type": "address"
        }
      ],
      "payable": false,
      "stateMutability": "view",
      "type": "function"
    },
    {
      "constant": false,
      "inputs": [
        {
          "name": "to",
          "type": "address"
        },
        {
          "name": "tokenId",
          "type": "uint256"
        }
      ],
      "name": "approve",
      "outputs": [],
      "payable": false,
      "stateMutability": "nonpayable",
      "type": "function"
    },
    {
      "constant": true,
      "inputs": [],
      "name": "totalSupply",
      "outputs": [
        {
          "name": "",
          "type": "uint256"
        }
      ],
      "payable": false,
      "stateMutability": "view",
      "type": "function"
    },
    {
      "constant": false,
      "inputs": [
        {
          "name": "from",
          "type": "address"
        },
        {
          "name": "to",
          "type": "address"
        },
        {
          "name": "tokenId",
          "type": "uint256"
        }
      ],
      "name": "transferFrom",
      "outputs": [],
      "payable": false,
      "stateMutability": "nonpayable",
      "type": "function"
    },
    {
      "constant": true,
      "inputs": [
        {
          "name": "owner",
          "type": "address"
        },
        {
          "name": "index",
          "type": "uint256"
        }
      ],
      "name": "tokenOfOwnerByIndex",
      "outputs": [
        {
          "name": "",
          "type": "uint256"
        }
      ],
      "payable": false,
      "stateMutability": "view",
      "type": "function"
    },
    {
      "constant": false,
      "inputs": [
        {
          "name": "to",
          "type": "address"
        },
        {
          "name": "tokenId",
          "type": "uint256"
        }
      ],
      "name": "mint",
      "outputs": [
        {
          "name": "",
          "type": "bool"
        }
      ],
      "payable": false,
      "stateMutability": "nonpayable",
      "type": "function"
    },
    {
      "constant": false,
      "inputs": [
        {
          "name": "from",
          "type": "address"
        },
        {
          "name": "to",
          "type": "address"
        },
        {
          "name": "tokenId",
          "type": "uint256"
        }
      ],
      "name": "safeTransferFrom",
      "outputs": [],
      "payable": false,
      "stateMutability": "nonpayable",
      "type": "function"
    },
    {
      "constant": true,
      "inputs": [
        {
          "name": "",
          "type": "address"
        }
      ],
      "name": "draw",
      "outputs": [
        {
          "name": "",
          "type": "uint256"
        }
      ],
      "payable": false,
      "stateMutability": "view",
      "type": "function"
    },
    {
      "constant": true,
      "inputs": [
        {
          "name": "index",
          "type": "uint256"
        }
      ],
      "name": "tokenByIndex",
      "outputs": [
        {
          "name": "",
          "type": "uint256"
        }
      ],
      "payable": false,
      "stateMutability": "view",
      "type": "function"
    },
    {
      "constant": true,
      "inputs": [
        {
          "name": "tokenId",
          "type": "uint256"
        }
      ],
      "name": "ownerOf",
      "outputs": [
        {
          "name": "",
          "type": "address"
        }
      ],
      "payable": false,
      "stateMutability": "view",
      "type": "function"
    },
    {
      "constant": true,
      "inputs": [
        {
          "name": "",
          "type": "address"
        }
      ],
      "name": "lost",
      "outputs": [
        {
          "name": "",
          "type": "uint256"
        }
      ],
      "payable": false,
      "stateMutability": "view",
      "type": "function"
    },
    {
      "constant": true,
      "inputs": [
        {
          "name": "owner",
          "type": "address"
        }
      ],
      "name": "balanceOf",
      "outputs": [
        {
          "name": "",
          "type": "uint256"
        }
      ],
      "payable": false,
      "stateMutability": "view",
      "type": "function"
    },
    {
      "constant": true,
      "inputs": [
        {
          "name": "",
          "type": "bytes32"
        }
      ],
      "name": "usedNames",
      "outputs": [
        {
          "name": "",
          "type": "bool"
        }
      ],
      "payable": false,
      "stateMutability": "view",
      "type": "function"
    },
    {
      "constant": true,
      "inputs": [],
      "name": "owner",
      "outputs": [
        {
          "name": "",
          "type": "address"
        }
      ],
      "payable": false,
      "stateMutability": "view",
      "type": "function"
    },
    {
      "constant": true,
      "inputs": [],
      "name": "symbol",
      "outputs": [
        {
          "name": "",
          "type": "string"
        }
      ],
      "payable": false,
      "stateMutability": "view",
      "type": "function"
    },
    {
      "constant": false,
      "inputs": [
        {
          "name": "account",
          "type": "address"
        }
      ],
      "name": "addMinter",
      "outputs": [],
      "payable": false,
      "stateMutability": "nonpayable",
      "type": "function"
    },
    {
      "constant": false,
      "inputs": [],
      "name": "renounceMinter",
      "outputs": [],
      "payable": false,
      "stateMutability": "nonpayable",
      "type": "function"
    },
    {
      "constant": false,
      "inputs": [
        {
          "name": "to",
          "type": "address"
        },
        {
          "name": "approved",
          "type": "bool"
        }
      ],
      "name": "setApprovalForAll",
      "outputs": [],
      "payable": false,
      "stateMutability": "nonpayable",
      "type": "function"
    },
    {
      "constant": true,
      "inputs": [
        {
          "name": "",
          "type": "address"
        }
      ],
      "name": "win",
      "outputs": [
        {
          "name": "",
          "type": "uint256"
        }
      ],
      "payable": false,
      "stateMutability": "view",
      "type": "function"
    },
    {
      "constant": true,
      "inputs": [
        {
          "name": "account",
          "type": "address"
        }
      ],
      "name": "isMinter",
      "outputs": [
        {
          "name": "",
          "type": "bool"
        }
      ],
      "payable": false,
      "stateMutability": "view",
      "type": "function"
    },
    {
      "constant": false,
      "inputs": [
        {
          "name": "from",
          "type": "address"
        },
        {
          "name": "to",
          "type": "address"
        },
        {
          "name": "tokenId",
          "type": "uint256"
        },
        {
          "name": "_data",
          "type": "bytes"
        }
      ],
      "name": "safeTransferFrom",
      "outputs": [],
      "payable": false,
      "stateMutability": "nonpayable",
      "type": "function"
    },
    {
      "constant": true,
      "inputs": [
        {
          "name": "",
          "type": "uint256"
        }
      ],
      "name": "monsters",
      "outputs": [
        {
          "name": "name",
          "type": "string"
        },
        {
          "name": "level",
          "type": "uint256"
        },
        {
          "name": "attackPower",
          "type": "uint256"
        },
        {
          "name": "defensePower",
          "type": "uint256"
        },
        {
          "name": "monsterOwner",
          "type": "address"
        },
        {
          "name": "id",
          "type": "uint256"
        }
      ],
      "payable": false,
      "stateMutability": "view",
      "type": "function"
    },
    {
      "constant": true,
      "inputs": [
        {
          "name": "tokenId",
          "type": "uint256"
        }
      ],
      "name": "tokenURI",
      "outputs": [
        {
          "name": "",
          "type": "string"
        }
      ],
      "payable": false,
      "stateMutability": "view",
      "type": "function"
    },
    {
      "constant": true,
      "inputs": [
        {
          "name": "owner",
          "type": "address"
        },
        {
          "name": "operator",
          "type": "address"
        }
      ],
      "name": "isApprovedForAll",
      "outputs": [
        {
          "name": "",
          "type": "bool"
        }
      ],
      "payable": false,
      "stateMutability": "view",
      "type": "function"
    },
    {
      "constant": true,
      "inputs": [
        {
          "name": "",
          "type": "address"
        }
      ],
      "name": "coolTime",
      "outputs": [
        {
          "name": "",
          "type": "uint256"
        }
      ],
      "payable": false,
      "stateMutability": "view",
      "type": "function"
    },
    {
      "inputs": [
        {
          "name": "_name",
          "type": "string"
        },
        {
          "name": "_symbol",
          "type": "string"
        }
      ],
      "payable": false,
      "stateMutability": "nonpayable",
      "type": "constructor"
    },
    {
      "anonymous": false,
      "inputs": [
        {
          "indexed": true,
          "name": "account",
          "type": "address"
        }
      ],
      "name": "MinterAdded",
      "type": "event"
    },
    {
      "anonymous": false,
      "inputs": [
        {
          "indexed": true,
          "name": "account",
          "type": "address"
        }
      ],
      "name": "MinterRemoved",
      "type": "event"
    },
    {
      "anonymous": false,
      "inputs": [
        {
          "indexed": true,
          "name": "from",
          "type": "address"
        },
        {
          "indexed": true,
          "name": "to",
          "type": "address"
        },
        {
          "indexed": true,
          "name": "tokenId",
          "type": "uint256"
        }
      ],
      "name": "Transfer",
      "type": "event"
    },
    {
      "anonymous": false,
      "inputs": [
        {
          "indexed": true,
          "name": "owner",
          "type": "address"
        },
        {
          "indexed": true,
          "name": "approved",
          "type": "address"
        },
        {
          "indexed": true,
          "name": "tokenId",
          "type": "uint256"
        }
      ],
      "name": "Approval",
      "type": "event"
    },
    {
      "anonymous": false,
      "inputs": [
        {
          "indexed": true,
          "name": "owner",
          "type": "address"
        },
        {
          "indexed": true,
          "name": "operator",
          "type": "address"
        },
        {
          "indexed": false,
          "name": "approved",
          "type": "bool"
        }
      ],
      "name": "ApprovalForAll",
      "type": "event"
    },
    {
      "constant": true,
      "inputs": [],
      "name": "getMonstersLength",
      "outputs": [
        {
          "name": "",
          "type": "uint256"
        }
      ],
      "payable": false,
      "stateMutability": "view",
      "type": "function"
    },
    {
      "constant": false,
      "inputs": [
        {
          "name": "_name",
          "type": "string"
        },
        {
          "name": "_level",
          "type": "uint256"
        },
        {
          "name": "_attackPower",
          "type": "uint256"
        },
        {
          "name": "_defensePower",
          "type": "uint256"
        },
        {
          "name": "_to",
          "type": "address"
        }
      ],
      "name": "createMonster",
      "outputs": [
        {
          "name": "",
          "type": "uint256"
        }
      ],
      "payable": false,
      "stateMutability": "nonpayable",
      "type": "function"
    },
    {
      "constant": false,
      "inputs": [
        {
          "name": "_monsterId",
          "type": "uint256"
        },
        {
          "name": "_targetId",
          "type": "uint256"
        }
      ],
      "name": "battle",
      "outputs": [],
      "payable": false,
      "stateMutability": "nonpayable",
      "type": "function"
    },
    {
      "constant": false,
      "inputs": [
        {
          "name": "_monsterId1",
          "type": "uint256"
        },
        {
          "name": "_monsterId2",
          "type": "uint256"
        },
        {
          "name": "_fusionMonsterName",
          "type": "string"
        }
      ],
      "name": "fusion",
      "outputs": [],
      "payable": false,
      "stateMutability": "nonpayable",
      "type": "function"
    }
  ],
  "bytecode": "0x60806040523480156200001157600080fd5b5060405162003e9938038062003e99833981018060405260408110156200003757600080fd5b8101908080516401000000008111156200005057600080fd5b828101905060208101848111156200006757600080fd5b81518560018202830111640100000000821117156200008557600080fd5b50509291906020018051640100000000811115620000a257600080fd5b82810190506020810184811115620000b957600080fd5b8151856001820283011164010000000082111715620000d757600080fd5b505092919050505081818181620000fb6301ffc9a760e01b620001d360201b60201c565b620001136380ac58cd60e01b620001d360201b60201c565b6200012b63780e9d6360e01b620001d360201b60201c565b81600990805190602001906200014392919062000501565b5080600a90805190602001906200015c92919062000501565b5062000175635b5e139f60e01b620001d360201b60201c565b505050506200018a33620002dc60201b60201c565b33600e60006101000a81548173ffffffffffffffffffffffffffffffffffffffff021916908373ffffffffffffffffffffffffffffffffffffffff1602179055505050620005b0565b63ffffffff60e01b817bffffffffffffffffffffffffffffffffffffffffffffffffffffffff1916141562000270576040517f08c379a000000000000000000000000000000000000000000000000000000000815260040180806020018281038252601c8152602001807f4552433136353a20696e76616c696420696e746572666163652069640000000081525060200191505060405180910390fd5b6001600080837bffffffffffffffffffffffffffffffffffffffffffffffffffffffff19167bffffffffffffffffffffffffffffffffffffffffffffffffffffffff1916815260200190815260200160002060006101000a81548160ff02191690831515021790555050565b620002f781600c6200033d60201b620031e21790919060201c565b8073ffffffffffffffffffffffffffffffffffffffff167f6ae172837ea30b801fbfcdd4108aa1d5bf8ff775444fd70256b44e6bf3dfc3f660405160405180910390a250565b6200034f82826200042160201b60201c565b15620003c3576040517f08c379a000000000000000000000000000000000000000000000000000000000815260040180806020018281038252601f8152602001807f526f6c65733a206163636f756e7420616c72656164792068617320726f6c650081525060200191505060405180910390fd5b60018260000160008373ffffffffffffffffffffffffffffffffffffffff1673ffffffffffffffffffffffffffffffffffffffff16815260200190815260200160002060006101000a81548160ff0219169083151502179055505050565b60008073ffffffffffffffffffffffffffffffffffffffff168273ffffffffffffffffffffffffffffffffffffffff161415620004aa576040517f08c379a000000000000000000000000000000000000000000000000000000000815260040180806020018281038252602281526020018062003e776022913960400191505060405180910390fd5b8260000160008373ffffffffffffffffffffffffffffffffffffffff1673ffffffffffffffffffffffffffffffffffffffff16815260200190815260200160002060009054906101000a900460ff16905092915050565b828054600181600116156101000203166002900490600052602060002090601f016020900481019282601f106200054457805160ff191683800117855562000575565b8280016001018555821562000575579182015b828111156200057457825182559160200191906001019062000557565b5b50905062000584919062000588565b5090565b620005ad91905b80821115620005a95760008160009055506001016200058f565b5090565b90565b6138b780620005c06000396000f3fe608060405234801561001057600080fd5b50600436106101e55760003560e01c8063750af3ab1161010f578063aa271e1a116100a2578063c87b56dd11610071578063c87b56dd14610ccb578063e85d5bab14610d72578063e985e9c514610e41578063f04b846c14610ebd576101e5565b8063aa271e1a14610967578063ad153aeb146109c3578063b88d4fde14610ad0578063c0576b7314610bd5576101e5565b8063983b2d56116100de578063983b2d561461087157806398650275146108b5578063a22cb465146108bf578063a34cc8451461090f576101e5565b8063750af3ab1461074057806387f8fce7146107865780638da5cb5b146107a457806395d89b41146107ee576101e5565b80632f745c59116101875780634f6ccce7116101565780634f6ccce7146105e05780636352211e1461062257806370405a471461069057806370a08231146106e8576101e5565b80632f745c591461045257806340c10f19146104b457806342842e0e1461051a57806347a59b7414610588576101e5565b8063095ea7b3116101c3578063095ea7b31461034057806318160ddd1461038e57806323b872dd146103ac5780632a0c52211461041a576101e5565b806301ffc9a7146101ea57806306fdde031461024f578063081812fc146102d2575b600080fd5b6102356004803603602081101561020057600080fd5b8101908080357bffffffffffffffffffffffffffffffffffffffffffffffffffffffff19169060200190929190505050610f15565b604051808215151515815260200191505060405180910390f35b610257610f7c565b6040518080602001828103825283818151815260200191508051906020019080838360005b8381101561029757808201518184015260208101905061027c565b50505050905090810190601f1680156102c45780820380516001836020036101000a031916815260200191505b509250505060405180910390f35b6102fe600480360360208110156102e857600080fd5b810190808035906020019092919050505061101e565b604051808273ffffffffffffffffffffffffffffffffffffffff1673ffffffffffffffffffffffffffffffffffffffff16815260200191505060405180910390f35b61038c6004803603604081101561035657600080fd5b81019080803573ffffffffffffffffffffffffffffffffffffffff169060200190929190803590602001909291905050506110b9565b005b610396611292565b6040518082815260200191505060405180910390f35b610418600480360360608110156103c257600080fd5b81019080803573ffffffffffffffffffffffffffffffffffffffff169060200190929190803573ffffffffffffffffffffffffffffffffffffffff1690602001909291908035906020019092919050505061129f565b005b6104506004803603604081101561043057600080fd5b81019080803590602001909291908035906020019092919050505061130e565b005b61049e6004803603604081101561046857600080fd5b81019080803573ffffffffffffffffffffffffffffffffffffffff16906020019092919080359060200190929190505050611532565b6040518082815260200191505060405180910390f35b610500600480360360408110156104ca57600080fd5b81019080803573ffffffffffffffffffffffffffffffffffffffff169060200190929190803590602001909291905050506115f1565b604051808215151515815260200191505060405180910390f35b6105866004803603606081101561053057600080fd5b81019080803573ffffffffffffffffffffffffffffffffffffffff169060200190929190803573ffffffffffffffffffffffffffffffffffffffff16906020019092919080359060200190929190505050611665565b005b6105ca6004803603602081101561059e57600080fd5b81019080803573ffffffffffffffffffffffffffffffffffffffff169060200190929190505050611685565b6040518082815260200191505060405180910390f35b61060c600480360360208110156105f657600080fd5b810190808035906020019092919050505061169d565b6040518082815260200191505060405180910390f35b61064e6004803603602081101561063857600080fd5b810190808035906020019092919050505061171d565b604051808273ffffffffffffffffffffffffffffffffffffffff1673ffffffffffffffffffffffffffffffffffffffff16815260200191505060405180910390f35b6106d2600480360360208110156106a657600080fd5b81019080803573ffffffffffffffffffffffffffffffffffffffff1690602001909291905050506117e5565b6040518082815260200191505060405180910390f35b61072a600480360360208110156106fe57600080fd5b81019080803573ffffffffffffffffffffffffffffffffffffffff1690602001909291905050506117fd565b6040518082815260200191505060405180910390f35b61076c6004803603602081101561075657600080fd5b81019080803590602001909291905050506118d2565b604051808215151515815260200191505060405180910390f35b61078e6118f2565b6040518082815260200191505060405180910390f35b6107ac6118ff565b604051808273ffffffffffffffffffffffffffffffffffffffff1673ffffffffffffffffffffffffffffffffffffffff16815260200191505060405180910390f35b6107f6611925565b6040518080602001828103825283818151815260200191508051906020019080838360005b8381101561083657808201518184015260208101905061081b565b50505050905090810190601f1680156108635780820380516001836020036101000a031916815260200191505b509250505060405180910390f35b6108b36004803603602081101561088757600080fd5b81019080803573ffffffffffffffffffffffffffffffffffffffff1690602001909291905050506119c7565b005b6108bd611a31565b005b61090d600480360360408110156108d557600080fd5b81019080803573ffffffffffffffffffffffffffffffffffffffff169060200190929190803515159060200190929190505050611a3c565b005b6109516004803603602081101561092557600080fd5b81019080803573ffffffffffffffffffffffffffffffffffffffff169060200190929190505050611bdf565b6040518082815260200191505060405180910390f35b6109a96004803603602081101561097d57600080fd5b81019080803573ffffffffffffffffffffffffffffffffffffffff169060200190929190505050611bf7565b604051808215151515815260200191505060405180910390f35b610aba600480360360a08110156109d957600080fd5b81019080803590602001906401000000008111156109f657600080fd5b820183602082011115610a0857600080fd5b80359060200191846001830284011164010000000083111715610a2a57600080fd5b91908080601f016020809104026020016040519081016040528093929190818152602001838380828437600081840152601f19601f820116905080830192505050505050509192919290803590602001909291908035906020019092919080359060200190929190803573ffffffffffffffffffffffffffffffffffffffff169060200190929190505050611c14565b6040518082815260200191505060405180910390f35b610bd360048036036080811015610ae657600080fd5b81019080803573ffffffffffffffffffffffffffffffffffffffff169060200190929190803573ffffffffffffffffffffffffffffffffffffffff1690602001909291908035906020019092919080359060200190640100000000811115610b4d57600080fd5b820183602082011115610b5f57600080fd5b80359060200191846001830284011164010000000083111715610b8157600080fd5b91908080601f016020809104026020016040519081016040528093929190818152602001838380828437600081840152601f19601f820116905080830192505050505050509192919290505050611e57565b005b610c0160048036036020811015610beb57600080fd5b8101908080359060200190929190505050611ec9565b60405180806020018781526020018681526020018581526020018473ffffffffffffffffffffffffffffffffffffffff1673ffffffffffffffffffffffffffffffffffffffff168152602001838152602001828103825288818151815260200191508051906020019080838360005b83811015610c8b578082015181840152602081019050610c70565b50505050905090810190601f168015610cb85780820380516001836020036101000a031916815260200191505b5097505050505050505060405180910390f35b610cf760048036036020811015610ce157600080fd5b8101908080359060200190929190505050611fca565b6040518080602001828103825283818151815260200191508051906020019080838360005b83811015610d37578082015181840152602081019050610d1c565b50505050905090810190601f168015610d645780820380516001836020036101000a031916815260200191505b509250505060405180910390f35b610e3f60048036036060811015610d8857600080fd5b81019080803590602001909291908035906020019092919080359060200190640100000000811115610db957600080fd5b820183602082011115610dcb57600080fd5b80359060200191846001830284011164010000000083111715610ded57600080fd5b91908080601f016020809104026020016040519081016040528093929190818152602001838380828437600081840152601f19601f8201169050808301925050505050505091929192905050506120dd565b005b610ea360048036036040811015610e5757600080fd5b81019080803573ffffffffffffffffffffffffffffffffffffffff169060200190929190803573ffffffffffffffffffffffffffffffffffffffff1690602001909291905050506124de565b604051808215151515815260200191505060405180910390f35b610eff60048036036020811015610ed357600080fd5b81019080803573ffffffffffffffffffffffffffffffffffffffff169060200190929190505050612572565b6040518082815260200191505060405180910390f35b6000806000837bffffffffffffffffffffffffffffffffffffffffffffffffffffffff19167bffffffffffffffffffffffffffffffffffffffffffffffffffffffff1916815260200190815260200160002060009054906101000a900460ff169050919050565b606060098054600181600116156101000203166002900480601f0160208091040260200160405190810160405280929190818152602001828054600181600116156101000203166002900480156110145780601f10610fe957610100808354040283529160200191611014565b820191906000526020600020905b815481529060010190602001808311610ff757829003601f168201915b5050505050905090565b60006110298261258a565b61107e576040517f08c379a000000000000000000000000000000000000000000000000000000000815260040180806020018281038252602c815260200180613768602c913960400191505060405180910390fd5b6002600083815260200190815260200160002060009054906101000a900473ffffffffffffffffffffffffffffffffffffffff169050919050565b60006110c48261171d565b90508073ffffffffffffffffffffffffffffffffffffffff168373ffffffffffffffffffffffffffffffffffffffff16141561114b576040517f08c379a000000000000000000000000000000000000000000000000000000000815260040180806020018281038252602181526020018061380e6021913960400191505060405180910390fd5b8073ffffffffffffffffffffffffffffffffffffffff163373ffffffffffffffffffffffffffffffffffffffff16148061118b575061118a81336124de565b5b6111e0576040517f08c379a000000000000000000000000000000000000000000000000000000000815260040180806020018281038252603881526020018061368c6038913960400191505060405180910390fd5b826002600084815260200190815260200160002060006101000a81548173ffffffffffffffffffffffffffffffffffffffff021916908373ffffffffffffffffffffffffffffffffffffffff160217905550818373ffffffffffffffffffffffffffffffffffffffff168273ffffffffffffffffffffffffffffffffffffffff167f8c5be1e5ebec7d5bd14f71427d1e84f3dd0314c0f7b2291e5b200ac8c7c3b92560405160405180910390a4505050565b6000600780549050905090565b6112a933826125fc565b6112fe576040517f08c379a000000000000000000000000000000000000000000000000000000000815260040180806020018281038252603181526020018061382f6031913960400191505060405180910390fd5b6113098383836126f0565b505050565b813373ffffffffffffffffffffffffffffffffffffffff1661132f8261171d565b73ffffffffffffffffffffffffffffffffffffffff161461134f57600080fd5b6000600d848154811061135e57fe5b906000526020600020906006020190506000600d848154811061137d57fe5b9060005260206000209060060201905080600301548260020154111561142e5760018260010160008282540192505081905550600a8260020160008282540192505081905550600a8260030160008282540192505081905550601060006113e38761171d565b73ffffffffffffffffffffffffffffffffffffffff1673ffffffffffffffffffffffffffffffffffffffff168152602001908152602001600020600081548092919060010191905055505b8060030154826002015414156114ad57600a81600301600082825401925050819055506011600061145e8761171d565b73ffffffffffffffffffffffffffffffffffffffff1673ffffffffffffffffffffffffffffffffffffffff1681526020019081526020016000206000815480929190600101919050555061152b565b60018160010160008282540192505081905550600a8160020160008282540192505081905550601260006114e08761171d565b73ffffffffffffffffffffffffffffffffffffffff1673ffffffffffffffffffffffffffffffffffffffff168152602001908152602001600020600081548092919060010191905055505b5050505050565b600061153d836117fd565b8210611594576040517f08c379a000000000000000000000000000000000000000000000000000000000815260040180806020018281038252602b8152602001806135df602b913960400191505060405180910390fd5b600560008473ffffffffffffffffffffffffffffffffffffffff1673ffffffffffffffffffffffffffffffffffffffff16815260200190815260200160002082815481106115de57fe5b9060005260206000200154905092915050565b60006115fc33611bf7565b611651576040517f08c379a00000000000000000000000000000000000000000000000000000000081526004018080602001828103825260308152602001806137176030913960400191505060405180910390fd5b61165b8383612714565b6001905092915050565b61168083838360405180602001604052806000815250611e57565b505050565b60116020528060005260406000206000915090505481565b60006116a7611292565b82106116fe576040517f08c379a000000000000000000000000000000000000000000000000000000000815260040180806020018281038252602c815260200180613860602c913960400191505060405180910390fd5b6007828154811061170b57fe5b90600052602060002001549050919050565b6000806001600084815260200190815260200160002060009054906101000a900473ffffffffffffffffffffffffffffffffffffffff169050600073ffffffffffffffffffffffffffffffffffffffff168173ffffffffffffffffffffffffffffffffffffffff1614156117dc576040517f08c379a00000000000000000000000000000000000000000000000000000000081526004018080602001828103825260298152602001806136ee6029913960400191505060405180910390fd5b80915050919050565b60126020528060005260406000206000915090505481565b60008073ffffffffffffffffffffffffffffffffffffffff168273ffffffffffffffffffffffffffffffffffffffff161415611884576040517f08c379a000000000000000000000000000000000000000000000000000000000815260040180806020018281038252602a8152602001806136c4602a913960400191505060405180910390fd5b6118cb600360008473ffffffffffffffffffffffffffffffffffffffff1673ffffffffffffffffffffffffffffffffffffffff168152602001908152602001600020612735565b9050919050565b600f6020528060005260406000206000915054906101000a900460ff1681565b6000600d80549050905090565b600e60009054906101000a900473ffffffffffffffffffffffffffffffffffffffff1681565b6060600a8054600181600116156101000203166002900480601f0160208091040260200160405190810160405280929190818152602001828054600181600116156101000203166002900480156119bd5780601f10611992576101008083540402835291602001916119bd565b820191906000526020600020905b8154815290600101906020018083116119a057829003601f168201915b5050505050905090565b6119d033611bf7565b611a25576040517f08c379a00000000000000000000000000000000000000000000000000000000081526004018080602001828103825260308152602001806137176030913960400191505060405180910390fd5b611a2e81612743565b50565b611a3a3361279d565b565b3373ffffffffffffffffffffffffffffffffffffffff168273ffffffffffffffffffffffffffffffffffffffff161415611ade576040517f08c379a00000000000000000000000000000000000000000000000000000000081526004018080602001828103825260198152602001807f4552433732313a20617070726f766520746f2063616c6c65720000000000000081525060200191505060405180910390fd5b80600460003373ffffffffffffffffffffffffffffffffffffffff1673ffffffffffffffffffffffffffffffffffffffff16815260200190815260200160002060008473ffffffffffffffffffffffffffffffffffffffff1673ffffffffffffffffffffffffffffffffffffffff16815260200190815260200160002060006101000a81548160ff0219169083151502179055508173ffffffffffffffffffffffffffffffffffffffff163373ffffffffffffffffffffffffffffffffffffffff167f17307eab39ab6107e8899845ad3d59bd9653f200f220920489ca2b5937696c3183604051808215151515815260200191505060405180910390a35050565b60106020528060005260406000206000915090505481565b6000611c0d82600c6127f790919063ffffffff16565b9050919050565b60003373ffffffffffffffffffffffffffffffffffffffff16600e60009054906101000a900473ffffffffffffffffffffffffffffffffffffffff1673ffffffffffffffffffffffffffffffffffffffff1614611c7057600080fd5b6001851015611c7e57600080fd5b6001841015611c8c57600080fd5b6001831015611c9a57600080fd5b6000600d805490509050600d6040518060c001604052808981526020018881526020018781526020018681526020018573ffffffffffffffffffffffffffffffffffffffff16815260200183815250908060018154018082558091505090600182039060005260206000209060060201600090919290919091506000820151816000019080519060200190611d3092919061350d565b5060208201518160010155604082015181600201556060820151816003015560808201518160040160006101000a81548173ffffffffffffffffffffffffffffffffffffffff021916908373ffffffffffffffffffffffffffffffffffffffff16021790555060a082015181600501555050506001600f6000896040516020018082805190602001908083835b60208310611de05780518252602082019150602081019050602083039250611dbd565b6001836020036101000a03801982511681845116808217855250505050505090500191505060405160208183030381529060405280519060200120815260200190815260200160002060006101000a81548160ff021916908315150217905550611e4a8382612714565b8091505095945050505050565b611e6284848461129f565b611e6e848484846128d5565b611ec3576040517f08c379a000000000000000000000000000000000000000000000000000000000815260040180806020018281038252603281526020018061360a6032913960400191505060405180910390fd5b50505050565b600d8181548110611ed657fe5b9060005260206000209060060201600091509050806000018054600181600116156101000203166002900480601f016020809104026020016040519081016040528092919081815260200182805460018160011615610100020316600290048015611f825780601f10611f5757610100808354040283529160200191611f82565b820191906000526020600020905b815481529060010190602001808311611f6557829003601f168201915b5050505050908060010154908060020154908060030154908060040160009054906101000a900473ffffffffffffffffffffffffffffffffffffffff16908060050154905086565b6060611fd58261258a565b61202a576040517f08c379a000000000000000000000000000000000000000000000000000000000815260040180806020018281038252602f8152602001806137df602f913960400191505060405180910390fd5b600b60008381526020019081526020016000208054600181600116156101000203166002900480601f0160208091040260200160405190810160405280929190818152602001828054600181600116156101000203166002900480156120d15780601f106120a6576101008083540402835291602001916120d1565b820191906000526020600020905b8154815290600101906020018083116120b457829003601f168201915b50505050509050919050565b600d82815481106120ea57fe5b906000526020600020906006020160040160009054906101000a900473ffffffffffffffffffffffffffffffffffffffff16600d848154811061212957fe5b906000526020600020906006020160040160009054906101000a900473ffffffffffffffffffffffffffffffffffffffff161673ffffffffffffffffffffffffffffffffffffffff163373ffffffffffffffffffffffffffffffffffffffff161461219357600080fd5b6005600d83815481106121a257fe5b906000526020600020906006020160010154600d85815481106121c157fe5b9060005260206000209060060201600101540110156121df57600080fd5b600f6000826040516020018082805190602001908083835b6020831061221a57805182526020820191506020810190506020830392506121f7565b6001836020036101000a03801982511681845116808217855250505050505090500191505060405160208183030381529060405280519060200120815260200190815260200160002060009054906101000a900460ff161561227b57600080fd5b6000600d838154811061228a57fe5b906000526020600020906006020160020154600d85815481106122a957fe5b906000526020600020906006020160020154116122e957600a600d85815481106122cf57fe5b90600052602060002090600602016002015401905061230e565b600a600d84815481106122f857fe5b9060005260206000209060060201600201540190505b6000600d848154811061231d57fe5b906000526020600020906006020160030154600d868154811061233c57fe5b9060005260206000209060060201600301541161237c57600a600d868154811061236257fe5b9060005260206000209060060201600301540190506123a1565b600a600d858154811061238b57fe5b9060005260206000209060060201600301540190505b6000600d85815481106123b057fe5b906000526020600020906006020160010154600d87815481106123cf57fe5b9060005260206000209060060201600101541161240f576001600d87815481106123f557fe5b906000526020600020906006020160010154019050612434565b6001600d868154811061241e57fe5b9060005260206000209060060201600101540190505b6124418482858533611c14565b506107084201601360003373ffffffffffffffffffffffffffffffffffffffff1673ffffffffffffffffffffffffffffffffffffffff16815260200190815260200160002081905550601360003373ffffffffffffffffffffffffffffffffffffffff1673ffffffffffffffffffffffffffffffffffffffff168152602001908152602001600020544210156124d657600080fd5b505050505050565b6000600460008473ffffffffffffffffffffffffffffffffffffffff1673ffffffffffffffffffffffffffffffffffffffff16815260200190815260200160002060008373ffffffffffffffffffffffffffffffffffffffff1673ffffffffffffffffffffffffffffffffffffffff16815260200190815260200160002060009054906101000a900460ff16905092915050565b60136020528060005260406000206000915090505481565b6000806001600084815260200190815260200160002060009054906101000a900473ffffffffffffffffffffffffffffffffffffffff169050600073ffffffffffffffffffffffffffffffffffffffff168173ffffffffffffffffffffffffffffffffffffffff161415915050919050565b60006126078261258a565b61265c576040517f08c379a000000000000000000000000000000000000000000000000000000000815260040180806020018281038252602c815260200180613660602c913960400191505060405180910390fd5b60006126678361171d565b90508073ffffffffffffffffffffffffffffffffffffffff168473ffffffffffffffffffffffffffffffffffffffff1614806126d657508373ffffffffffffffffffffffffffffffffffffffff166126be8461101e565b73ffffffffffffffffffffffffffffffffffffffff16145b806126e757506126e681856124de565b5b91505092915050565b6126fb838383612abe565b6127058382612d19565b61270f8282612eb7565b505050565b61271e8282612f7e565b6127288282612eb7565b61273181613196565b5050565b600081600001549050919050565b61275781600c6131e290919063ffffffff16565b8073ffffffffffffffffffffffffffffffffffffffff167f6ae172837ea30b801fbfcdd4108aa1d5bf8ff775444fd70256b44e6bf3dfc3f660405160405180910390a250565b6127b181600c6132bd90919063ffffffff16565b8073ffffffffffffffffffffffffffffffffffffffff167fe94479a9f7e1952cc78f2d6baab678adc1b772d936c6583def489e524cb6669260405160405180910390a250565b60008073ffffffffffffffffffffffffffffffffffffffff168273ffffffffffffffffffffffffffffffffffffffff16141561287e576040517f08c379a00000000000000000000000000000000000000000000000000000000081526004018080602001828103825260228152602001806137946022913960400191505060405180910390fd5b8260000160008373ffffffffffffffffffffffffffffffffffffffff1673ffffffffffffffffffffffffffffffffffffffff16815260200190815260200160002060009054906101000a900460ff16905092915050565b60006128f68473ffffffffffffffffffffffffffffffffffffffff1661337a565b6129035760019050612ab6565b60008473ffffffffffffffffffffffffffffffffffffffff1663150b7a02338887876040518563ffffffff1660e01b8152600401808573ffffffffffffffffffffffffffffffffffffffff1673ffffffffffffffffffffffffffffffffffffffff1681526020018473ffffffffffffffffffffffffffffffffffffffff1673ffffffffffffffffffffffffffffffffffffffff16815260200183815260200180602001828103825283818151815260200191508051906020019080838360005b838110156129de5780820151818401526020810190506129c3565b50505050905090810190601f168015612a0b5780820380516001836020036101000a031916815260200191505b5095505050505050602060405180830381600087803b158015612a2d57600080fd5b505af1158015612a41573d6000803e3d6000fd5b505050506040513d6020811015612a5757600080fd5b8101908080519060200190929190505050905063150b7a0260e01b7bffffffffffffffffffffffffffffffffffffffffffffffffffffffff1916817bffffffffffffffffffffffffffffffffffffffffffffffffffffffff1916149150505b949350505050565b8273ffffffffffffffffffffffffffffffffffffffff16612ade8261171d565b73ffffffffffffffffffffffffffffffffffffffff1614612b4a576040517f08c379a00000000000000000000000000000000000000000000000000000000081526004018080602001828103825260298152602001806137b66029913960400191505060405180910390fd5b600073ffffffffffffffffffffffffffffffffffffffff168273ffffffffffffffffffffffffffffffffffffffff161415612bd0576040517f08c379a000000000000000000000000000000000000000000000000000000000815260040180806020018281038252602481526020018061363c6024913960400191505060405180910390fd5b612bd98161338d565b612c20600360008573ffffffffffffffffffffffffffffffffffffffff1673ffffffffffffffffffffffffffffffffffffffff16815260200190815260200160002061344b565b612c67600360008473ffffffffffffffffffffffffffffffffffffffff1673ffffffffffffffffffffffffffffffffffffffff16815260200190815260200160002061346e565b816001600083815260200190815260200160002060006101000a81548173ffffffffffffffffffffffffffffffffffffffff021916908373ffffffffffffffffffffffffffffffffffffffff160217905550808273ffffffffffffffffffffffffffffffffffffffff168473ffffffffffffffffffffffffffffffffffffffff167fddf252ad1be2c89b69c2b068fc378daa952ba7f163c4a11628f55a4df523b3ef60405160405180910390a4505050565b6000612d716001600560008673ffffffffffffffffffffffffffffffffffffffff1673ffffffffffffffffffffffffffffffffffffffff1681526020019081526020016000208054905061348490919063ffffffff16565b9050600060066000848152602001908152602001600020549050818114612e5e576000600560008673ffffffffffffffffffffffffffffffffffffffff1673ffffffffffffffffffffffffffffffffffffffff1681526020019081526020016000208381548110612dde57fe5b9060005260206000200154905080600560008773ffffffffffffffffffffffffffffffffffffffff1673ffffffffffffffffffffffffffffffffffffffff1681526020019081526020016000208381548110612e3657fe5b9060005260206000200181905550816006600083815260200190815260200160002081905550505b600560008573ffffffffffffffffffffffffffffffffffffffff1673ffffffffffffffffffffffffffffffffffffffff168152602001908152602001600020805480919060019003612eb0919061358d565b5050505050565b600560008373ffffffffffffffffffffffffffffffffffffffff1673ffffffffffffffffffffffffffffffffffffffff168152602001908152602001600020805490506006600083815260200190815260200160002081905550600560008373ffffffffffffffffffffffffffffffffffffffff1673ffffffffffffffffffffffffffffffffffffffff1681526020019081526020016000208190806001815401808255809150509060018203906000526020600020016000909192909190915055505050565b600073ffffffffffffffffffffffffffffffffffffffff168273ffffffffffffffffffffffffffffffffffffffff161415613021576040517f08c379a00000000000000000000000000000000000000000000000000000000081526004018080602001828103825260208152602001807f4552433732313a206d696e7420746f20746865207a65726f206164647265737381525060200191505060405180910390fd5b61302a8161258a565b1561309d576040517f08c379a000000000000000000000000000000000000000000000000000000000815260040180806020018281038252601c8152602001807f4552433732313a20746f6b656e20616c7265616479206d696e7465640000000081525060200191505060405180910390fd5b816001600083815260200190815260200160002060006101000a81548173ffffffffffffffffffffffffffffffffffffffff021916908373ffffffffffffffffffffffffffffffffffffffff160217905550613136600360008473ffffffffffffffffffffffffffffffffffffffff1673ffffffffffffffffffffffffffffffffffffffff16815260200190815260200160002061346e565b808273ffffffffffffffffffffffffffffffffffffffff16600073ffffffffffffffffffffffffffffffffffffffff167fddf252ad1be2c89b69c2b068fc378daa952ba7f163c4a11628f55a4df523b3ef60405160405180910390a45050565b6007805490506008600083815260200190815260200160002081905550600781908060018154018082558091505090600182039060005260206000200160009091929091909150555050565b6131ec82826127f7565b1561325f576040517f08c379a000000000000000000000000000000000000000000000000000000000815260040180806020018281038252601f8152602001807f526f6c65733a206163636f756e7420616c72656164792068617320726f6c650081525060200191505060405180910390fd5b60018260000160008373ffffffffffffffffffffffffffffffffffffffff1673ffffffffffffffffffffffffffffffffffffffff16815260200190815260200160002060006101000a81548160ff0219169083151502179055505050565b6132c782826127f7565b61331c576040517f08c379a00000000000000000000000000000000000000000000000000000000081526004018080602001828103825260218152602001806137476021913960400191505060405180910390fd5b60008260000160008373ffffffffffffffffffffffffffffffffffffffff1673ffffffffffffffffffffffffffffffffffffffff16815260200190815260200160002060006101000a81548160ff0219169083151502179055505050565b600080823b905060008111915050919050565b600073ffffffffffffffffffffffffffffffffffffffff166002600083815260200190815260200160002060009054906101000a900473ffffffffffffffffffffffffffffffffffffffff1673ffffffffffffffffffffffffffffffffffffffff16146134485760006002600083815260200190815260200160002060006101000a81548173ffffffffffffffffffffffffffffffffffffffff021916908373ffffffffffffffffffffffffffffffffffffffff1602179055505b50565b6134636001826000015461348490919063ffffffff16565b816000018190555050565b6001816000016000828254019250508190555050565b6000828211156134fc576040517f08c379a000000000000000000000000000000000000000000000000000000000815260040180806020018281038252601e8152602001807f536166654d6174683a207375627472616374696f6e206f766572666c6f77000081525060200191505060405180910390fd5b600082840390508091505092915050565b828054600181600116156101000203166002900490600052602060002090601f016020900481019282601f1061354e57805160ff191683800117855561357c565b8280016001018555821561357c579182015b8281111561357b578251825591602001919060010190613560565b5b50905061358991906135b9565b5090565b8154818355818111156135b4578183600052602060002091820191016135b391906135b9565b5b505050565b6135db91905b808211156135d75760008160009055506001016135bf565b5090565b9056fe455243373231456e756d657261626c653a206f776e657220696e646578206f7574206f6620626f756e64734552433732313a207472616e7366657220746f206e6f6e20455243373231526563656976657220696d706c656d656e7465724552433732313a207472616e7366657220746f20746865207a65726f20616464726573734552433732313a206f70657261746f7220717565727920666f72206e6f6e6578697374656e7420746f6b656e4552433732313a20617070726f76652063616c6c6572206973206e6f74206f776e6572206e6f7220617070726f76656420666f7220616c6c4552433732313a2062616c616e636520717565727920666f7220746865207a65726f20616464726573734552433732313a206f776e657220717565727920666f72206e6f6e6578697374656e7420746f6b656e4d696e746572526f6c653a2063616c6c657220646f6573206e6f74206861766520746865204d696e74657220726f6c65526f6c65733a206163636f756e7420646f6573206e6f74206861766520726f6c654552433732313a20617070726f76656420717565727920666f72206e6f6e6578697374656e7420746f6b656e526f6c65733a206163636f756e7420697320746865207a65726f20616464726573734552433732313a207472616e73666572206f6620746f6b656e2074686174206973206e6f74206f776e4552433732314d657461646174613a2055524920717565727920666f72206e6f6e6578697374656e7420746f6b656e4552433732313a20617070726f76616c20746f2063757272656e74206f776e65724552433732313a207472616e736665722063616c6c6572206973206e6f74206f776e6572206e6f7220617070726f766564455243373231456e756d657261626c653a20676c6f62616c20696e646578206f7574206f6620626f756e6473a165627a7a72305820c82acb0e13e95ac69f8a4823f17399cd59410ffb755cea51c06d153edbbfa5980029526f6c65733a206163636f756e7420697320746865207a65726f2061646472657373",
  "source": "pragma solidity ^0.5.0;\r\n\r\nimport 'openzeppelin-solidity/contracts/token/ERC721/ERC721Full.sol';\r\nimport 'openzeppelin-solidity/contracts/token/ERC721/ERC721Mintable.sol';\r\n\r\ncontract CryptoMonsters is ERC721Full, ERC721Mintable {\r\n\r\n    struct Monster {\r\n        string name;\r\n        uint256 level;\r\n        uint256 attackPower;\r\n        uint256 defensePower;\r\n        address monsterOwner;\r\n        uint256 id;\r\n    }\r\n\r\n    Monster[] public monsters; \r\n    address public owner;\r\n    mapping(bytes32 => bool) public usedNames;\r\n\r\n    //Counter\r\n    mapping (address => uint256) public win;\r\n    mapping (address => uint256) public draw;\r\n    mapping (address => uint256) public lost;\r\n\r\n    //Cool down counter\r\n    mapping (address => uint256) public coolTime;\r\n\r\n    constructor(string memory _name , string memory _symbol) public ERC721Full(_name, _symbol) {\r\n        //Only the owner can create crypto monster\r\n        owner = msg.sender;\r\n    }\r\n\r\n    function getMonstersLength() public view returns (uint256) {\r\n        return monsters.length;\r\n    }\r\n    /**\r\n   * @dev Guarantees msg.sender is owner of the given token\r\n   * @param _tokenId uint256 ID of the token to validate its ownership belongs to msg.sender\r\n   */\r\n    modifier onlyOwnerOf(uint256 _tokenId) {\r\n        require(ownerOf(_tokenId) == msg.sender);\r\n        _;\r\n    }\r\n\r\n    function createMonster(string memory _name, uint256 _level, uint256 _attackPower,uint256 _defensePower, address _to) public returns (uint256) {\r\n        require(owner == msg.sender);\r\n\r\n        //Monster stats requirements\r\n        require(_level >= 1);\r\n        require(_attackPower >= 1);\r\n        require(_defensePower >= 1);\r\n\r\n        uint256 id =  monsters.length;\r\n\r\n        monsters.push(Monster(_name, _level, _attackPower, _defensePower, _to,id));\r\n        //Mark off monster name\r\n        usedNames[keccak256(abi.encodePacked(_name))] = true;\r\n        _mint(_to, id);\r\n        return id;\r\n    }\r\n\r\n    function battle(uint256 _monsterId, uint256 _targetId) onlyOwnerOf(_monsterId) public {\r\n        Monster storage monster1 = monsters[_monsterId];\r\n        Monster storage monster2 = monsters[_targetId];\r\n        \r\n        //Win Case\r\n        if(monster1.attackPower > monster2.defensePower) {\r\n            monster1.level += 1;\r\n            monster1.attackPower += 10;\r\n            monster1.defensePower += 10;\r\n            win[ownerOf(_monsterId)]++;\r\n        }\r\n        //Draw Case\r\n        if(monster1.attackPower == monster2.defensePower) {\r\n            \r\n            monster2.defensePower += 10;\r\n            draw[ownerOf(_monsterId)]++;\r\n\r\n        }\r\n        //Lost Case\r\n        else {\r\n            monster2.level += 1;\r\n            monster2.attackPower += 10;\r\n            lost[ownerOf(_monsterId)]++;\r\n        }\r\n    }\r\n    function fusion(uint256 _monsterId1, uint256 _monsterId2, string memory _fusionMonsterName ) public {\r\n        //Anymore that owns the monstercan fuse the monster\r\n        require(uint160(msg.sender) == uint160(monsters[_monsterId1].monsterOwner) & uint160(monsters[_monsterId2].monsterOwner));\r\n        //Require both monsters to have a combine level of 5 or above\r\n        require(monsters[_monsterId1].level + monsters[_monsterId2].level >= 5);\r\n        //Checking to see if the monster name already exist or not\r\n        require(!usedNames[keccak256(abi.encodePacked(_fusionMonsterName))]);\r\n\r\n        //Calculating fusion Monster stats\r\n        uint256 _fusionMonsterAttackPower;\r\n        if ( monsters[_monsterId1].attackPower <= monsters[_monsterId2].attackPower ) {\r\n            _fusionMonsterAttackPower = monsters[_monsterId1].attackPower + 10;\r\n        }\r\n        else {\r\n            _fusionMonsterAttackPower = monsters[_monsterId2].attackPower + 10;\r\n        }\r\n\r\n        uint256 _fusionMonsterDefensePower;\r\n        if ( monsters[_monsterId1].defensePower <= monsters[_monsterId2].defensePower ) {\r\n            _fusionMonsterDefensePower = monsters[_monsterId1].defensePower + 10;\r\n        }\r\n        else {\r\n            _fusionMonsterDefensePower = monsters[_monsterId2].defensePower + 10;\r\n        }\r\n\r\n        uint256 _fusionMonsterLevel;\r\n        if ( monsters[_monsterId1].level <= monsters[_monsterId2].level ) {\r\n            _fusionMonsterLevel = monsters[_monsterId1].level + 1;\r\n        }\r\n        else {\r\n            _fusionMonsterLevel = monsters[_monsterId2].level + 1;\r\n        }\r\n\r\n        createMonster(_fusionMonsterName, _fusionMonsterLevel, _fusionMonsterAttackPower, _fusionMonsterDefensePower, msg.sender);\r\n        \r\n        //30 mins before the user can fuse again\r\n        coolTime[msg.sender] = block.timestamp + 1800;\r\n        require(block.timestamp >= coolTime[msg.sender]);\r\n    }\r\n}\r\n",
  "sourcePath": "C:/Users/hetzer/Documents/GitHub/CryptoMonsters/contracts/CryptoMonsters.sol",
  "compiler": {
    "name": "solc",
    "version": "0.5.8+commit.23d335f2.Emscripten.clang"
  },
  "schemaVersion": "3.0.11",
  "updatedAt": "2019-07-18T05:51:29.671Z",
  "devdoc": {
    "methods": {
      "approve(address,uint256)": {
        "details": "Approves another address to transfer the given token ID The zero address indicates there is no approved address. There can only be one approved address per token at a given time. Can only be called by the token owner or an approved operator.",
        "params": {
          "to": "address to be approved for the given token ID",
          "tokenId": "uint256 ID of the token to be approved"
        }
      },
      "balanceOf(address)": {
        "details": "Gets the balance of the specified address.",
        "params": {
          "owner": "address to query the balance of"
        },
        "return": "uint256 representing the amount owned by the passed address"
      },
      "getApproved(uint256)": {
        "details": "Gets the approved address for a token ID, or zero if no address set Reverts if the token ID does not exist.",
        "params": {
          "tokenId": "uint256 ID of the token to query the approval of"
        },
        "return": "address currently approved for the given token ID"
      },
      "isApprovedForAll(address,address)": {
        "details": "Tells whether an operator is approved by a given owner.",
        "params": {
          "operator": "operator address which you want to query the approval of",
          "owner": "owner address which you want to query the approval of"
        },
        "return": "bool whether the given operator is approved by the given owner"
      },
      "mint(address,uint256)": {
        "details": "Function to mint tokens.",
        "params": {
          "to": "The address that will receive the minted tokens.",
          "tokenId": "The token id to mint."
        },
        "return": "A boolean that indicates if the operation was successful."
      },
      "name()": {
        "details": "Gets the token name.",
        "return": "string representing the token name"
      },
      "ownerOf(uint256)": {
        "details": "Gets the owner of the specified token ID.",
        "params": {
          "tokenId": "uint256 ID of the token to query the owner of"
        },
        "return": "address currently marked as the owner of the given token ID"
      },
      "safeTransferFrom(address,address,uint256)": {
        "details": "Safely transfers the ownership of a given token ID to another address If the target address is a contract, it must implement `onERC721Received`, which is called upon a safe transfer, and return the magic value `bytes4(keccak256(\"onERC721Received(address,address,uint256,bytes)\"))`; otherwise, the transfer is reverted. Requires the msg.sender to be the owner, approved, or operator",
        "params": {
          "from": "current owner of the token",
          "to": "address to receive the ownership of the given token ID",
          "tokenId": "uint256 ID of the token to be transferred"
        }
      },
      "safeTransferFrom(address,address,uint256,bytes)": {
        "details": "Safely transfers the ownership of a given token ID to another address If the target address is a contract, it must implement `onERC721Received`, which is called upon a safe transfer, and return the magic value `bytes4(keccak256(\"onERC721Received(address,address,uint256,bytes)\"))`; otherwise, the transfer is reverted. Requires the msg.sender to be the owner, approved, or operator",
        "params": {
          "_data": "bytes data to send along with a safe transfer check",
          "from": "current owner of the token",
          "to": "address to receive the ownership of the given token ID",
          "tokenId": "uint256 ID of the token to be transferred"
        }
      },
      "setApprovalForAll(address,bool)": {
        "details": "Sets or unsets the approval of a given operator An operator is allowed to transfer all tokens of the sender on their behalf.",
        "params": {
          "approved": "representing the status of the approval to be set",
          "to": "operator address to set the approval"
        }
      },
      "supportsInterface(bytes4)": {
        "details": "See `IERC165.supportsInterface`.     * Time complexity O(1), guaranteed to always use less than 30 000 gas."
      },
      "symbol()": {
        "details": "Gets the token symbol.",
        "return": "string representing the token symbol"
      },
      "tokenByIndex(uint256)": {
        "details": "Gets the token ID at a given index of all the tokens in this contract Reverts if the index is greater or equal to the total number of tokens.",
        "params": {
          "index": "uint256 representing the index to be accessed of the tokens list"
        },
        "return": "uint256 token ID at the given index of the tokens list"
      },
      "tokenOfOwnerByIndex(address,uint256)": {
        "details": "Gets the token ID at a given index of the tokens list of the requested owner.",
        "params": {
          "index": "uint256 representing the index to be accessed of the requested tokens list",
          "owner": "address owning the tokens list to be accessed"
        },
        "return": "uint256 token ID at the given index of the tokens list owned by the requested address"
      },
      "tokenURI(uint256)": {
        "details": "Returns an URI for a given token ID. Throws if the token ID does not exist. May return an empty string.",
        "params": {
          "tokenId": "uint256 ID of the token to query"
        }
      },
      "totalSupply()": {
        "details": "Gets the total amount of tokens stored by the contract.",
        "return": "uint256 representing the total amount of tokens"
      },
      "transferFrom(address,address,uint256)": {
        "details": "Transfers the ownership of a given token ID to another address. Usage of this method is discouraged, use `safeTransferFrom` whenever possible. Requires the msg.sender to be the owner, approved, or operator.",
        "params": {
          "from": "current owner of the token",
          "to": "address to receive the ownership of the given token ID",
          "tokenId": "uint256 ID of the token to be transferred"
        }
      }
    }
  },
  "userdoc": {
    "methods": {}
  }
}