{
  "contractName": "CryptoMonsters",
  "abi": [
    {
      "constant": true,
      "inputs": [
        {
          "name": "interfaceId",
          "type": "bytes4"
        }
      ],
      "name": "supportsInterface",
      "outputs": [
        {
          "name": "",
          "type": "bool"
        }
      ],
      "payable": false,
      "stateMutability": "view",
      "type": "function"
    },
    {
      "constant": true,
      "inputs": [],
      "name": "name",
      "outputs": [
        {
          "name": "",
          "type": "string"
        }
      ],
      "payable": false,
      "stateMutability": "view",
      "type": "function"
    },
    {
      "constant": true,
      "inputs": [
        {
          "name": "tokenId",
          "type": "uint256"
        }
      ],
      "name": "getApproved",
      "outputs": [
        {
          "name": "",
          "type": "address"
        }
      ],
      "payable": false,
      "stateMutability": "view",
      "type": "function"
    },
    {
      "constant": false,
      "inputs": [
        {
          "name": "to",
          "type": "address"
        },
        {
          "name": "tokenId",
          "type": "uint256"
        }
      ],
      "name": "approve",
      "outputs": [],
      "payable": false,
      "stateMutability": "nonpayable",
      "type": "function"
    },
    {
      "constant": true,
      "inputs": [],
      "name": "totalSupply",
      "outputs": [
        {
          "name": "",
          "type": "uint256"
        }
      ],
      "payable": false,
      "stateMutability": "view",
      "type": "function"
    },
    {
      "constant": false,
      "inputs": [
        {
          "name": "from",
          "type": "address"
        },
        {
          "name": "to",
          "type": "address"
        },
        {
          "name": "tokenId",
          "type": "uint256"
        }
      ],
      "name": "transferFrom",
      "outputs": [],
      "payable": false,
      "stateMutability": "nonpayable",
      "type": "function"
    },
    {
      "constant": true,
      "inputs": [
        {
          "name": "owner",
          "type": "address"
        },
        {
          "name": "index",
          "type": "uint256"
        }
      ],
      "name": "tokenOfOwnerByIndex",
      "outputs": [
        {
          "name": "",
          "type": "uint256"
        }
      ],
      "payable": false,
      "stateMutability": "view",
      "type": "function"
    },
    {
      "constant": false,
      "inputs": [
        {
          "name": "to",
          "type": "address"
        },
        {
          "name": "tokenId",
          "type": "uint256"
        }
      ],
      "name": "mint",
      "outputs": [
        {
          "name": "",
          "type": "bool"
        }
      ],
      "payable": false,
      "stateMutability": "nonpayable",
      "type": "function"
    },
    {
      "constant": false,
      "inputs": [
        {
          "name": "from",
          "type": "address"
        },
        {
          "name": "to",
          "type": "address"
        },
        {
          "name": "tokenId",
          "type": "uint256"
        }
      ],
      "name": "safeTransferFrom",
      "outputs": [],
      "payable": false,
      "stateMutability": "nonpayable",
      "type": "function"
    },
    {
      "constant": true,
      "inputs": [
        {
          "name": "",
          "type": "address"
        }
      ],
      "name": "draw",
      "outputs": [
        {
          "name": "",
          "type": "uint256"
        }
      ],
      "payable": false,
      "stateMutability": "view",
      "type": "function"
    },
    {
      "constant": true,
      "inputs": [
        {
          "name": "index",
          "type": "uint256"
        }
      ],
      "name": "tokenByIndex",
      "outputs": [
        {
          "name": "",
          "type": "uint256"
        }
      ],
      "payable": false,
      "stateMutability": "view",
      "type": "function"
    },
    {
      "constant": true,
      "inputs": [
        {
          "name": "tokenId",
          "type": "uint256"
        }
      ],
      "name": "ownerOf",
      "outputs": [
        {
          "name": "",
          "type": "address"
        }
      ],
      "payable": false,
      "stateMutability": "view",
      "type": "function"
    },
    {
      "constant": true,
      "inputs": [
        {
          "name": "",
          "type": "address"
        }
      ],
      "name": "lost",
      "outputs": [
        {
          "name": "",
          "type": "uint256"
        }
      ],
      "payable": false,
      "stateMutability": "view",
      "type": "function"
    },
    {
      "constant": true,
      "inputs": [
        {
          "name": "owner",
          "type": "address"
        }
      ],
      "name": "balanceOf",
      "outputs": [
        {
          "name": "",
          "type": "uint256"
        }
      ],
      "payable": false,
      "stateMutability": "view",
      "type": "function"
    },
    {
      "constant": true,
      "inputs": [
        {
          "name": "",
          "type": "bytes32"
        }
      ],
      "name": "usedNames",
      "outputs": [
        {
          "name": "",
          "type": "bool"
        }
      ],
      "payable": false,
      "stateMutability": "view",
      "type": "function"
    },
    {
      "constant": true,
      "inputs": [],
      "name": "owner",
      "outputs": [
        {
          "name": "",
          "type": "address"
        }
      ],
      "payable": false,
      "stateMutability": "view",
      "type": "function"
    },
    {
      "constant": true,
      "inputs": [],
      "name": "symbol",
      "outputs": [
        {
          "name": "",
          "type": "string"
        }
      ],
      "payable": false,
      "stateMutability": "view",
      "type": "function"
    },
    {
      "constant": false,
      "inputs": [
        {
          "name": "account",
          "type": "address"
        }
      ],
      "name": "addMinter",
      "outputs": [],
      "payable": false,
      "stateMutability": "nonpayable",
      "type": "function"
    },
    {
      "constant": false,
      "inputs": [],
      "name": "renounceMinter",
      "outputs": [],
      "payable": false,
      "stateMutability": "nonpayable",
      "type": "function"
    },
    {
      "constant": false,
      "inputs": [
        {
          "name": "to",
          "type": "address"
        },
        {
          "name": "approved",
          "type": "bool"
        }
      ],
      "name": "setApprovalForAll",
      "outputs": [],
      "payable": false,
      "stateMutability": "nonpayable",
      "type": "function"
    },
    {
      "constant": true,
      "inputs": [
        {
          "name": "",
          "type": "address"
        }
      ],
      "name": "win",
      "outputs": [
        {
          "name": "",
          "type": "uint256"
        }
      ],
      "payable": false,
      "stateMutability": "view",
      "type": "function"
    },
    {
      "constant": true,
      "inputs": [
        {
          "name": "account",
          "type": "address"
        }
      ],
      "name": "isMinter",
      "outputs": [
        {
          "name": "",
          "type": "bool"
        }
      ],
      "payable": false,
      "stateMutability": "view",
      "type": "function"
    },
    {
      "constant": false,
      "inputs": [
        {
          "name": "from",
          "type": "address"
        },
        {
          "name": "to",
          "type": "address"
        },
        {
          "name": "tokenId",
          "type": "uint256"
        },
        {
          "name": "_data",
          "type": "bytes"
        }
      ],
      "name": "safeTransferFrom",
      "outputs": [],
      "payable": false,
      "stateMutability": "nonpayable",
      "type": "function"
    },
    {
      "constant": true,
      "inputs": [
        {
          "name": "",
          "type": "uint256"
        }
      ],
      "name": "monsters",
      "outputs": [
        {
          "name": "name",
          "type": "string"
        },
        {
          "name": "level",
          "type": "uint256"
        },
        {
          "name": "attackPower",
          "type": "uint256"
        },
        {
          "name": "defensePower",
          "type": "uint256"
        },
        {
          "name": "monsterOwner",
          "type": "address"
        },
        {
          "name": "id",
          "type": "uint256"
        }
      ],
      "payable": false,
      "stateMutability": "view",
      "type": "function"
    },
    {
      "constant": true,
      "inputs": [
        {
          "name": "tokenId",
          "type": "uint256"
        }
      ],
      "name": "tokenURI",
      "outputs": [
        {
          "name": "",
          "type": "string"
        }
      ],
      "payable": false,
      "stateMutability": "view",
      "type": "function"
    },
    {
      "constant": true,
      "inputs": [
        {
          "name": "owner",
          "type": "address"
        },
        {
          "name": "operator",
          "type": "address"
        }
      ],
      "name": "isApprovedForAll",
      "outputs": [
        {
          "name": "",
          "type": "bool"
        }
      ],
      "payable": false,
      "stateMutability": "view",
      "type": "function"
    },
    {
      "constant": true,
      "inputs": [
        {
          "name": "",
          "type": "address"
        }
      ],
      "name": "coolTime",
      "outputs": [
        {
          "name": "",
          "type": "uint256"
        }
      ],
      "payable": false,
      "stateMutability": "view",
      "type": "function"
    },
    {
      "inputs": [
        {
          "name": "_name",
          "type": "string"
        },
        {
          "name": "_symbol",
          "type": "string"
        }
      ],
      "payable": false,
      "stateMutability": "nonpayable",
      "type": "constructor"
    },
    {
      "anonymous": false,
      "inputs": [
        {
          "indexed": false,
          "name": "_MonsterID",
          "type": "uint256"
        }
      ],
      "name": "MonsterCreated",
      "type": "event"
    },
    {
      "anonymous": false,
      "inputs": [
        {
          "indexed": true,
          "name": "account",
          "type": "address"
        }
      ],
      "name": "MinterAdded",
      "type": "event"
    },
    {
      "anonymous": false,
      "inputs": [
        {
          "indexed": true,
          "name": "account",
          "type": "address"
        }
      ],
      "name": "MinterRemoved",
      "type": "event"
    },
    {
      "anonymous": false,
      "inputs": [
        {
          "indexed": true,
          "name": "from",
          "type": "address"
        },
        {
          "indexed": true,
          "name": "to",
          "type": "address"
        },
        {
          "indexed": true,
          "name": "tokenId",
          "type": "uint256"
        }
      ],
      "name": "Transfer",
      "type": "event"
    },
    {
      "anonymous": false,
      "inputs": [
        {
          "indexed": true,
          "name": "owner",
          "type": "address"
        },
        {
          "indexed": true,
          "name": "approved",
          "type": "address"
        },
        {
          "indexed": true,
          "name": "tokenId",
          "type": "uint256"
        }
      ],
      "name": "Approval",
      "type": "event"
    },
    {
      "anonymous": false,
      "inputs": [
        {
          "indexed": true,
          "name": "owner",
          "type": "address"
        },
        {
          "indexed": true,
          "name": "operator",
          "type": "address"
        },
        {
          "indexed": false,
          "name": "approved",
          "type": "bool"
        }
      ],
      "name": "ApprovalForAll",
      "type": "event"
    },
    {
      "constant": true,
      "inputs": [],
      "name": "getMonstersLength",
      "outputs": [
        {
          "name": "",
          "type": "uint256"
        }
      ],
      "payable": false,
      "stateMutability": "view",
      "type": "function"
    },
    {
      "constant": false,
      "inputs": [
        {
          "name": "_name",
          "type": "string"
        },
        {
          "name": "_level",
          "type": "uint256"
        },
        {
          "name": "_attackPower",
          "type": "uint256"
        },
        {
          "name": "_defensePower",
          "type": "uint256"
        },
        {
          "name": "_to",
          "type": "address"
        }
      ],
      "name": "createMonster",
      "outputs": [],
      "payable": false,
      "stateMutability": "nonpayable",
      "type": "function"
    },
    {
      "constant": false,
      "inputs": [
        {
          "name": "_monsterId",
          "type": "uint256"
        },
        {
          "name": "_targetId",
          "type": "uint256"
        }
      ],
      "name": "battle",
      "outputs": [],
      "payable": false,
      "stateMutability": "nonpayable",
      "type": "function"
    },
    {
      "constant": false,
      "inputs": [
        {
          "name": "_monsterId1",
          "type": "uint256"
        },
        {
          "name": "_monsterId2",
          "type": "uint256"
        },
        {
          "name": "_fusionMonsterName",
          "type": "string"
        }
      ],
      "name": "fusion",
      "outputs": [],
      "payable": false,
      "stateMutability": "nonpayable",
      "type": "function"
    },
    {
      "constant": true,
      "inputs": [],
      "name": "monstersCount",
      "outputs": [
        {
          "name": "length",
          "type": "uint256"
        }
      ],
      "payable": false,
      "stateMutability": "view",
      "type": "function"
    },
    {
      "constant": true,
      "inputs": [
        {
          "name": "_id",
          "type": "uint256"
        }
      ],
      "name": "getStats",
      "outputs": [
        {
          "name": "name",
          "type": "string"
        },
        {
          "name": "level",
          "type": "uint256"
        },
        {
          "name": "attackPower",
          "type": "uint256"
        },
        {
          "name": "defensePower",
          "type": "uint256"
        },
        {
          "name": "monsterOwner",
          "type": "address"
        }
      ],
      "payable": false,
      "stateMutability": "view",
      "type": "function"
    },
    {
      "constant": true,
      "inputs": [
        {
          "name": "_id",
          "type": "uint256"
        }
      ],
      "name": "getStatsExperimental",
      "outputs": [
        {
          "components": [
            {
              "name": "name",
              "type": "string"
            },
            {
              "name": "level",
              "type": "uint256"
            },
            {
              "name": "attackPower",
              "type": "uint256"
            },
            {
              "name": "defensePower",
              "type": "uint256"
            },
            {
              "name": "monsterOwner",
              "type": "address"
            },
            {
              "name": "id",
              "type": "uint256"
            }
          ],
          "name": "",
          "type": "tuple"
        }
      ],
      "payable": false,
      "stateMutability": "view",
      "type": "function"
    }
  ],
  "bytecode": "0x60806040523480156200001157600080fd5b5060405162004a9a38038062004a9a8339810180604052620000379190810190620004ed565b81818181620000536301ffc9a760e01b6200012b60201b60201c565b6200006b6380ac58cd60e01b6200012b60201b60201c565b6200008363780e9d6360e01b6200012b60201b60201c565b81600990805190602001906200009b929190620003e2565b5080600a9080519060200190620000b4929190620003e2565b50620000cd635b5e139f60e01b6200012b60201b60201c565b50505050620000e2336200020360201b60201c565b33600e60006101000a81548173ffffffffffffffffffffffffffffffffffffffff021916908373ffffffffffffffffffffffffffffffffffffffff160217905550505062000754565b63ffffffff60e01b817bffffffffffffffffffffffffffffffffffffffffffffffffffffffff1916141562000197576040517f08c379a00000000000000000000000000000000000000000000000000000000081526004016200018e906200066e565b60405180910390fd5b6001600080837bffffffffffffffffffffffffffffffffffffffffffffffffffffffff19167bffffffffffffffffffffffffffffffffffffffffffffffffffffffff1916815260200190815260200160002060006101000a81548160ff02191690831515021790555050565b6200021e81600c6200026460201b62002a3d1790919060201c565b8073ffffffffffffffffffffffffffffffffffffffff167f6ae172837ea30b801fbfcdd4108aa1d5bf8ff775444fd70256b44e6bf3dfc3f660405160405180910390a250565b6200027682826200031760201b60201c565b15620002b9576040517f08c379a0000000000000000000000000000000000000000000000000000000008152600401620002b0906200064c565b60405180910390fd5b60018260000160008373ffffffffffffffffffffffffffffffffffffffff1673ffffffffffffffffffffffffffffffffffffffff16815260200190815260200160002060006101000a81548160ff0219169083151502179055505050565b60008073ffffffffffffffffffffffffffffffffffffffff168273ffffffffffffffffffffffffffffffffffffffff1614156200038b576040517f08c379a0000000000000000000000000000000000000000000000000000000008152600401620003829062000690565b60405180910390fd5b8260000160008373ffffffffffffffffffffffffffffffffffffffff1673ffffffffffffffffffffffffffffffffffffffff16815260200190815260200160002060009054906101000a900460ff16905092915050565b828054600181600116156101000203166002900490600052602060002090601f016020900481019282601f106200042557805160ff191683800117855562000456565b8280016001018555821562000456579182015b828111156200045557825182559160200191906001019062000438565b5b50905062000465919062000469565b5090565b6200048e91905b808211156200048a57600081600090555060010162000470565b5090565b90565b600082601f830112620004a357600080fd5b8151620004ba620004b482620006e0565b620006b2565b91508082526020830160208301858383011115620004d757600080fd5b620004e48382846200071e565b50505092915050565b600080604083850312156200050157600080fd5b600083015167ffffffffffffffff8111156200051c57600080fd5b6200052a8582860162000491565b925050602083015167ffffffffffffffff8111156200054857600080fd5b620005568582860162000491565b9150509250929050565b60006200056f601f836200070d565b91507f526f6c65733a206163636f756e7420616c72656164792068617320726f6c65006000830152602082019050919050565b6000620005b1601c836200070d565b91507f4552433136353a20696e76616c696420696e74657266616365206964000000006000830152602082019050919050565b6000620005f36022836200070d565b91507f526f6c65733a206163636f756e7420697320746865207a65726f20616464726560008301527f73730000000000000000000000000000000000000000000000000000000000006020830152604082019050919050565b60006020820190508181036000830152620006678162000560565b9050919050565b600060208201905081810360008301526200068981620005a2565b9050919050565b60006020820190508181036000830152620006ab81620005e4565b9050919050565b6000604051905081810181811067ffffffffffffffff82111715620006d657600080fd5b8060405250919050565b600067ffffffffffffffff821115620006f857600080fd5b601f19601f8301169050602081019050919050565b600082825260208201905092915050565b60005b838110156200073e57808201518184015260208101905062000721565b838111156200074e576000848401525b50505050565b61433680620007646000396000f3fe608060405234801561001057600080fd5b50600436106102065760003560e01c80637b3039651161011a578063a34cc845116100ad578063c0576b731161007c578063c0576b731461064d578063c87b56dd14610682578063e85d5bab146106b2578063e985e9c5146106ce578063f04b846c146106fe57610206565b8063a34cc845146105b5578063aa271e1a146105e5578063ad153aeb14610615578063b88d4fde1461063157610206565b806395d89b41116100e957806395d89b4114610555578063983b2d5614610573578063986502751461058f578063a22cb4651461059957610206565b80637b303965146104c757806387e0712e146104fb57806387f8fce7146105195780638da5cb5b1461053757610206565b806333c172181161019d5780634f6ccce71161016c5780634f6ccce7146103d75780636352211e1461040757806370405a471461043757806370a0823114610467578063750af3ab1461049757610206565b806333c172181461032b57806340c10f191461035b57806342842e0e1461038b57806347a59b74146103a757610206565b806318160ddd116101d957806318160ddd146102a557806323b872dd146102c35780632a0c5221146102df5780632f745c59146102fb57610206565b806301ffc9a71461020b57806306fdde031461023b578063081812fc14610259578063095ea7b314610289575b600080fd5b610225600480360361022091908101906130ff565b61072e565b6040516102329190613cc2565b60405180910390f35b610243610795565b6040516102509190613cdd565b60405180910390f35b610273600480360361026e91908101906131e0565b610837565b6040516102809190613c5b565b60405180910390f35b6102a3600480360361029e919081019061309a565b6108bc565b005b6102ad610a69565b6040516102ba9190614083565b60405180910390f35b6102dd60048036036102d89190810190612f94565b610a76565b005b6102f960048036036102f49190810190613209565b610acf565b005b6103156004803603610310919081019061309a565b610dfd565b6040516103229190614083565b60405180910390f35b610345600480360361034091908101906131e0565b610ea6565b6040516103529190614061565b60405180910390f35b6103756004803603610370919081019061309a565b610ffb565b6040516103829190613cc2565b60405180910390f35b6103a560048036036103a09190810190612f94565b611059565b005b6103c160048036036103bc9190810190612f2f565b611079565b6040516103ce9190614083565b60405180910390f35b6103f160048036036103ec91908101906131e0565b611091565b6040516103fe9190614083565b60405180910390f35b610421600480360361041c91908101906131e0565b6110fb565b60405161042e9190613c5b565b60405180910390f35b610451600480360361044c9190810190612f2f565b6111ad565b60405161045e9190614083565b60405180910390f35b610481600480360361047c9190810190612f2f565b6111c5565b60405161048e9190614083565b60405180910390f35b6104b160048036036104ac91908101906130d6565b611284565b6040516104be9190613cc2565b60405180910390f35b6104e160048036036104dc91908101906131e0565b6112a4565b6040516104f2959493929190613cff565b60405180910390f35b6105036113b0565b6040516105109190614083565b60405180910390f35b6105216113bd565b60405161052e9190614083565b60405180910390f35b61053f6113ca565b60405161054c9190613c5b565b60405180910390f35b61055d6113f0565b60405161056a9190613cdd565b60405180910390f35b61058d60048036036105889190810190612f2f565b611492565b005b6105976114e6565b005b6105b360048036036105ae919081019061305e565b6114f1565b005b6105cf60048036036105ca9190810190612f2f565b61165d565b6040516105dc9190614083565b60405180910390f35b6105ff60048036036105fa9190810190612f2f565b611675565b60405161060c9190613cc2565b60405180910390f35b61062f600480360361062a9190810190613151565b611692565b005b61064b60048036036106469190810190612fe3565b6118ba565b005b610667600480360361066291908101906131e0565b611916565b60405161067996959493929190613d59565b60405180910390f35b61069c600480360361069791908101906131e0565b611a17565b6040516106a99190613cdd565b60405180910390f35b6106cc60048036036106c79190810190613245565b611b14565b005b6106e860048036036106e39190810190612f58565b611ec9565b6040516106f59190613cc2565b60405180910390f35b61071860048036036107139190810190612f2f565b611f5d565b6040516107259190614083565b60405180910390f35b6000806000837bffffffffffffffffffffffffffffffffffffffffffffffffffffffff19167bffffffffffffffffffffffffffffffffffffffffffffffffffffffff1916815260200190815260200160002060009054906101000a900460ff169050919050565b606060098054600181600116156101000203166002900480601f01602080910402602001604051908101604052809291908181526020018280546001816001161561010002031660029004801561082d5780601f106108025761010080835404028352916020019161082d565b820191906000526020600020905b81548152906001019060200180831161081057829003601f168201915b5050505050905090565b600061084282611f75565b610881576040517f08c379a000000000000000000000000000000000000000000000000000000000815260040161087890613f81565b60405180910390fd5b6002600083815260200190815260200160002060009054906101000a900473ffffffffffffffffffffffffffffffffffffffff169050919050565b60006108c7826110fb565b90508073ffffffffffffffffffffffffffffffffffffffff168373ffffffffffffffffffffffffffffffffffffffff161415610938576040517f08c379a000000000000000000000000000000000000000000000000000000000815260040161092f90614001565b60405180910390fd5b8073ffffffffffffffffffffffffffffffffffffffff163373ffffffffffffffffffffffffffffffffffffffff16148061097857506109778133611ec9565b5b6109b7576040517f08c379a00000000000000000000000000000000000000000000000000000000081526004016109ae90613ec1565b60405180910390fd5b826002600084815260200190815260200160002060006101000a81548173ffffffffffffffffffffffffffffffffffffffff021916908373ffffffffffffffffffffffffffffffffffffffff160217905550818373ffffffffffffffffffffffffffffffffffffffff168273ffffffffffffffffffffffffffffffffffffffff167f8c5be1e5ebec7d5bd14f71427d1e84f3dd0314c0f7b2291e5b200ac8c7c3b92560405160405180910390a4505050565b6000600780549050905090565b610a803382611fe7565b610abf576040517f08c379a0000000000000000000000000000000000000000000000000000000008152600401610ab690614021565b60405180910390fd5b610aca8383836120c5565b505050565b813373ffffffffffffffffffffffffffffffffffffffff16610af0826110fb565b73ffffffffffffffffffffffffffffffffffffffff1614610b1057600080fd5b6000600d8481548110610b1f57fe5b906000526020600020906006020190506000600d8481548110610b3e57fe5b90600052602060002090600602019050806003015482600201541115610c4a5760018260010160008282540192505081905550600a8260020160008282540192505081905550600a826003016000828254019250508190555060106000610ba4876110fb565b73ffffffffffffffffffffffffffffffffffffffff1673ffffffffffffffffffffffffffffffffffffffff1681526020019081526020016000206000815480929190600101919050555060126000610bfb866110fb565b73ffffffffffffffffffffffffffffffffffffffff1673ffffffffffffffffffffffffffffffffffffffff16815260200190815260200160002060008154809291906001019190505550610df6565b806003015482600201541415610d2057600a816003016000828254019250508190555060116000610c7a876110fb565b73ffffffffffffffffffffffffffffffffffffffff1673ffffffffffffffffffffffffffffffffffffffff1681526020019081526020016000206000815480929190600101919050555060116000610cd1866110fb565b73ffffffffffffffffffffffffffffffffffffffff1673ffffffffffffffffffffffffffffffffffffffff16815260200190815260200160002060008154809291906001019190505550610df5565b60018160010160008282540192505081905550600a816002016000828254019250508190555060126000610d53876110fb565b73ffffffffffffffffffffffffffffffffffffffff1673ffffffffffffffffffffffffffffffffffffffff1681526020019081526020016000206000815480929190600101919050555060106000610daa866110fb565b73ffffffffffffffffffffffffffffffffffffffff1673ffffffffffffffffffffffffffffffffffffffff168152602001908152602001600020600081548092919060010191905055505b5b5050505050565b6000610e08836111c5565b8210610e49576040517f08c379a0000000000000000000000000000000000000000000000000000000008152600401610e4090613de1565b60405180910390fd5b600560008473ffffffffffffffffffffffffffffffffffffffff1673ffffffffffffffffffffffffffffffffffffffff1681526020019081526020016000208281548110610e9357fe5b9060005260206000200154905092915050565b610eae612cec565b600d8281548110610ebb57fe5b90600052602060002090600602016040518060c0016040529081600082018054600181600116156101000203166002900480601f016020809104026020016040519081016040528092919081815260200182805460018160011615610100020316600290048015610f6d5780601f10610f4257610100808354040283529160200191610f6d565b820191906000526020600020905b815481529060010190602001808311610f5057829003601f168201915b505050505081526020016001820154815260200160028201548152602001600382015481526020016004820160009054906101000a900473ffffffffffffffffffffffffffffffffffffffff1673ffffffffffffffffffffffffffffffffffffffff1673ffffffffffffffffffffffffffffffffffffffff1681526020016005820154815250509050919050565b600061100633611675565b611045576040517f08c379a000000000000000000000000000000000000000000000000000000000815260040161103c90613f21565b60405180910390fd5b61104f83836120e9565b6001905092915050565b611074838383604051806020016040528060008152506118ba565b505050565b60116020528060005260406000206000915090505481565b600061109b610a69565b82106110dc576040517f08c379a00000000000000000000000000000000000000000000000000000000081526004016110d390614041565b60405180910390fd5b600782815481106110e957fe5b90600052602060002001549050919050565b6000806001600084815260200190815260200160002060009054906101000a900473ffffffffffffffffffffffffffffffffffffffff169050600073ffffffffffffffffffffffffffffffffffffffff168173ffffffffffffffffffffffffffffffffffffffff1614156111a4576040517f08c379a000000000000000000000000000000000000000000000000000000000815260040161119b90613f01565b60405180910390fd5b80915050919050565b60126020528060005260406000206000915090505481565b60008073ffffffffffffffffffffffffffffffffffffffff168273ffffffffffffffffffffffffffffffffffffffff161415611236576040517f08c379a000000000000000000000000000000000000000000000000000000000815260040161122d90613ee1565b60405180910390fd5b61127d600360008473ffffffffffffffffffffffffffffffffffffffff1673ffffffffffffffffffffffffffffffffffffffff16815260200190815260200160002061210a565b9050919050565b600f6020528060005260406000206000915054906101000a900460ff1681565b60606000806000806000600d87815481106112bb57fe5b90600052602060002090600602019050806000018054600181600116156101000203166002900480601f0160208091040260200160405190810160405280929190818152602001828054600181600116156101000203166002900480156113635780601f1061133857610100808354040283529160200191611363565b820191906000526020600020905b81548152906001019060200180831161134657829003601f168201915b505050505095508060010154945080600201549350806003015492508060040160009054906101000a900473ffffffffffffffffffffffffffffffffffffffff1691505091939590929450565b6000600d80549050905090565b6000600d80549050905090565b600e60009054906101000a900473ffffffffffffffffffffffffffffffffffffffff1681565b6060600a8054600181600116156101000203166002900480601f0160208091040260200160405190810160405280929190818152602001828054600181600116156101000203166002900480156114885780601f1061145d57610100808354040283529160200191611488565b820191906000526020600020905b81548152906001019060200180831161146b57829003601f168201915b5050505050905090565b61149b33611675565b6114da576040517f08c379a00000000000000000000000000000000000000000000000000000000081526004016114d190613f21565b60405180910390fd5b6114e381612118565b50565b6114ef33612172565b565b3373ffffffffffffffffffffffffffffffffffffffff168273ffffffffffffffffffffffffffffffffffffffff161415611560576040517f08c379a000000000000000000000000000000000000000000000000000000000815260040161155790613e61565b60405180910390fd5b80600460003373ffffffffffffffffffffffffffffffffffffffff1673ffffffffffffffffffffffffffffffffffffffff16815260200190815260200160002060008473ffffffffffffffffffffffffffffffffffffffff1673ffffffffffffffffffffffffffffffffffffffff16815260200190815260200160002060006101000a81548160ff0219169083151502179055508173ffffffffffffffffffffffffffffffffffffffff163373ffffffffffffffffffffffffffffffffffffffff167f17307eab39ab6107e8899845ad3d59bd9653f200f220920489ca2b5937696c31836040516116519190613cc2565b60405180910390a35050565b60106020528060005260406000206000915090505481565b600061168b82600c6121cc90919063ffffffff16565b9050919050565b3373ffffffffffffffffffffffffffffffffffffffff16600e60009054906101000a900473ffffffffffffffffffffffffffffffffffffffff1673ffffffffffffffffffffffffffffffffffffffff16146116ec57600080fd5b60018410156116fa57600080fd5b600183101561170857600080fd5b600182101561171657600080fd5b6000600d805490509050600d6040518060c001604052808881526020018781526020018681526020018581526020018473ffffffffffffffffffffffffffffffffffffffff168152602001838152509080600181540180825580915050906001820390600052602060002090600602016000909192909190915060008201518160000190805190602001906117ac929190612d38565b5060208201518160010155604082015181600201556060820151816003015560808201518160040160006101000a81548173ffffffffffffffffffffffffffffffffffffffff021916908373ffffffffffffffffffffffffffffffffffffffff16021790555060a082015181600501555050506001600f6000886040516020016118369190613c44565b60405160208183030381529060405280519060200120815260200190815260200160002060006101000a81548160ff02191690831515021790555061187b82826120e9565b7f6209fc68beb5a152cbee7a03b1c4bea6dc79b8dcc1a03c0f07eb7d3f8ea84c07816040516118aa9190614083565b60405180910390a1505050505050565b6118c5848484610a76565b6118d184848484612294565b611910576040517f08c379a000000000000000000000000000000000000000000000000000000000815260040161190790613e01565b60405180910390fd5b50505050565b600d818154811061192357fe5b9060005260206000209060060201600091509050806000018054600181600116156101000203166002900480601f0160208091040260200160405190810160405280929190818152602001828054600181600116156101000203166002900480156119cf5780601f106119a4576101008083540402835291602001916119cf565b820191906000526020600020905b8154815290600101906020018083116119b257829003601f168201915b5050505050908060010154908060020154908060030154908060040160009054906101000a900473ffffffffffffffffffffffffffffffffffffffff16908060050154905086565b6060611a2282611f75565b611a61576040517f08c379a0000000000000000000000000000000000000000000000000000000008152600401611a5890613fe1565b60405180910390fd5b600b60008381526020019081526020016000208054600181600116156101000203166002900480601f016020809104026020016040519081016040528092919081815260200182805460018160011615610100020316600290048015611b085780601f10611add57610100808354040283529160200191611b08565b820191906000526020600020905b815481529060010190602001808311611aeb57829003601f168201915b50505050509050919050565b600d8281548110611b2157fe5b906000526020600020906006020160040160009054906101000a900473ffffffffffffffffffffffffffffffffffffffff16600d8481548110611b6057fe5b906000526020600020906006020160040160009054906101000a900473ffffffffffffffffffffffffffffffffffffffff161673ffffffffffffffffffffffffffffffffffffffff163373ffffffffffffffffffffffffffffffffffffffff1614611bca57600080fd5b6005600d8381548110611bd957fe5b906000526020600020906006020160010154600d8581548110611bf857fe5b906000526020600020906006020160010154011015611c1657600080fd5b600f600082604051602001611c2b9190613c44565b60405160208183030381529060405280519060200120815260200190815260200160002060009054906101000a900460ff1615611c6757600080fd5b6000600d8381548110611c7657fe5b906000526020600020906006020160020154600d8581548110611c9557fe5b90600052602060002090600602016002015411611cd557600a600d8581548110611cbb57fe5b906000526020600020906006020160020154019050611cfa565b600a600d8481548110611ce457fe5b9060005260206000209060060201600201540190505b6000600d8481548110611d0957fe5b906000526020600020906006020160030154600d8681548110611d2857fe5b90600052602060002090600602016003015411611d6857600a600d8681548110611d4e57fe5b906000526020600020906006020160030154019050611d8d565b600a600d8581548110611d7757fe5b9060005260206000209060060201600301540190505b6000600d8581548110611d9c57fe5b906000526020600020906006020160010154600d8781548110611dbb57fe5b90600052602060002090600602016001015411611dfb576001600d8781548110611de157fe5b906000526020600020906006020160010154019050611e20565b6001600d8681548110611e0a57fe5b9060005260206000209060060201600101540190505b611e2d8482858533611692565b6107084201601360003373ffffffffffffffffffffffffffffffffffffffff1673ffffffffffffffffffffffffffffffffffffffff16815260200190815260200160002081905550601360003373ffffffffffffffffffffffffffffffffffffffff1673ffffffffffffffffffffffffffffffffffffffff16815260200190815260200160002054421015611ec157600080fd5b505050505050565b6000600460008473ffffffffffffffffffffffffffffffffffffffff1673ffffffffffffffffffffffffffffffffffffffff16815260200190815260200160002060008373ffffffffffffffffffffffffffffffffffffffff1673ffffffffffffffffffffffffffffffffffffffff16815260200190815260200160002060009054906101000a900460ff16905092915050565b60136020528060005260406000206000915090505481565b6000806001600084815260200190815260200160002060009054906101000a900473ffffffffffffffffffffffffffffffffffffffff169050600073ffffffffffffffffffffffffffffffffffffffff168173ffffffffffffffffffffffffffffffffffffffff161415915050919050565b6000611ff282611f75565b612031576040517f08c379a000000000000000000000000000000000000000000000000000000000815260040161202890613ea1565b60405180910390fd5b600061203c836110fb565b90508073ffffffffffffffffffffffffffffffffffffffff168473ffffffffffffffffffffffffffffffffffffffff1614806120ab57508373ffffffffffffffffffffffffffffffffffffffff1661209384610837565b73ffffffffffffffffffffffffffffffffffffffff16145b806120bc57506120bb8185611ec9565b5b91505092915050565b6120d08383836123ab565b6120da83826125da565b6120e48282612778565b505050565b6120f3828261283f565b6120fd8282612778565b612106816129f1565b5050565b600081600001549050919050565b61212c81600c612a3d90919063ffffffff16565b8073ffffffffffffffffffffffffffffffffffffffff167f6ae172837ea30b801fbfcdd4108aa1d5bf8ff775444fd70256b44e6bf3dfc3f660405160405180910390a250565b61218681600c612ae590919063ffffffff16565b8073ffffffffffffffffffffffffffffffffffffffff167fe94479a9f7e1952cc78f2d6baab678adc1b772d936c6583def489e524cb6669260405160405180910390a250565b60008073ffffffffffffffffffffffffffffffffffffffff168273ffffffffffffffffffffffffffffffffffffffff16141561223d576040517f08c379a000000000000000000000000000000000000000000000000000000000815260040161223490613fa1565b60405180910390fd5b8260000160008373ffffffffffffffffffffffffffffffffffffffff1673ffffffffffffffffffffffffffffffffffffffff16815260200190815260200160002060009054906101000a900460ff16905092915050565b60006122b58473ffffffffffffffffffffffffffffffffffffffff16612b8c565b6122c257600190506123a3565b60008473ffffffffffffffffffffffffffffffffffffffff1663150b7a02338887876040518563ffffffff1660e01b81526004016123039493929190613c76565b602060405180830381600087803b15801561231d57600080fd5b505af1158015612331573d6000803e3d6000fd5b505050506040513d601f19601f820116820180604052506123559190810190613128565b905063150b7a0260e01b7bffffffffffffffffffffffffffffffffffffffffffffffffffffffff1916817bffffffffffffffffffffffffffffffffffffffffffffffffffffffff1916149150505b949350505050565b8273ffffffffffffffffffffffffffffffffffffffff166123cb826110fb565b73ffffffffffffffffffffffffffffffffffffffff1614612421576040517f08c379a000000000000000000000000000000000000000000000000000000000815260040161241890613fc1565b60405180910390fd5b600073ffffffffffffffffffffffffffffffffffffffff168273ffffffffffffffffffffffffffffffffffffffff161415612491576040517f08c379a000000000000000000000000000000000000000000000000000000000815260040161248890613e41565b60405180910390fd5b61249a81612b9f565b6124e1600360008573ffffffffffffffffffffffffffffffffffffffff1673ffffffffffffffffffffffffffffffffffffffff168152602001908152602001600020612c5d565b612528600360008473ffffffffffffffffffffffffffffffffffffffff1673ffffffffffffffffffffffffffffffffffffffff168152602001908152602001600020612c80565b816001600083815260200190815260200160002060006101000a81548173ffffffffffffffffffffffffffffffffffffffff021916908373ffffffffffffffffffffffffffffffffffffffff160217905550808273ffffffffffffffffffffffffffffffffffffffff168473ffffffffffffffffffffffffffffffffffffffff167fddf252ad1be2c89b69c2b068fc378daa952ba7f163c4a11628f55a4df523b3ef60405160405180910390a4505050565b60006126326001600560008673ffffffffffffffffffffffffffffffffffffffff1673ffffffffffffffffffffffffffffffffffffffff16815260200190815260200160002080549050612c9690919063ffffffff16565b905060006006600084815260200190815260200160002054905081811461271f576000600560008673ffffffffffffffffffffffffffffffffffffffff1673ffffffffffffffffffffffffffffffffffffffff168152602001908152602001600020838154811061269f57fe5b9060005260206000200154905080600560008773ffffffffffffffffffffffffffffffffffffffff1673ffffffffffffffffffffffffffffffffffffffff16815260200190815260200160002083815481106126f757fe5b9060005260206000200181905550816006600083815260200190815260200160002081905550505b600560008573ffffffffffffffffffffffffffffffffffffffff1673ffffffffffffffffffffffffffffffffffffffff1681526020019081526020016000208054809190600190036127719190612db8565b5050505050565b600560008373ffffffffffffffffffffffffffffffffffffffff1673ffffffffffffffffffffffffffffffffffffffff168152602001908152602001600020805490506006600083815260200190815260200160002081905550600560008373ffffffffffffffffffffffffffffffffffffffff1673ffffffffffffffffffffffffffffffffffffffff1681526020019081526020016000208190806001815401808255809150509060018203906000526020600020016000909192909190915055505050565b600073ffffffffffffffffffffffffffffffffffffffff168273ffffffffffffffffffffffffffffffffffffffff1614156128af576040517f08c379a00000000000000000000000000000000000000000000000000000000081526004016128a690613f61565b60405180910390fd5b6128b881611f75565b156128f8576040517f08c379a00000000000000000000000000000000000000000000000000000000081526004016128ef90613e21565b60405180910390fd5b816001600083815260200190815260200160002060006101000a81548173ffffffffffffffffffffffffffffffffffffffff021916908373ffffffffffffffffffffffffffffffffffffffff160217905550612991600360008473ffffffffffffffffffffffffffffffffffffffff1673ffffffffffffffffffffffffffffffffffffffff168152602001908152602001600020612c80565b808273ffffffffffffffffffffffffffffffffffffffff16600073ffffffffffffffffffffffffffffffffffffffff167fddf252ad1be2c89b69c2b068fc378daa952ba7f163c4a11628f55a4df523b3ef60405160405180910390a45050565b6007805490506008600083815260200190815260200160002081905550600781908060018154018082558091505090600182039060005260206000200160009091929091909150555050565b612a4782826121cc565b15612a87576040517f08c379a0000000000000000000000000000000000000000000000000000000008152600401612a7e90613dc1565b60405180910390fd5b60018260000160008373ffffffffffffffffffffffffffffffffffffffff1673ffffffffffffffffffffffffffffffffffffffff16815260200190815260200160002060006101000a81548160ff0219169083151502179055505050565b612aef82826121cc565b612b2e576040517f08c379a0000000000000000000000000000000000000000000000000000000008152600401612b2590613f41565b60405180910390fd5b60008260000160008373ffffffffffffffffffffffffffffffffffffffff1673ffffffffffffffffffffffffffffffffffffffff16815260200190815260200160002060006101000a81548160ff0219169083151502179055505050565b600080823b905060008111915050919050565b600073ffffffffffffffffffffffffffffffffffffffff166002600083815260200190815260200160002060009054906101000a900473ffffffffffffffffffffffffffffffffffffffff1673ffffffffffffffffffffffffffffffffffffffff1614612c5a5760006002600083815260200190815260200160002060006101000a81548173ffffffffffffffffffffffffffffffffffffffff021916908373ffffffffffffffffffffffffffffffffffffffff1602179055505b50565b612c7560018260000154612c9690919063ffffffff16565b816000018190555050565b6001816000016000828254019250508190555050565b600082821115612cdb576040517f08c379a0000000000000000000000000000000000000000000000000000000008152600401612cd290613e81565b60405180910390fd5b600082840390508091505092915050565b6040518060c0016040528060608152602001600081526020016000815260200160008152602001600073ffffffffffffffffffffffffffffffffffffffff168152602001600081525090565b828054600181600116156101000203166002900490600052602060002090601f016020900481019282601f10612d7957805160ff1916838001178555612da7565b82800160010185558215612da7579182015b82811115612da6578251825591602001919060010190612d8b565b5b509050612db49190612de4565b5090565b815481835581811115612ddf57818360005260206000209182019101612dde9190612de4565b5b505050565b612e0691905b80821115612e02576000816000905550600101612dea565b5090565b90565b600081359050612e1881614289565b92915050565b600081359050612e2d816142a0565b92915050565b600081359050612e42816142b7565b92915050565b600081359050612e57816142ce565b92915050565b600081519050612e6c816142ce565b92915050565b600082601f830112612e8357600080fd5b8135612e96612e91826140cb565b61409e565b91508082526020830160208301858383011115612eb257600080fd5b612ebd838284614236565b50505092915050565b600082601f830112612ed757600080fd5b8135612eea612ee5826140f7565b61409e565b91508082526020830160208301858383011115612f0657600080fd5b612f11838284614236565b50505092915050565b600081359050612f29816142e5565b92915050565b600060208284031215612f4157600080fd5b6000612f4f84828501612e09565b91505092915050565b60008060408385031215612f6b57600080fd5b6000612f7985828601612e09565b9250506020612f8a85828601612e09565b9150509250929050565b600080600060608486031215612fa957600080fd5b6000612fb786828701612e09565b9350506020612fc886828701612e09565b9250506040612fd986828701612f1a565b9150509250925092565b60008060008060808587031215612ff957600080fd5b600061300787828801612e09565b945050602061301887828801612e09565b935050604061302987828801612f1a565b925050606085013567ffffffffffffffff81111561304657600080fd5b61305287828801612e72565b91505092959194509250565b6000806040838503121561307157600080fd5b600061307f85828601612e09565b925050602061309085828601612e1e565b9150509250929050565b600080604083850312156130ad57600080fd5b60006130bb85828601612e09565b92505060206130cc85828601612f1a565b9150509250929050565b6000602082840312156130e857600080fd5b60006130f684828501612e33565b91505092915050565b60006020828403121561311157600080fd5b600061311f84828501612e48565b91505092915050565b60006020828403121561313a57600080fd5b600061314884828501612e5d565b91505092915050565b600080600080600060a0868803121561316957600080fd5b600086013567ffffffffffffffff81111561318357600080fd5b61318f88828901612ec6565b95505060206131a088828901612f1a565b94505060406131b188828901612f1a565b93505060606131c288828901612f1a565b92505060806131d388828901612e09565b9150509295509295909350565b6000602082840312156131f257600080fd5b600061320084828501612f1a565b91505092915050565b6000806040838503121561321c57600080fd5b600061322a85828601612f1a565b925050602061323b85828601612f1a565b9150509250929050565b60008060006060848603121561325a57600080fd5b600061326886828701612f1a565b935050602061327986828701612f1a565b925050604084013567ffffffffffffffff81111561329657600080fd5b6132a286828701612ec6565b9150509250925092565b6132b581614200565b82525050565b6132c481614182565b82525050565b6132d381614182565b82525050565b6132e281614194565b82525050565b60006132f382614123565b6132fd8185614144565b935061330d818560208601614245565b61331681614278565b840191505092915050565b600061332c82614139565b6133368185614166565b9350613346818560208601614245565b61334f81614278565b840191505092915050565b600061336582614139565b61336f8185614177565b935061337f818560208601614245565b80840191505092915050565b60006133968261412e565b6133a08185614155565b93506133b0818560208601614245565b6133b981614278565b840191505092915050565b60006133cf8261412e565b6133d98185614166565b93506133e9818560208601614245565b6133f281614278565b840191505092915050565b600061340a601f83614166565b91507f526f6c65733a206163636f756e7420616c72656164792068617320726f6c65006000830152602082019050919050565b600061344a602b83614166565b91507f455243373231456e756d657261626c653a206f776e657220696e646578206f7560008301527f74206f6620626f756e64730000000000000000000000000000000000000000006020830152604082019050919050565b60006134b0603283614166565b91507f4552433732313a207472616e7366657220746f206e6f6e20455243373231526560008301527f63656976657220696d706c656d656e74657200000000000000000000000000006020830152604082019050919050565b6000613516601c83614166565b91507f4552433732313a20746f6b656e20616c7265616479206d696e746564000000006000830152602082019050919050565b6000613556602483614166565b91507f4552433732313a207472616e7366657220746f20746865207a65726f2061646460008301527f72657373000000000000000000000000000000000000000000000000000000006020830152604082019050919050565b60006135bc601983614166565b91507f4552433732313a20617070726f766520746f2063616c6c6572000000000000006000830152602082019050919050565b60006135fc601e83614166565b91507f536166654d6174683a207375627472616374696f6e206f766572666c6f7700006000830152602082019050919050565b600061363c602c83614166565b91507f4552433732313a206f70657261746f7220717565727920666f72206e6f6e657860008301527f697374656e7420746f6b656e00000000000000000000000000000000000000006020830152604082019050919050565b60006136a2603883614166565b91507f4552433732313a20617070726f76652063616c6c6572206973206e6f74206f7760008301527f6e6572206e6f7220617070726f76656420666f7220616c6c00000000000000006020830152604082019050919050565b6000613708602a83614166565b91507f4552433732313a2062616c616e636520717565727920666f7220746865207a6560008301527f726f2061646472657373000000000000000000000000000000000000000000006020830152604082019050919050565b600061376e602983614166565b91507f4552433732313a206f776e657220717565727920666f72206e6f6e657869737460008301527f656e7420746f6b656e00000000000000000000000000000000000000000000006020830152604082019050919050565b60006137d4603083614166565b91507f4d696e746572526f6c653a2063616c6c657220646f6573206e6f74206861766560008301527f20746865204d696e74657220726f6c65000000000000000000000000000000006020830152604082019050919050565b600061383a602183614166565b91507f526f6c65733a206163636f756e7420646f6573206e6f74206861766520726f6c60008301527f65000000000000000000000000000000000000000000000000000000000000006020830152604082019050919050565b60006138a0602083614166565b91507f4552433732313a206d696e7420746f20746865207a65726f20616464726573736000830152602082019050919050565b60006138e0602c83614166565b91507f4552433732313a20617070726f76656420717565727920666f72206e6f6e657860008301527f697374656e7420746f6b656e00000000000000000000000000000000000000006020830152604082019050919050565b6000613946602283614166565b91507f526f6c65733a206163636f756e7420697320746865207a65726f20616464726560008301527f73730000000000000000000000000000000000000000000000000000000000006020830152604082019050919050565b60006139ac602983614166565b91507f4552433732313a207472616e73666572206f6620746f6b656e2074686174206960008301527f73206e6f74206f776e00000000000000000000000000000000000000000000006020830152604082019050919050565b6000613a12602f83614166565b91507f4552433732314d657461646174613a2055524920717565727920666f72206e6f60008301527f6e6578697374656e7420746f6b656e00000000000000000000000000000000006020830152604082019050919050565b6000613a78602183614166565b91507f4552433732313a20617070726f76616c20746f2063757272656e74206f776e6560008301527f72000000000000000000000000000000000000000000000000000000000000006020830152604082019050919050565b6000613ade603183614166565b91507f4552433732313a207472616e736665722063616c6c6572206973206e6f74206f60008301527f776e6572206e6f7220617070726f7665640000000000000000000000000000006020830152604082019050919050565b6000613b44602c83614166565b91507f455243373231456e756d657261626c653a20676c6f62616c20696e646578206f60008301527f7574206f6620626f756e647300000000000000000000000000000000000000006020830152604082019050919050565b600060c0830160008301518482036000860152613bba828261338b565b9150506020830151613bcf6020860182613c26565b506040830151613be26040860182613c26565b506060830151613bf56060860182613c26565b506080830151613c0860808601826132bb565b5060a0830151613c1b60a0860182613c26565b508091505092915050565b613c2f816141f6565b82525050565b613c3e816141f6565b82525050565b6000613c50828461335a565b915081905092915050565b6000602082019050613c7060008301846132ca565b92915050565b6000608082019050613c8b60008301876132ac565b613c9860208301866132ca565b613ca56040830185613c35565b8181036060830152613cb781846132e8565b905095945050505050565b6000602082019050613cd760008301846132d9565b92915050565b60006020820190508181036000830152613cf78184613321565b905092915050565b600060a0820190508181036000830152613d198188613321565b9050613d286020830187613c35565b613d356040830186613c35565b613d426060830185613c35565b613d4f60808301846132ca565b9695505050505050565b600060c0820190508181036000830152613d7381896133c4565b9050613d826020830188613c35565b613d8f6040830187613c35565b613d9c6060830186613c35565b613da960808301856132ca565b613db660a0830184613c35565b979650505050505050565b60006020820190508181036000830152613dda816133fd565b9050919050565b60006020820190508181036000830152613dfa8161343d565b9050919050565b60006020820190508181036000830152613e1a816134a3565b9050919050565b60006020820190508181036000830152613e3a81613509565b9050919050565b60006020820190508181036000830152613e5a81613549565b9050919050565b60006020820190508181036000830152613e7a816135af565b9050919050565b60006020820190508181036000830152613e9a816135ef565b9050919050565b60006020820190508181036000830152613eba8161362f565b9050919050565b60006020820190508181036000830152613eda81613695565b9050919050565b60006020820190508181036000830152613efa816136fb565b9050919050565b60006020820190508181036000830152613f1a81613761565b9050919050565b60006020820190508181036000830152613f3a816137c7565b9050919050565b60006020820190508181036000830152613f5a8161382d565b9050919050565b60006020820190508181036000830152613f7a81613893565b9050919050565b60006020820190508181036000830152613f9a816138d3565b9050919050565b60006020820190508181036000830152613fba81613939565b9050919050565b60006020820190508181036000830152613fda8161399f565b9050919050565b60006020820190508181036000830152613ffa81613a05565b9050919050565b6000602082019050818103600083015261401a81613a6b565b9050919050565b6000602082019050818103600083015261403a81613ad1565b9050919050565b6000602082019050818103600083015261405a81613b37565b9050919050565b6000602082019050818103600083015261407b8184613b9d565b905092915050565b60006020820190506140986000830184613c35565b92915050565b6000604051905081810181811067ffffffffffffffff821117156140c157600080fd5b8060405250919050565b600067ffffffffffffffff8211156140e257600080fd5b601f19601f8301169050602081019050919050565b600067ffffffffffffffff82111561410e57600080fd5b601f19601f8301169050602081019050919050565b600081519050919050565b600081519050919050565b600081519050919050565b600082825260208201905092915050565b600082825260208201905092915050565b600082825260208201905092915050565b600081905092915050565b600061418d826141d6565b9050919050565b60008115159050919050565b6000819050919050565b60007fffffffff0000000000000000000000000000000000000000000000000000000082169050919050565b600073ffffffffffffffffffffffffffffffffffffffff82169050919050565b6000819050919050565b600061420b82614212565b9050919050565b600061421d82614224565b9050919050565b600061422f826141d6565b9050919050565b82818337600083830152505050565b60005b83811015614263578082015181840152602081019050614248565b83811115614272576000848401525b50505050565b6000601f19601f8301169050919050565b61429281614182565b811461429d57600080fd5b50565b6142a981614194565b81146142b457600080fd5b50565b6142c0816141a0565b81146142cb57600080fd5b50565b6142d7816141aa565b81146142e257600080fd5b50565b6142ee816141f6565b81146142f957600080fd5b5056fea265627a7a72305820271f97f4f03fe9cc38b8e3c2b3f092668d05ec266b851e7229364e44ad4945496c6578706572696d656e74616cf50037",
  "source": "pragma solidity ^0.5.0;\r\n// Enable the ABI v2 Coder\r\npragma experimental ABIEncoderV2;\r\n\r\nimport 'openzeppelin-solidity/contracts/token/ERC721/ERC721Full.sol';\r\nimport 'openzeppelin-solidity/contracts/token/ERC721/ERC721Mintable.sol';\r\n\r\ncontract CryptoMonsters is ERC721Full, ERC721Mintable {\r\n    \r\n    event MonsterCreated(uint256 _MonsterID);\r\n\r\n    struct Monster {\r\n        string name;\r\n        uint256 level;\r\n        uint256 attackPower;\r\n        uint256 defensePower;\r\n        address monsterOwner;\r\n        uint256 id;\r\n    }\r\n\r\n    Monster[] public monsters; \r\n    address public owner;\r\n    mapping(bytes32 => bool) public usedNames;\r\n\r\n    //Counter\r\n    mapping (address => uint256) public win;\r\n    mapping (address => uint256) public draw;\r\n    mapping (address => uint256) public lost;\r\n\r\n    //Cool down counter\r\n    mapping (address => uint256) public coolTime;\r\n\r\n    constructor(string memory _name , string memory _symbol) public ERC721Full(_name, _symbol) {\r\n        //Only the owner can create crypto monster\r\n        owner = msg.sender;\r\n    }\r\n\r\n    function getMonstersLength() public view returns (uint256) {\r\n        return monsters.length;\r\n    }\r\n    /**\r\n   * @dev Guarantees msg.sender is owner of the given token\r\n   * @param _tokenId uint256 ID of the token to validate its ownership belongs to msg.sender\r\n   */\r\n    modifier onlyOwnerOf(uint256 _tokenId) {\r\n        require(ownerOf(_tokenId) == msg.sender);\r\n        _;\r\n    }\r\n\r\n    function createMonster(string memory _name, uint256 _level, uint256 _attackPower,uint256 _defensePower, address _to) public {\r\n        require(owner == msg.sender);\r\n\r\n        //Monster stats requirements\r\n        require(_level >= 1);\r\n        require(_attackPower >= 1);\r\n        require(_defensePower >= 1);\r\n\r\n        uint256 id =  monsters.length;\r\n\r\n        monsters.push(Monster({name: _name, level: _level,  attackPower: _attackPower,  defensePower: _defensePower, monsterOwner: _to , id: id}));\r\n        //Mark off monster name\r\n        usedNames[keccak256(abi.encodePacked(_name))] = true;\r\n        _mint(_to, id);\r\n        emit MonsterCreated(id);\r\n    }\r\n\r\n    function battle(uint256 _monsterId, uint256 _targetId) onlyOwnerOf(_monsterId) public {\r\n        Monster storage monster1 = monsters[_monsterId];\r\n        Monster storage monster2 = monsters[_targetId];\r\n        \r\n        //Win Case\r\n        if(monster1.attackPower > monster2.defensePower) {\r\n            monster1.level += 1;\r\n            monster1.attackPower += 10;\r\n            monster1.defensePower += 10;\r\n            win[ownerOf(_monsterId)]++;\r\n            lost[ownerOf(_targetId)]++;\r\n        }\r\n        //Draw Case\r\n        else if(monster1.attackPower == monster2.defensePower) {\r\n        \r\n            monster2.defensePower += 10;\r\n            draw[ownerOf(_monsterId)]++;\r\n            draw[ownerOf(_targetId)]++;\r\n\r\n        }\r\n        //Lost Case\r\n        else {\r\n            monster2.level += 1;\r\n            monster2.attackPower += 10;\r\n            lost[ownerOf(_monsterId)]++;\r\n            win[ownerOf(_targetId)]++;\r\n        }\r\n    }\r\n\r\n    function fusion(uint256 _monsterId1, uint256 _monsterId2, string memory _fusionMonsterName ) public {\r\n        //Anymore that owns the monstercan fuse the monster\r\n        require(uint160(msg.sender) == uint160(monsters[_monsterId1].monsterOwner) & uint160(monsters[_monsterId2].monsterOwner));\r\n        //Require both monsters to have a combine level of 5 or above\r\n        require(monsters[_monsterId1].level + monsters[_monsterId2].level >= 5);\r\n        //Checking to see if the monster name already exist or not\r\n        require(!usedNames[keccak256(abi.encodePacked(_fusionMonsterName))]);\r\n\r\n        //Calculating fusion Monster stats\r\n        uint256 _fusionMonsterAttackPower;\r\n        if ( monsters[_monsterId1].attackPower <= monsters[_monsterId2].attackPower ) {\r\n            _fusionMonsterAttackPower = monsters[_monsterId1].attackPower + 10;\r\n        }\r\n        else {\r\n            _fusionMonsterAttackPower = monsters[_monsterId2].attackPower + 10;\r\n        }\r\n\r\n        uint256 _fusionMonsterDefensePower;\r\n        if ( monsters[_monsterId1].defensePower <= monsters[_monsterId2].defensePower ) {\r\n            _fusionMonsterDefensePower = monsters[_monsterId1].defensePower + 10;\r\n        }\r\n        else {\r\n            _fusionMonsterDefensePower = monsters[_monsterId2].defensePower + 10;\r\n        }\r\n\r\n        uint256 _fusionMonsterLevel;\r\n        if ( monsters[_monsterId1].level <= monsters[_monsterId2].level ) {\r\n            _fusionMonsterLevel = monsters[_monsterId1].level + 1;\r\n        }\r\n        else {\r\n            _fusionMonsterLevel = monsters[_monsterId2].level + 1;\r\n        }\r\n\r\n        createMonster(_fusionMonsterName, _fusionMonsterLevel, _fusionMonsterAttackPower, _fusionMonsterDefensePower, msg.sender);\r\n        \r\n        //30 mins before the user can fuse again\r\n        coolTime[msg.sender] = block.timestamp + 1800;\r\n        require(block.timestamp >= coolTime[msg.sender]);\r\n    }\r\n\r\n    function monstersCount() external view returns (uint256 length) {\r\n        return monsters.length;\r\n    }\r\n\r\n    function getStats(uint256 _id) external view\r\n        returns (\r\n            string memory name,\r\n            uint256 level,\r\n            uint256 attackPower,\r\n            uint256 defensePower,\r\n            address monsterOwner\r\n        )\r\n        {\r\n        Monster storage stats = monsters[_id];\r\n\r\n        // if this variable is 0 then it's not gestating\r\n        name = string(stats.name);\r\n        level = uint256(stats.level);\r\n        attackPower = uint256(stats.attackPower);\r\n        defensePower = uint256(stats.defensePower);\r\n        monsterOwner = address(stats.monsterOwner);\r\n    }\r\n\r\n    function getStatsExperimental(uint256 _id) external view returns (Monster memory) {\r\n        return monsters[_id];\r\n    }\r\n}\r\n",
  "sourcePath": "C:/Users/hetzer/Documents/GitHub/CryptoMonsters/contracts/CryptoMonsters.sol",
  "compiler": {
    "name": "solc",
    "version": "0.5.8+commit.23d335f2.Emscripten.clang"
  },
  "schemaVersion": "3.0.11",
  "updatedAt": "2019-08-15T19:25:13.186Z",
  "devdoc": {
    "methods": {
      "approve(address,uint256)": {
        "details": "Approves another address to transfer the given token ID The zero address indicates there is no approved address. There can only be one approved address per token at a given time. Can only be called by the token owner or an approved operator.",
        "params": {
          "to": "address to be approved for the given token ID",
          "tokenId": "uint256 ID of the token to be approved"
        }
      },
      "balanceOf(address)": {
        "details": "Gets the balance of the specified address.",
        "params": {
          "owner": "address to query the balance of"
        },
        "return": "uint256 representing the amount owned by the passed address"
      },
      "getApproved(uint256)": {
        "details": "Gets the approved address for a token ID, or zero if no address set Reverts if the token ID does not exist.",
        "params": {
          "tokenId": "uint256 ID of the token to query the approval of"
        },
        "return": "address currently approved for the given token ID"
      },
      "isApprovedForAll(address,address)": {
        "details": "Tells whether an operator is approved by a given owner.",
        "params": {
          "operator": "operator address which you want to query the approval of",
          "owner": "owner address which you want to query the approval of"
        },
        "return": "bool whether the given operator is approved by the given owner"
      },
      "mint(address,uint256)": {
        "details": "Function to mint tokens.",
        "params": {
          "to": "The address that will receive the minted tokens.",
          "tokenId": "The token id to mint."
        },
        "return": "A boolean that indicates if the operation was successful."
      },
      "name()": {
        "details": "Gets the token name.",
        "return": "string representing the token name"
      },
      "ownerOf(uint256)": {
        "details": "Gets the owner of the specified token ID.",
        "params": {
          "tokenId": "uint256 ID of the token to query the owner of"
        },
        "return": "address currently marked as the owner of the given token ID"
      },
      "safeTransferFrom(address,address,uint256)": {
        "details": "Safely transfers the ownership of a given token ID to another address If the target address is a contract, it must implement `onERC721Received`, which is called upon a safe transfer, and return the magic value `bytes4(keccak256(\"onERC721Received(address,address,uint256,bytes)\"))`; otherwise, the transfer is reverted. Requires the msg.sender to be the owner, approved, or operator",
        "params": {
          "from": "current owner of the token",
          "to": "address to receive the ownership of the given token ID",
          "tokenId": "uint256 ID of the token to be transferred"
        }
      },
      "safeTransferFrom(address,address,uint256,bytes)": {
        "details": "Safely transfers the ownership of a given token ID to another address If the target address is a contract, it must implement `onERC721Received`, which is called upon a safe transfer, and return the magic value `bytes4(keccak256(\"onERC721Received(address,address,uint256,bytes)\"))`; otherwise, the transfer is reverted. Requires the msg.sender to be the owner, approved, or operator",
        "params": {
          "_data": "bytes data to send along with a safe transfer check",
          "from": "current owner of the token",
          "to": "address to receive the ownership of the given token ID",
          "tokenId": "uint256 ID of the token to be transferred"
        }
      },
      "setApprovalForAll(address,bool)": {
        "details": "Sets or unsets the approval of a given operator An operator is allowed to transfer all tokens of the sender on their behalf.",
        "params": {
          "approved": "representing the status of the approval to be set",
          "to": "operator address to set the approval"
        }
      },
      "supportsInterface(bytes4)": {
        "details": "See `IERC165.supportsInterface`.     * Time complexity O(1), guaranteed to always use less than 30 000 gas."
      },
      "symbol()": {
        "details": "Gets the token symbol.",
        "return": "string representing the token symbol"
      },
      "tokenByIndex(uint256)": {
        "details": "Gets the token ID at a given index of all the tokens in this contract Reverts if the index is greater or equal to the total number of tokens.",
        "params": {
          "index": "uint256 representing the index to be accessed of the tokens list"
        },
        "return": "uint256 token ID at the given index of the tokens list"
      },
      "tokenOfOwnerByIndex(address,uint256)": {
        "details": "Gets the token ID at a given index of the tokens list of the requested owner.",
        "params": {
          "index": "uint256 representing the index to be accessed of the requested tokens list",
          "owner": "address owning the tokens list to be accessed"
        },
        "return": "uint256 token ID at the given index of the tokens list owned by the requested address"
      },
      "tokenURI(uint256)": {
        "details": "Returns an URI for a given token ID. Throws if the token ID does not exist. May return an empty string.",
        "params": {
          "tokenId": "uint256 ID of the token to query"
        }
      },
      "totalSupply()": {
        "details": "Gets the total amount of tokens stored by the contract.",
        "return": "uint256 representing the total amount of tokens"
      },
      "transferFrom(address,address,uint256)": {
        "details": "Transfers the ownership of a given token ID to another address. Usage of this method is discouraged, use `safeTransferFrom` whenever possible. Requires the msg.sender to be the owner, approved, or operator.",
        "params": {
          "from": "current owner of the token",
          "to": "address to receive the ownership of the given token ID",
          "tokenId": "uint256 ID of the token to be transferred"
        }
      }
    }
  },
  "userdoc": {
    "methods": {}
  }
}